S01400005465737450726F746F636F6C2E737265631E
S11300000C9434000C942A020C9451000C9451006A
S11300100C9451000C9451000C9451000C94510018
S11300200C9451000C9451000C9451000C94510008
S11300300C9451000C9451000C9451000C945100F8
S11300400C9451000C9451000C9451000C945100E8
S11300500C9451000C9451000C9451000C945100D8
S11300600C9451000C94510011241FBECFEFD8E022
S1130070DEBFCDBF12E0A0E0B1E0EAE1F5E002C0EE
S113008005900D92AA3FB107D9F713E0AAEFB2E0A9
S113009001C01D92AE31B107E1F70E947A010C94C0
S11300A08B020C9400001092C50083E38093C4007B
S11300B01092C00088E18093C10086E08093C20062
S11300C00895E0ECF0E0908195FFFDCF8093C600A9
S11300D00895E0ECF0E080818823ECF78091C6007D
S11300E00895CF93DF93EC018881882331F0219622
S11300F00E94610089918823D9F7DF91CF910895F7
S11301000E9471008DE00E9461008AE00E946100FB
S11301100895AF92BF92CF92DF92EF92FF920F9326
S11301201F93CF93DF935C01D42F6C01EE24FF2443
S11301308B01015010400E946900C82FDD2311F08B
S11301400E946100CD3031F4DD2371F08AE00E9419
S113015061000AC0E016F10674F7F601C1936F015D
S11301600894E11CF11CE7CFEA0CFB1CF701108298
S1130170DF91CF911F910F91FF90EF90DF90CF907F
S1130180BF90AF900895CF93DF9380911C0390911B
S11301901D03019690931D0380931C038091FA0222
S11301A09091FB0201969093FB028093FA0280E007
S11301B091E00E9471002B981BB82D9AC5E0D1E004
S11301C022C02C9A8FE39DE0A3E081509040A04090
S11301D0E1F700C000002C988FE39DE0A3E081507C
S11301E09040A040E1F700C000008091FC02909193
S11301F0FD0201969093FD028093FC0280FD03C0F2
S1130200CE010E9471008091FC029091FD0289311F
S11302109105BCF21092FD021092FC0287E091E07D
S11302200E9480008FE39DE0A3E081509040A040B5
S1130230E1F700C00000DF91CF910895CF93DF93E1
S11302408091FA029091FB0201969093FB028093B5
S1130250FA0280911C0390911D03019690931D0353
S113026080931C0380E091E00E9471002D988FEF31
S11302708BB92B9AC5E0D1E022C02C9A8FE39DE084
S1130280A3E081509040A040E1F700C000002C980A
S11302908FE39DE0A3E081509040A040E1F700C0CF
S11302A000008091FC029091FD0201969093FD0262
S11302B08093FC0280FD03C0CE010E9471008091F6
S11302C0FC029091FD0289319105BCF21092FD026D
S11302D01092FC0286E291E00E9480008FE39DE090
S11302E0A3E081509040A040E1F700C00000DF91FE
S11302F0CF9108950E945300239A249A259A8FEF50
S11303008AB981E08DBBE9E6F0E090819160908349
S11303108CBB78942D9A06E411E0CEEFD2E00F2E38
S1130320FEE5EF2EF1E0FF2EF02DCC24DD246894C1
S1130330C1F80F2EF5E8AF2EF1E0BF2EF02D0F2EF1
S1130340FAEA8F2EF1E09F2EF02D0F2EF8EB6F2E90
S1130350F1E07F2EF02D0F2EFFEA4F2EF2E05F2EFC
S1130360F02D0F2EFDEB2F2EF1E03F2EF02DC801C6
S11303700E947100CE016EE170E041E00E948900AC
S1130380C701BE010E948202282F392F2115310591
S1130390A9F48091FA029091FB02B6010E945602E0
S11303A08130910521F488E691E00E9480008091DB
S11303B0FA0280FDDCCF0E941E01D9CFC501BE0127
S11303C00E948202282F392F21153105B1F4809122
S11303D01C0380FD04C08EE891E00E94800080919F
S11303E01C0390911D03B6010E94560281309105B1
S11303F009F0BDCF0E94C300BACFC401BE010E9460
S11304008202282F392F2115310599F48091FA029F
S11304109091FB0262E070E00E94560281309105E7
S113042011F40E941E018FEA91E00E9480000E9454
S11304307D02C301BE010E948202282F392F21159B
S1130440310521F4C1010E94800091CFC2010E94B4
S113045080008DCF1F920F920FB60F9211242F930D
S11304603F934F935F936F937F938F939F93AF9338
S1130470BF93EF93FF9383ED90E30197F1F700C0EF
S113048000008BEE92E00E948000FF91EF91BF91FB
S1130490AF919F918F917F916F915F914F913F9118
S11304A02F910F900FBE0F901F90189597FB092E58
S11304B007260AD077FD04D00CD006D000201AF409
S11304C0709561957F4F0895F6F7909581959F4FAC
S11304D00895AA1BBB1B51E107C0AA1FBB1FA61787
S11304E0B70710F0A61BB70B881F991F5A95A9F7D9
S11304F080959095BC01CD01089581E090E0F89439
S11305000C948B02FB01DC018D9101908019011088
S10D0510D9F3990B0895F894FFCF76
S113051A32353020002E000A0D323031205A6F6EE7
S113052A6E6573636865726D206973206F706765A1
S113053A726F6C640A000A0D323031205A6F6E6E83
S113054A6573636865726D2069732075697467657C
S113055A726F6C640A00576174206B616E20696B58
S113056A20766F6F72207520646F656E3F0055693F
S113057A74726F6C6C656E005A6F6E6E6573636825
S113058A65726D20697320616C2075697467657280
S113059A6F6C6421004F70726F6C6C656E005A6FD9
S11305AA6E6E6573636865726D20697320616C2071
S11305BA6F706765726F6C642100457869740032E4
S11305CA323120427965210048656C70002D2D2D49
S11305DA2D2D2D2D2D2D2D2D2D2D2D2D2D2D2D5A10
S11305EA6F6E6E6573636865726D2D2D2D2D2D2DBD
S11305FA2D2D2D2D2D2D2D2D2D2D2D2D0A0D5569FC
S113060A74726F6C6C656E09094C6161742068655B
S113061A74207A6F6E6E6573636865726D2075698E
S113062A74726F6C6C656E0A0D4F70726F6C6C65C8
S113063A6E09094C61617420686574207A6F6E6E64
S113064A6573636865726D206F70726F6C6C656E2A
S113065A0A0A0D2D2D2D2D2D2D2D2D2D2D2D2D2D22
S113066A2D2D2D2D2D2D4F7665726967652D2D2D16
S113067A2D2D2D2D2D2D2D2D2D2D2D2D2D2D2D0ABF
S113068A0D48656C70090909576565726765656681
S113069A7420616C6C6520636F6D6D616E646F2785
S11306AA730A0D45786974090909536C75697420CC
S11306BA6865742070726F6772616D6D610A0035C6
S11306CA313020436F6D6D616E646F206E6965749D
S11306DA206765766F6E64656E2120547970652093
S11306EA48656C7020766F6F7220616C6C6520634C
S11306FA6F6D6D616E646F27730A00496E7465725B
S10D070A757074207765726B21008E
S9030000FC
