S013000074656D70657261747575722E7372656353
S11300000C9434000C9451000C9451000C94510045
S11300100C9451000C9451000C9451000C94510018
S11300200C9451000C9451000C9451000C94510008
S11300300C9451000C9451000C9451000C945100F8
S11300400C9451000C9451000C9451000C945100E8
S11300500C9451000C9451000C9451000C945100D8
S11300600C9451000C94510011241FBECFEFD8E022
S1130070DEBFCDBF11E0A0E0B1E0E0E2F6E002C0F7
S113008005900D92AE30B107D9F711E0AEE0B1E0C2
S113009001C01D92A233B107E1F70E94DA000C946B
S11300A00E030C9400001092C50083E38093C400F7
S11300B01092C00088E18093C10086E08093C20062
S11300C00895E0ECF0E0908195FFFDCF8093C600A9
S11300D00895E0ECF0E080818823ECF78091C6007D
S11300E00895CF93DF93EC018881882331F0219622
S11300F00E94610089918823D9F7DF91CF910895F7
S11301000E9471008DE00E9461008AE00E946100FB
S11301100895AF92BF92CF92DF92EF92FF920F9326
S11301201F93CF93DF935C01D42F6C01EE24FF2443
S11301308B01015010400E946900C82FDD2311F08B
S11301400E946100CD3031F4DD2371F08AE00E9419
S113015061000AC0E016F10674F7F601C1936F015D
S11301600894E11CF11CE7CFEA0CFB1CF701108298
S1130170DF91CF911F910F91FF90EF90DF90CF907F
S1130180BF90AF90089580E480937C0087E88093CB
S11301907A0080E280937E000895EAE7F0E08081AF
S11301A080648083808186FDFDCF8091780090916A
S11301B0790008950E9453000E94C3003D98C6E14F
S11301C0D1E000E011E00E94CD00682F70E080E0F3
S11301D090E00E94DA0120E030E040EA5BE30E9414
S11301E06602262F372FF82FE92F462F572F682F17
S11301F0792F40930E0150930F0160931001709377
S11302001101822F932FAF2FBE2FBC01CD0120E00F
S113021030E040E05FE30E94420120E030E048EC3F
S113022052E40E946602262F372FF82FE92F462F1B
S1130230572F682F792F40932E0150932F016093ED
S1130240300170933101822F932FAF2FBE2FBC0149
S1130250CD010E94A701DC01CB01BE014AE050E0C0
S11302600E94C902C8010E947100CE010E94800050
S11302708FEF93EDA0E381509040A040E1F700C0E0
S11302800000A1CF5058BB27AA270ED0E5C0D6D076
S113029030F0DBD020F031F49F3F11F41EF4CBC0DA
S11302A00EF4E095E7FBC1C0E92FE7D080F3BA175D
S11302B0620773078407950718F071F49EF5FFC071
S11302C00EF4E0950B2EBA2FA02D0B01B90190016D
S11302D00C01CA01A0011124FF27591B99F0593FB1
S11302E050F4503E68F11A16F040A22F232F342FF9
S11302F04427585FF3CF469537952795A795F04047
S11303005395C9F77EF41F16BA0B620B730B840B5B
S1130310BAF09150A1F0FF0FBB1F661F771F881F13
S1130320C2F70EC0BA0F621F731F841F48F487956B
S113033077956795B795F7959E3F08F0B3CF93955A
S1130340880F08F09927EE0F97958795089504D0A4
S11303506894B111B5C0089598D088F09F5790F073
S1130360B92F9927B751A0F0D1F0660F771F881FD6
S1130370991F1AF0BA95C9F712C0B13081F09FD015
S1130380B1E008959CC0672F782F8827B85F39F0B3
S1130390B93FCCF3869577956795B395D9F73EF435
S11303A090958095709561957F4F8F4F9F4F0895DD
S11303B0E89409C097FB3EF49095809570956195FB
S11303C07F4F8F4F9F4F9923A9F0F92F96E9BB27B1
S11303D09395F695879577956795B795F111F8CF2D
S11303E0FAF4BB0F11F460FF1BC06F5F7F4F8F4F98
S11303F09F4F16C0882311F096E911C0772321F08E
S11304009EE8872F762F05C0662371F096E8862F25
S113041070E060E02AF09A95660F771F881FDAF77C
S1130420880F9695879597F9089597F99F6780E8BF
S113043070E060E008959FEF80EC089500240A9432
S11304401616170618060906089500240A941216AB
S11304501306140605060895092E0394000C11F4DE
S1130460882352F0BB0F40F4BF2B11F460FF04C08B
S11304706F5F7F4F8F4F9F4F089557FD9058440FE4
S1130480551F59F05F3F71F04795880F97FB991FEF
S113049061F09F3F79F087950895121613061406AC
S11304A0551FF2CF4695F1DF08C016161706180639
S11304B0991FF1CF86957105610508940895E89414
S11304C0BB2766277727CB0197F908950BD0C4CFB4
S11304D0B5DF28F0BADF18F0952309F0A6CFABCF2B
S11304E01124EECFCADFA0F3959FD1F3950F50E00E
S11304F0551F629FF001729FBB27F00DB11D639FD2
S1130500AA27F00DB11DAA1F649F6627B00DA11D77
S1130510661F829F2227B00DA11D621F739FB00D1D
S1130520A11D621F839FA00D611D221F749F33278D
S1130530A00D611D231F849F600D211D822F762F26
S11305406A2F11249F5750408AF0E1F088234AF023
S1130550EE0FFF1FBB1F661F771F881F915050406F
S1130560A9F79E3F510570F060CFAACF5F3FECF32F
S1130570983EDCF3869577956795B795F795E7955B
S11305809F5FC1F7FE2B880F911D9695879597F96C
S11305900895FB019F01E8944230C4F04532B4F45D
S11305A04A3029F497FB1EF4909581959F4F642F50
S11305B077270E94FA02805D8A330CF0895D81936B
S11305C0CB010097A1F716F45DE251931082C901A3
S11305D00C94EA02DC01FC01672F71917723E1F7A7
S11305E0329704C07C916D9370836291AE17BF07FC
S11305F0C8F30895AA1BBB1B51E107C0AA1FBB1F68
S1130600A617B70710F0A61BB70B881F991F5A959A
S1130610A9F780959095BC01CD010895F894FFCF7A
S111062054656D70657261747575723A2000D0
S9030000FC
