S0190000426573747572696E677365656E686569642E7372656313
S11300000C94B5000C94D2000C94E1010C94D20031
S11300100C94D2000C94D2000C94D2000C94D20014
S11300200C94D2000C94D2000C94D2000C94D20004
S11300300C94D2000C94D2000C94B6010C94D2000F
S11300400C94D2000C94D2000C94D2000C94D200E4
S11300500C94D2000C94D2000C94D2000C94D200D4
S11300600C94D2000C94D2006E616E00696E66002E
S113007000407A10F35A00A0724E18090010A5D45B
S1130080E80000E87648170000E40B54020000CAB8
S11300909A3B000000E1F5050000809698000000FE
S11300A040420F000000A08601000000102700005D
S11300B00000E803000000006400000000000A00E3
S11300C0000000000100000000002C76D888DC67E6
S11300D04F0823DFC1DFAE59E1B1B796E5E3E4533E
S11300E0C63AE651997696E8E6C28426EB898C9B5B
S11300F062ED407C6FFCEFBC9C9F40F2BAA56FA5FB
S1130100F490055A2AF75C936B6CF9676DC11BFC7C
S1130110E0E40D47FEF520E6B500D0ED902E030097
S1130120943577050080841E080000204E0A0000E4
S113013000C80C333333330F986E12831141EF8DA3
S11301402114893BE65516CFFEE6DB18D1844B38E3
S11301501BF77C1D901DA4BBE424203284725E2214
S11301608100C9F124ECA1E53D2711241FBECFEF86
S1130170D8E0DEBFCDBF17E0A0E0B1E0E4E3F0E2F9
S113018002C005900D92A431B107D9F718E0A4E19B
S1130190B7E001C01D92AA34B107E1F70E94A6019D
S11301A00C9418100C94000087E880937A0080E285
S11301B080937E000895EAE7F0E080818064808384
S11301C0808186FDFDCF80917900089585E4809338
S11301D07C00EAE7F0E0808180648083808186FD92
S11301E0FDCF8091780090917900089582E6809304
S11301F07C00EAE7F0E0808180648083808186FD72
S1130200FDCF80917900089587EF8AB98FEF84B983
S1130210089584E08093690082E08DBB1092800091
S1130220089580911407909115070895289A8FE3F3
S11302309CE90197F1F700C0000028988FEF91EE38
S1130240A4E081509040A040E1F700C0000060911C
S1130250220770912307809124079091250720E0BD
S113026030E040E05FE30E94160A29E93BEB46E1F7
S11302705BE30E94160A262F372FF82FE92F462F0B
S1130280572F682F792F40931C0750931D076093B5
S11302901E0770931F07822F932FAF2FBE2FBC0111
S11302A0CD0108950E94E600682F70E080E090E0A0
S11302B00E94620920E030E040EA5BE30E94160AF3
S11302C0262F372FF82FE92F462F572F682F792FF6
S11302D040932A0750932B0760932C0770932D07A4
S11302E0822F932FAF2FBE2FBC01CD0120E030E031
S11302F040E05FE30E94F70820E030E048EC52E47D
S11303000E94160A262F372FF82FE92F462F572F32
S1130310682F792F40934E0750934F0760935007EF
S113032070935107822F932FAF2FBE2FBC01CD01A5
S113033008950E94F600089582E084BD9CE997BD6B
S113034080936E0085B5856085BD08950E94EF0792
S11303500E949C010E9463070E94D4000E94040131
S11303600E94090178940E942B05FDCF1F920F92E1
S11303700FB60F9211248F939F938091160790913B
S11303801707019690931707809316078091160715
S113039090911707853691056CF080911407909120
S11303A01507019690931507809314071092170769
S11303B0109216079F918F910F900FBE0F901F9070
S11303C018951F920F920FB60F9211242F933F93FB
S11303D04F935F936F937F938F939F93AF93BF9349
S11303E0CF93DF93EF93FF938091200790912107A0
S11303F081309105D1F410928100C4E8D0E0688185
S1130400798180E090E00E946009DC01CB01809357
S1130410220790932307A0932407B09325071982FA
S11304201882109221071092200780912007909142
S11304302107009759F4E1E8F0E08081816080832E
S113044081E090E09093210780932007FF91EF9142
S1130450DF91CF91BF91AF919F918F917F916F91D8
S11304605F914F913F912F910F900FBE0F901F906E
S11304701895EF92FF920F931F93CF93DF93E09021
S11304808606F090870680919206909193069923B0
S1130490BCF001E010E0C0E0D0E0C7010E94FE0F14
S11304A0C05FD74F88830894E11CF11CE8010F5FFB
S11304B01F4F80919206909193068C179D076CF7BD
S11304C080E091E00E94930780E198E00E94A207F7
S11304D0DF91CF911F910F91FF90EF900895EF92CC
S11304E0FF920F931F93CF93DF93E0908806F090D1
S11304F0890680919406909195069923BCF001E0B9
S113050010E0C0E0D0E0C7010E94FE0FCE5AD84FE1
S113051088830894E11CF11CE8010F5F1F4F809150
S11305209406909195068C179D076CF781E191E0F4
S11305300E94930782E597E00E94A207DF91CF9182
S11305401F910F91FF90EF900895EF92FF920F93F8
S11305501F93CF93DF93E0908A06F0908B068091EF
S11305609606909197069923BCF001E010E0C0E054
S1130570D0E0C7010E94FE0FCE51D84F8883089463
S1130580E11CF11CE8010F5F1F4F809196069091CA
S113059097068C179D076CF783E291E00E949307FE
S11305A082EE97E00E94A207DF91CF911F910F91F5
S11305B0FF90EF900895CF92DF92EF92FF920F9306
S11305C01F93CF93DF93E0908C06F0908D0680917B
S11305D09806909199069923ECF001E010E0C0E0B0
S11305E0D0E00F2EFDE8CF2EF7E0DF2EF02DC7016F
S11305F00E94FE0FCC0DDD1D88830894E11CF11CC4
S1130600E8010F5F1F4F80919806909199068C170F
S11306109D076CF783E391E00E9493078DE897E0D0
S11306200E94A207DF91CF911F910F91FF90EF904D
S1130630DF90CF900895CF92DF92EF92FF920F93C5
S11306401F93CF93DF93E0908E06F0908F068091F6
S11306509A0690919B069923ECF001E010E0C0E02B
S1130660D0E00F2EFAEDCF2EF7E0DF2EF02DC701EC
S11306700E94FE0FCC0DDD1D88830894E11CF11C43
S1130680E8010F5F1F4F80919A0690919B068C178B
S11306909D076CF783E491E00E9493078AED97E04D
S11306A00E94A207DF91CF911F910F91FF90EF90CD
S11306B0DF90CF900895CF92DF92EF92FF920F9345
S11306C01F93CF93DF93E0909006F0909106809172
S11306D09C0690919D069923ECF001E010E0C0E0A7
S11306E0D0E00F2EF1E6CF2EF7E0DF2EF02DC7017C
S11306F00E94FE0FCC0DDD1D88830894E11CF11CC3
S1130700E8010F5F1F4F80919C0690919D068C1706
S11307109D076CF780E591E00E94930781E697E0DE
S11307200E94A207DF91CF911F910F91FF90EF904C
S1130730DF90CF9008950F931F93CF93DF93C091D1
S11307402607D091270780919E0690919F068C17CB
S11307509D078CF08E010057184FCE010E94FE0FAA
S1130760F80181938F01219680919E0690919F06B6
S11307708C179D0794F780E591E00E94930780E928
S113078097E00E94A207DF91CF911F910F910895E6
S11307900F931F93CF93DF938C01C0918606D09162
S11307A0870680919206909193069923CCF080E07D
S11307B090E0F801E80FF91FCE0160810E94061055
S11307C0219680918606909187069E01281B390BFD
S11307D0C9012091920630919306281739074CF7E6
S11307E0DF91CF911F910F9108950F931F93CF9392
S11307F0DF938C01C0918806D0918906809194067C
S1130800909195069923CCF080E090E0F801E80FF0
S1130810F91FCE0160810E940610219680918806FE
S1130820909189069E01281B390BC90120919406D9
S113083030919506281739074CF7DF91CF911F9116
S11308400F9108950F931F93CF93DF938C01C09161
S11308508A06D0918B0680919606909197069923EB
S1130860CCF080E090E0F801E80FF91FCE01608140
S11308700E940610219680918A0690918B069E0113
S1130880281B390BC9012091960630919706281729
S113089039074CF7DF91CF911F910F9108950F9372
S11308A01F93CF93DF938C01C0918C06D0918D065A
S11308B080919806909199069923CCF080E090E07D
S11308C0F801E80FF91FCE0160810E9406102196FD
S11308D080918C0690918D069E01281B390BC901CD
S11308E02091980630919906281739074CF7DF9123
S11308F0CF911F910F9108950F931F93CF93DF937F
S11309008C01C0918E06D0918F0680919A069091A9
S11309109B069923CCF080E090E0F801E80FF91FE2
S1130920CE0160810E940610219680918E069091DE
S11309308F069E01281B390BC90120919A0630911C
S11309409B06281739074CF7DF91CF911F910F9120
S113095008950F931F93CF93DF938C01C09190065A
S1130960D091910680919C0690919D069923CCF09C
S113097080E090E0F801E80FF91FCE0160810E9449
S11309800610219680919006909191069E01281B55
S1130990390BC90120919C0630919D06281739070F
S11309A04CF7DF91CF911F910F9108950F931F93EF
S11309B0CF93DF93C0912607D091270720919E06FD
S11309C030919F062C173D078CF08C010C0F1D1FD6
S11309D0F80161918F01CE010E9406102196809149
S11309E09E0690919F068C179D0794F7DF91CF91F7
S11309F01F910F9108958091810608955091820668
S1130A00409183063091840620918506852F942F8A
S1130A10A32FB22FBC01CD01089550917D064091C2
S1130A207E0630917F0620918006852F942FA32F78
S1130A30B22FBC01CD0108955091790640917A06F8
S1130A4030917B0620917C06852F942FA32FB22F03
S1130A50BC01CD01089505E511E0CCEBD7E00F2EE4
S1130A60FEE6EF2EF1E0FF2EF02D0F2EF6E9AF2E6D
S1130A70F1E0BF2EF02D0F2EFDEBCF2EF1E0DF2E97
S1130A80F02D0F2EF4EC8F2EF1E09F2EF02D0F2E73
S1130A90F0EE4F2EF1E05F2EF02D0F2EFFEE2F2EF5
S1130AA0F1E03F2EF02DC8010E949307CE016EE1C4
S1130AB070E041E00E94AB07C701BE010E944B0FEA
S1130AC0282F392F21153105A1F40E94EA0762E08D
S1130AD070E00E94050E8130910521F485E791E0D4
S1130AE00E94A2070E94EA0780FD1FC00E94FB0724
S1130AF01CC0C501BE010E944B0F282F392F2115A0
S1130B00310599F40E94E50780FD04C08DE991E068
S1130B100E94A2070E94E50762E070E00E94050EB1
S1130B208130910511F40E947308C601BE010E9430
S1130B304B0F282F392F2115310509F4B4CFC401E7
S1130B40BE010E944B0F282F392F21153105E1F4E6
S1130B500E945201DC01CB0100D000D000D02DEC6A
S1130B6031E0EDB7FEB73283218383839483A58379
S1130B70B6830E948B0F8DB79EB706960FB6F89476
S1130B809EBF0FBE8DBF8FCFC201BE010E944B0F0F
S1130B90282F392F2115310519F40E94DB0283CF48
S1130BA0C101BE010E944B0F282F392F2115310599
S1130BB0A1F481E092E00E94A2070F2EFEE56F2EC1
S1130BC0F7E07F2EF02DC30163E070E041E00E9466
S1130BD0AB07C3010E944F0466CF87E392E0BE01D6
S1130BE00E944B0F282F392F21153105C1F40E9483
S1130BF0990100D000D0EDB7FEB7319621E432E080
S1130C00ADB7BEB712963C932E931197828313828D
S1130C100E948B0F0F900F900F900F9044CF80E5A0
S1130C2092E0BE010E944B0F282F392F2115310568
S1130C3019F40E94A50237CF80E692E0BE010E941B
S1130C404B0F282F392F21153105A1F483E792E0AA
S1130C500E94A2070F2EF4E16F2EF8E07F2EF02DF4
S1130C60C30164E070E041E00E94AB07C3010E944D
S1130C70220419CF8EEA92E0BE010E944B0F282F66
S1130C80392F2115310519F40E9439020CCF8DEB4F
S1130C9092E0BE010E944B0F282F392F21153105F8
S1130CA0A1F48FEC92E00E94A2070F2EF9E86F2EB8
S1130CB0F7E07F2EF02DC30164E070E041E00E9474
S1130CC0AB07C3010E94C803EECE81E093E0BE01EE
S1130CD00E944B0F282F392F2115310519F40E943A
S1130CE06F02E1CE80E193E0BE010E944B0F282FFA
S1130CF0392F21153105A1F48FEC92E00E94A2074F
S1130D000F2EF8EB6F2EF7E07F2EF02DC30164E079
S1130D1070E041E00E94AB07C3010E94F503C3CE1B
S1130D2082E293E0BE010E944B0F282F392F211538
S1130D30310519F40E949B03B6CE8BE293E0BE0109
S1130D400E944B0F282F392F21153105F9F487E321
S1130D5093E00E94A2070F2EF6EE6F2EF7E07F2E8F
S1130D60F02DC30168E270E041E00E94AB07C301CB
S1130D700E94D60400D08AE593E0EDB7FEB79283D3
S1130D8081830E948B0F0F900F908DCE82E693E0AB
S1130D90BE010E944B0F282F392F2115310519F45C
S1130DA00E945B0380CE8FE693E0BE010E944B0F4E
S1130DB0282F392F2115310509F58FE793E00E947B
S1130DC0A2070F2EF8E16F2EF8E07F2EF02DC3015D
S1130DD068E270E041E00E94AB07C3010E94A904ED
S1130DE000D08AE593E0ADB7BEB712969C938E937C
S1130DF011970E948B0F0F900F9055CE85EA93E0C8
S1130E00BE010E944B0F282F392F2115310519F4EB
S1130E100E941B0348CE81EB93E0BE010E944B0F5E
S1130E20282F392F21153105F9F480EC93E00E9425
S1130E30A2070F2EF6E56F2EF7E07F2EF02DC301EB
S1130E4068E070E041E00E94AB07C3010E947C04AB
S1130E5000D08AE593E0EDB7FEB7928381830E94C8
S1130E608B0F0F900F901FCE85EE93E0BE010E9472
S1130E704B0F282F392F2115310589F40E94EA07D9
S1130E8062E070E00E94050E8130910511F40E9429
S1130E90FB078AEE93E00E94A2070E94630E83EF91
S1130EA093E0BE010E944B0F282F392F21153105E5
S1130EB029F488EF93E00E94A207F5CD8DE396E034
S1130EC00E94A207F0CD1092C50083E38093C40072
S1130ED01092C00088E18093C10086E08093C20034
S1130EE080EA96E090934708809346080895E0ECE2
S1130EF0F0E0908195FFFDCF8093C6000895CF93D5
S1130F00C82F8A3019F48DE00E9477078C2F0E9435
S1130F107707CF910895E0ECF0E080818823ECF727
S1130F208091C6000895CF93DF93EC0188818823D4
S1130F3031F021960E94770789918823D9F7DF91B0
S1130F40CF9108950E9493078DE00E9477078AE06D
S1130F500E9477070895AF92BF92CF92DF92EF92EB
S1130F60FF920F931F93CF93DF935C01D42F6C01F7
S1130F70EE24FF248B01015010400E948B07C82FE0
S1130F80DD2311F00E947707CD3031F4DD2371F0B9
S1130F908AE00E9477070AC0E016F10674F7F601AA
S1130FA0C1936F010894E11CF11CE7CFEA0CFB1C10
S1130FB0F7011082DF91CF911F910F91FF90EF9075
S1130FC0DF90CF90BF90AF900895809142089091A8
S1130FD04308089580912807909129070895239A3A
S1130FE0249A259AE9E6F0E080818160808381E09B
S1130FF08CBB2D9A0895CF93DF938091280790910D
S11310002907019690932907809328078091420825
S113101090914308019690934308809342088EEA86
S113102096E00E9493072D982B9AC3EBD6E022C03A
S11310302C9A8FE39DE0A3E081509040A040E1F71B
S113104000C000002C988FE39DE0A3E08150904005
S1131050A040E1F700C00000809140089091410851
S11310600196909341088093400880FD03C0CE010F
S11310700E9493070E94160120E030E040EA51E408
S11310800E945C098823A4F210924108109240083F
S11310900E941601DC01CB0100D000D000D025EB6A
S11310A036E0EDB7FEB73283218383839483A5832F
S11310B0B6830E948B0F8DB79EB706960FB6F89431
S11310C09EBF0FBE8DBF85ED96E00E94A2078FE301
S11310D09DE0A3E081509040A040E1F700C00000F3
S11310E0DF91CF910895CF92DF92EF92FF92CF9349
S11310F0DF938091420890914308019690934308AE
S11311008093420880912807909129070196909333
S11311102907809328078EEA96E00E9493072B986C
S11311202D9AC3EBD6E022C02C9A8FE39DE0A3E076
S113113081509040A040E1F700C000002C988FE35C
S11311409DE0A3E081509040A040E1F700C0000082
S113115080914008909141080196909341088093B2
S1131160400880FD03C0CE010E9493070E9416012F
S11311706B017C010E941C059B01AC01C701B601F7
S11311800E94120A181684F2109241081092400824
S11311900E941601DC01CB0100D000D000D025EB69
S11311A036E0EDB7FEB73283218383839483A5832E
S11311B0B6830E948B0F8DB79EB706960FB6F89430
S11311C09EBF0FBE8DBF85EF96E00E94A2078FE3FE
S11311D09DE0A3E081509040A040E1F700C00000F2
S11311E0DF91CF91FF90EF90DF90CF90089550580A
S11311F0BB27AA270ED0DCC0CDD030F0D2D020F04F
S113120031F49F3F11F41EF4C2C00EF4E095E7FBE5
S1131210B8C0E92FDED080F3BA17620773078407DA
S1131220950718F071F49EF5F6C00EF4E0950B2EB8
S1131230BA2FA02D0B01B90190010C01CA01A00124
S11312401124FF27591B99F0593F50F4503E68F17F
S11312501A16F040A22F232F342F4427585FF3CFC0
S1131260469537952795A795F0405395C9F77EF491
S11312701F16BA0B620B730B840BBAF09150A1F0DA
S1131280FF0FBB1F661F771F881FC2F70EC0BA0F60
S1131290621F731F841F48F4879577956795B795E8
S11312A0F7959E3F08F0B3CF9395880F08F09927E0
S11312B0EE0F97958795089540D008F481E008953E
S11312C0E89409C097FB3EF49095809570956195DC
S11312D07F4F8F4F9F4F9923A9F0F92F96E9BB2792
S11312E09395F695879577956795B795F111F8CF0E
S11312F0FAF4BB0F11F460FF1BC06F5F7F4F8F4F79
S11313009F4F16C0882311F096E911C0772321F06E
S11313109EE8872F762F05C0662371F096E8862F06
S113132070E060E02AF09A95660F771F881FDAF75D
S1131330880F9695879597F90895990F0008550F8A
S1131340AA0BE0E8FEEF16161706E807F907C0F047
S113135012161306E407F50798F0621B730B840B4F
S1131360950B39F40A2661F0232B242B252B21F429
S113137008950A2609F4A140A6958FEF811D811DC9
S1131380089597F99F6780E870E060E008959FEF03
S113139080EC089500240A94161617061806090608
S11313A0089500240A9412161306140605060895D7
S11313B0092E0394000C11F4882352F0BB0F40F45F
S11313C0BF2B11F460FF04C06F5F7F4F8F4F9F4F9F
S11313D0089557FD9058440F551F59F05F3F71F021
S11313E04795880F97FB991F61F09F3F79F0879588
S11313F00895121613061406551FF2CF4695F1DF11
S113140008C0161617061806991FF1CF86957105A0
S1131410610508940895E894BB2766277727CB01D4
S113142097F908958ADF08F48FEF08950BD0C0CFA1
S1131430B1DF28F0B6DF18F0952309F0A2CFA7CFCB
S11314401124EACFC6DFA0F3959FD1F3950F50E0A6
S1131450551F629FF001729FBB27F00DB11D639F62
S1131460AA27F00DB11DAA1F649F6627B00DA11D08
S1131470661F829F2227B00DA11D621F739FB00DAE
S1131480A11D621F839FA00D611D221F749F33271E
S1131490A00D611D231F849F600D211D822F762FB7
S11314A06A2F11249F5750408AF0E1F088234AF0B4
S11314B0EE0FFF1FBB1F661F771F881F9150504000
S11314C0A9F79E3F510570F05CCFA6CF5F3FECF3C8
S11314D0983EDCF3869577956795B795F795E795EC
S11314E09F5FC1F7FE2B880F911D9695879597F9FD
S11314F00895A5E1B0E0EFE7FAE00C94180E4C0172
S11315007F876E87FC0117821682838181FD04C068
S113151076C34C855D8504C01E010894211C311CD2
S1131520F4019381EE85FF8593FD859193FF81916D
S1131530FF87EE87882309F45EC3853241F493FD67
S1131540859193FF8191FF87EE87853259F490E06E
S1131550B4014C8B5D8B0E945F0F4C895D895D8764
S11315604C87D7CFFF24DD2410E01032B0F48B3247
S113157069F08C3228F4803251F0833271F40BC05C
S11315808D3239F0803349F411602CC0126014603C
S113159029C0186027C0106125C017FD2EC0282F50
S11315A020532A3098F416FF08C08F2D880FF82E88
S11315B0FF0CFF0CF80EF20E15C08D2D880FD82EDF
S11315C0DD0CDD0CD80ED20E10620CC08E3221F46C
S11315D016FD11C3106406C08C3611F4106802C0E5
S11315E0883659F4EE85FF8593FD859193FF8191AB
S11315F0FF87EE87882309F0B8CF982F955493304E
S113160018F41061805E06C0982F9556933008F048
S1131610A2C11F7E16FD02C0E6E0FE2E1F738536B2
S113162011F4106406C0863611F4106802C0F1107B
S1131630FA9417FF07C0FBE3FF1548F0EF2CE3947F
S113164027E00DC027E02F1530F02F2D07C027E02D
S11316507CE3E72E04C027E067E0F62EEE24CA01FF
S113166004969D878C87FA016081718182819381C0
S1131670A1010E2D0E94680E5C01C9802C2D30E062
S1131680398B288BC0FE03C0388933FF06C011FD97
S113169006C012FF06C000E205C00DE203C00BE263
S11316A001C000E0888999898C709070009709F4D2
S11316B03CC0002311F084E001C083E08D1558F490
S11316C0D81A13FD09C080E290E0B4010E945F0FB4
S11316D0DA94C9F701C0DD24002329F0802F90E0BB
S11316E0B4010E945F0F888983FD05C03CE6E32EA8
S11316F030E0F32E11C028E6E22E20E0F22E0CC0DA
S11317000115110509F0805290E0B4010E945F0FA9
S11317100894E11CF11C04C0012F10E0007110704A
S1131720F7018491882361F763C217FF0EC0EA0CA6
S1131730F889F4FF04C08A81813309F4EA941E1401
S11317404CF528E02E1548F12CC016FD2AC08F2D2B
S113175090E08A159B0544F03CEFA3163FEFB306D7
S11317601CF0106801C0FA94FF2049F0E2E0F0E0B8
S1131770EC0FFD1FEF0DF11D80818033A1F317FFE6
S113178010C0EF2CE3948F2D90E0A816B90644F412
S1131790FA1807C0EE24E39404C098E0E92E01C0CF
S11317A0FF2417FF07C01A141B043CF495012F5F94
S11317B03F4F05C025E030E002C021E030E00023C7
S11317C011F02F5F3F4FFF2029F08F2D90E00196FD
S11317D0280F391F8D2D90E02817390714F4D21AD9
S11317E001C0DD24612E7724C301897090700097B5
S11317F049F406C080E290E0B4010E945F0FDA94DD
S1131800DD20C1F7002329F0802F90E0B4010E946D
S11318105F0F63FC09C006C080E390E0B4010E943E
S11318205F0FDA94DD20C1F717FF48C08501B7FECA
S113183002C000E010E06624772495012E193109D6
S11318403B8B2A8B2501401A510A420C531C6F2DE5
S113185070E0EE24FF24E61AF70A3FEF0F3F130768
S113186029F48EE290E0B4010E945F0FA016B10645
S113187054F02A893B89201731072CF4F201E60D34
S1131880F71D818101C080E3015010400894611C60
S1131890711C0E151F052CF090E0B4010E945F0F1F
S11318A0DCCF0A151B0541F49A81963320F4953355
S11318B019F4388934FF81E390E049C08A81813387
S11318C011F09FEEC92290E0B4010E945F0FFF2047
S11318D089F08EE290E0B4010E945F0F12E0F10102
S11318E0E10FF11D1F5F808190E0B4010E945F0F42
S11318F0FA94A9F764FE03C085E490E002C085E68B
S113190090E0B4010E945F0FB7FC05C0A114B104BC
S113191041F4C4FE06C0B094A194B108B3948DE21E
S113192001C08BE290E0B4010E945F0F80E305C028
S11319308F5FE6EFFFEFAE0EBF1EFAE0AF16B10405
S1131940BCF790E0B4010E945F0FC501C096B401DA
S11319500E945F0F4DC1833631F0833789F08335A0
S113196009F059C022C09A012E5F3F4F3D872C8752
S1131970FA018081898381E0E82EF12C510113C0A2
S11319809A012E5F3F4F3D872C87FA01A080B180DA
S113199016FF03C06F2D70E002C06FEF7FEFC5012B
S11319A00E94540F7C011F7714C09A012E5F3F4F91
S11319B03D872C87FA01A080B18016FF03C06F2DEC
S11319C070E002C06FEF7FEFC5010E94400F7C0101
S11319D0106813FD1CC006C080E290E0B4010E94B0
S11319E05F0FDA948D2D90E0E816F906A8F30FC086
S11319F0F50117FD859117FF81915F0190E0B40116
S1131A000E945F0FD110DA940894E108F108E11400
S1131A10F10471F7EDC0843611F0893671F59A013D
S1131A2017FF0AC02C5F3F4F3D872C87FA01808146
S1131A309181A281B3810BC02E5F3F4F3D872C87DC
S1131A40FA0180819181AA2797FDA095BA2F012FD1
S1131A500F76B7FF08C0B095A095909581959F4FDC
S1131A60AF4FBF4F0068BC01CD01A1012AE030E0B7
S1131A700E94A00FE82EE21841C0853721F41F7E92
S1131A802AE030E020C0197F8F36A9F0803720F497
S1131A90883509F0B0C00BC0803721F0883709F0D1
S1131AA0AAC001C0106114FF09C0146007C014FF6C
S1131AB008C0166006C028E030E005C020E130E030
S1131AC002C020E132E0CA0117FF09C004969D87D5
S1131AD08C87FA01608171818281938108C00296AA
S1131AE09D878C87FA016081718180E090E0A1017B
S1131AF00E94A00FE82EE218012F0F7706FF09C0FD
S1131B000E7FEF1430F404FF06C002FD04C00F7E04
S1131B1002C01E2D01C01F2D802F90E004FF0CC0B9
S1131B20FE01EE0DF11D2081203311F4097E09C060
S1131B3002FF06C01E5F05C086789070009709F00A
S1131B401F5FA02EBB2403FD12C000FF0DC0FE2C9E
S1131B501D1550F4FD0CF11A1D2D06C080E290E015
S1131B60B4010E945F0F1F5F1D15C0F304C01D1553
S1131B7010F4D11A01C0DD24A4FE0FC080E390E06C
S1131B80B4010E945F0FA2FE1FC0A1FE03C088E53E
S1131B9090E010C088E790E00DC0C5018678907091
S1131BA0009791F0A1FC02C080E201C08BE207FD26
S1131BB08DE290E0B4010E945F0F06C080E390E0E4
S1131BC0B4010E945F0FFA94EF14C0F3EA94F10198
S1131BD0EE0DF11D808190E0B4010E945F0FEE20B4
S1131BE0A9F706C080E290E0B4010E945F0FDA9486
S1131BF0DD20C1F78ECCF4018681978102C08FEF7E
S1131C009FEF6596E2E10C94340E97FB092E0726AC
S1131C100AD077FD04D043D006D000201AF4709582
S1131C2061957F4F0895F6F7909581959F4F08959C
S1131C302F923F924F925F926F927F928F929F92D8
S1131C40AF92BF92CF92DF92EF92FF920F931F93C6
S1131C50CF93DF93CDB7DEB7CA1BDB0B0FB6F89477
S1131C60DEBF0FBECDBF09942A88398848885F84B7
S1131C706E847D848C849B84AA84B984C884DF8028
S1131C80EE80FD800C811B81AA81B981CE0FD11D0C
S1131C900FB6F894DEBF0FBECDBFED010895AA1BA9
S1131CA0BB1B51E107C0AA1FBB1FA617B70710F043
S1131CB0A61BB70B881F991F5A95A9F78095909575
S1131CC0BC01CD01089581E090E0F8940C941810C3
S1131CD0283008F027E03327DA01990F311D87FDFA
S1131CE0916000966105710539F432602E5F3D9371
S1131CF030E32A95E1F708959F3F30F0803871056D
S1131D00610509F03C5F3C5F3D93913008F08068C9
S1131D10911DDF93CF931F930F93FF92EF92192F8F
S1131D20987F9695E92F96959695E90FFF27E653A8
S1131D30FF4F99273327EE24FF24A701E7010590DD
S1131D400894079428F4360FE71EF81E491F511D06
S1131D50660F771F881F991F0694A1F705900794B3
S1131D6028F4E70EF81E491F561FC11D770F881F60
S1131D70991F661F0694A1F70590079428F4F80E9E
S1131D80491F561FC71FD11D880F991F661F771F34
S1131D900694A1F70590079420F4490F561FC71F16
S1131DA0D81F990F661F771F881F0694A9F784917F
S1131DB01095177041F0D695C79557954795F794A8
S1131DC0E7941A95C1F7E0E7F0E06894159015914F
S1131DD035916591959105907FE27395E118F10A2B
S1131DE0430B560BC90BD009C0F7E10CF11E431F7E
S1131DF0561FC91FD01D7EF4703311F48A95E6CFA7
S1131E00E894015030F0080F0AF40027021708F490
S1131E10202F2395022F7A3328F079E37D932A9596
S1131E20E9F710C07D932A9589F6069497956795EE
S1131E30379517951794E118F10A430B560BC90B04
S1131E40D00998F023957E9173957A3308F070E366
S1131E507C932013B8F77E9170617D9330F0839565
S1131E6071E37D9370E32A95E1F71124EF90FF90DD
S1131E700F911F91CF91DF91992787FD9095089538
S1131E80FC010590615070400110D8F78095909541
S1131E908E0F9F1F0895FB01DC018D910190801925
S1131EA00110D9F3990B0895FC0161507040019021
S1131EB00110D8F7809590958E0F9F1F08950F936A
S1131EC01F93CF93DF938C01EB018B8181FF1BC0A8
S1131ED082FF0DC02E813F818C819D812817390797
S1131EE064F4E881F9810193F983E88306C0E88505
S1131EF0F985802F0995009731F48E819F81019691
S1131F009F838E8302C00FEF1FEFC801DF91CF9133
S1131F101F910F910895A0E0B0E0E1E9FFE00C9477
S1131F20280EFE0135966191719180914608909139
S1131F304708AF010E94790A2096E2E00C94440E0F
S1131F40FA01AA27283051F1203181F1E8946F93E6
S1131F506E7F6E5F7F4F8F4F9F4FAF4FB1E03ED08C
S1131F60B4E03CD0670F781F891F9A1FA11D680F2A
S1131F70791F8A1F911DA11D6A0F711D811D911D5D
S1131F80A11D20D009F468943F912AE0269F1124D2
S1131F903019305D3193DEF6CF010895462F477036
S1131FA0405D4193B3E00FD0C9F7F6CF462F4F7091
S1131FB0405D4A3318F0495D31FD4052419302D0EF
S1131FC0A9F7EACFB4E0A695979587957795679595
S1131FD0BA95C9F700976105710508959B01AC0195
S1131FE00A2E06945795479537952795BA95C9F7BC
S1131FF0620F731F841F951FA01D0895F999FECFCA
S113200092BD81BDF89A992780B50895262FF99934
S1132010FECF92BD81BDF89A019700B4021639F043
S11320201FBA20BD0FB6F894FA9AF99A0FBE089514
S1072030F894FFCF4E
S1132034323033204D41585F554E524F4C4C3A2068
S1132044003230332C204D494E5F554E524F4C4C88
S11320543A2000323032206C696368745F54454D11
S1132064503A00323032204752454E535F54454D66
S1132074503A00323032207665727369653A200032
S11320843230322000576174206B616E20696B20FA
S1132094766F6F72207520646F656E3F2000554E15
S11320A4524F4C4C00393939205A6F6E6E65736344
S11320B46865726D20697320616C20756974676545
S11320C4726F6C642100524F4C4C555000393939AD
S11320D4205A6F6E6E6573636865726D2069732030
S11320E4616C206F706765726F6C64210053544196
S11320F4545553004745545F54454D5000323032D3
S11321042054454D503D202520362E3266200A00A9
S11321144745545F4752454E535F54454D50005311
S113212445545F4752454E535F54454D50285A29F0
S113213400363030205A65742064652074656D70EF
S113214465726174757572206772656E7377616107
S11321547264652076616E207577207A6F6E6E6581
S113216470616E65656C004745545F4C494748543B
S113217400323032204C49474854202569200A0053
S11321844745545F4752454E535F4C4947485400B2
S11321945345545F4752454E535F4C49474854286E
S11321A45A2900363030205A6574206465206C69DD
S11321B4636874696E74656E7369746569742067A1
S11321C472656E737761617264652076616E2075E1
S11321D477207A6F6E6E6570616E65656C00474535
S11321E4545F4D41585F554E524F4C4C0053455427
S11321F45F4D41585F554E524F4C4C285A29003676
S11322043030205A657420746F7420686F65766565
S1132214722064652073636865726D206B616E203F
S1132224696E726F6C6C656E20696E2028636D290B
S1132234004745545F4D494E5F554E524F4C4C0038
S11322445345545F4D494E5F554E524F4C4C285A9A
S113225429004745545F4E414D45005345545F4E54
S1132264414D45285A2900363030205A657420647B
S113227465206E61616D2076616E207577207A6FBA
S11322846E6E6573636865726D00323030204F4B37
S113229420004745545F4C4F434154494F4E00532B
S11322A445545F4C4F434154494F4E285A290036F4
S11322B43030205A6574206465206C6F63617469DE
S11322C4652076616E207577207A6F6E6E65736310
S11322D46865726D004745545F56455253494F4EE5
S11322E4005345545F56455253494F4E285A2900CA
S11322F4363030205A6574206465207665727369BB
S1132304652076616E207577207A6F6E6E657061D4
S11323146E65656C00457869740032323120427907
S113232465210048656C7000393939200A0D2D2D5A
S11323342D2D2D2D2D2D2D2D2D2D2D2D2D2D2D2DC5
S11323445A6F6E6E6573636865726D2D2D2D2D2D18
S11323542D2D2D2D2D2D2D2D2D2D2D2D2D0A0D55C0
S11323644E524F4C4C09094C6161742068657420C9
S11323747A6F6E6E6573636865726D2075697472C5
S11323846F6C6C656E0A0D524F4C4C555009094CD8
S113239461617420686574207A6F6E6E6573636816
S11323A465726D206F70726F6C6C656E0A0A0D53E2
S11323B454415455532D2D2D2D2D2D2D2D2D2D2D95
S11323C42D2D2D2D2D2D2D2D2D53656E736F727383
S11323D42D2D2D2D2D2D2D2D2D2D2D2D2D2D2D2D25
S11323E42D2D2D2D2D0A0D4745545F54454D50096F
S11323F40947656566742074656D706572617475EA
S113240475722076616E20646174206D6F6D656EE3
S1132414742074657275670A0A0D4745545F475200
S1132424454E535F54454D505345545F4752454EB2
S1132434535F54454D50285A294745545F4C4947E6
S113244448544745545F4752454E535F4C494748A7
S1132454545345545F4752454E535F4C494748547F
S1132464285A294745545F4D41585F554E524F4CA5
S11324744C5345545F4D41585F554E524F4C4C2874
S11324845A294745545F4D494E5F554E524F4C4C63
S11324945345545F4D494E5F554E524F4C4C285A48
S11324A4292D2D2D2D2D2D2D2D2D2D2D2D2D2D2D58
S11324B42D2D2D2D496E666F726D6174696F6E2DAD
S11324C42D2D2D2D2D2D2D2D2D2D2D2D2D2D2D2D34
S11324D42D0A0D4745545F4E414D455345545F4EB7
S11324E4414D45285A294745545F4C4F434154496B
S11324F44F4E5345545F4C4F434154494F4E285A11
S1132504292D2D2D2D2D2D2D2D2D2D2D2D2D2D2DF7
S11325142D2D2D2D4F7665726967652D2D2D2D2D4D
S11325242D2D2D2D2D2D2D2D2D2D2D2D2D0A0D48FB
S1132534656C700909095765657267656566742079
S1132544616C6C6520636F6D6D616E646F27730AD3
S11325540D45786974090909536C756974206865B3
S1132564742070726F6772616D6D610A0035313069
S113257420436F6D6D616E646F206E6965742067AE
S113258465766F6E64656E212054797065204865A4
S11325946C7020766F6F7220616C6C6520636F6D54
S11325A46D616E646F27730A00000080400000A010
S11325B441B40000C84163005F005B005800500050
S11325C42800040004000400030008002800280074
S11325D400000002000000007F0700000000323504
S11325E43020002E005A6F6E6E6573636865726DD9
S11325F46F70726F6C6C656E202520362E326620E7
S1132604636D200A000A0D323031205A6F6E6E65F4
S113261473636865726D2069732075697467657284
S11326246F6C640A000A0D323031205A6F6E6E6585
S113263473636865726D206973206F706765726F68
S10726446C640A00B4
S9030000FC
