:100000000C94B5000C94D2000C94C3020C94D20052
:100010000C94D2000C94D2000C94D2000C94D20018
:100020000C94D2000C94D2000C94D2000C94D20008
:100030000C94D2000C94D2000C94AE010C94D2001B
:100040000C94D2000C94D2000C94D2000C94D200E8
:100050000C94D2000C94D2000C94D2000C94D200D8
:100060000C94D2000C94D2006E616E00696E660032
:1000700000407A10F35A00A0724E18090010A5D45F
:10008000E80000E87648170000E40B54020000CABC
:100090009A3B000000E1F505000080969800000002
:1000A00040420F000000A086010000001027000061
:1000B0000000E803000000006400000000000A00E7
:1000C000000000000100000000002C76D888DC67EA
:1000D0004F0823DFC1DFAE59E1B1B796E5E3E45342
:1000E000C63AE651997696E8E6C28426EB898C9B5F
:1000F00062ED407C6FFCEFBC9C9F40F2BAA56FA5FF
:10010000F490055A2AF75C936B6CF9676DC11BFC80
:10011000E0E40D47FEF520E6B500D0ED902E03009B
:10012000943577050080841E080000204E0A0000E8
:1001300000C80C333333330F986E12831141EF8DA7
:100140002114893BE65516CFFEE6DB18D1844B38E7
:100150001BF77C1D901DA4BBE424203284725E2218
:100160008100C9F124ECA1E53D2711241FBECFEF8A
:10017000D8E0DEBFCDBF16E0A0E0B1E0ECEAFCE1E4
:1001800002C005900D92A835B107D9F716E0A8E591
:10019000B6E001C01D92A83BB107E1F70E947401CF
:1001A0000C94540E0C94000087E880937A0080E24F
:1001B00080937E000895EAE7F0E080818064808388
:1001C000808186FDFDCF80917900089585E480933C
:1001D0007C00EAE7F0E0808180648083808186FD96
:1001E000FDCF8091780090917900089582E6809308
:1001F0007C00EAE7F0E0808180648083808186FD76
:10020000FDCF80917900089587EF8AB98FEF84B987
:10021000089584E08093690082E08DBB1092800095
:10022000089550915C0640915D0630915E062091E4
:100230005F06852F942FA32FB22FBC01CD01089507
:100240000E94E600682F70E080E090E00E94E007E6
:1002500020E030E040EA5BE30E946C08262F372F55
:10026000F82FE92F462F572F682F792F40936806D4
:100270005093690660936A0670936B06822F932FE2
:10028000AF2FBE2FBC01CD0120E030E040E05FE3A6
:100290000E944D0720E030E048EC52E40E946C08D8
:1002A000262F372FF82FE92F462F572F682F792F1A
:1002B00040938C0650938D0660938E0670938F0644
:1002C000822F932FAF2FBE2FBC01CD0108950E9426
:1002D000F600089582E084BD9CE997BD80936E008E
:1002E00085B5856085BD08950E9461060E946A01FA
:1002F0000E94D5050E94D4000E9404010E940901B9
:100300007894C1E00E944803C5B98FEF99E6A8E14F
:1003100081509040A040E1F700C000002898609113
:10032000620670916306809164069091650620E0F4
:1003300030E040E05FE30E946C0829E93BEB46E1D6
:100340005BE30E946C08DC01CB0180935C06909318
:100350005D06A0935E06B0935F06D4CF1F920F9206
:100360000FB60F921124EF92FF920F931F932F93CA
:100370003F934F935F936F937F938F939F93AF932D
:10038000BF93CF93DF93EF93FF93809158069091A3
:100390005906019690935906809358068091580605
:1003A0009091590623E0893E92070CF4D5C0C09184
:1003B0005A06D0915B060E942001DC01CB01EDB70B
:1003C000FEB738970FB6F894FEBF0FBEEDBF4DB71E
:1003D0005EB74F5F5F4F20E031E032832183FA0147
:1003E000D383C28384839583A683B7830E94E10D60
:1003F0008FE39CE90197F1F700C00000C0915A0615
:10040000D0915B06ADB7BEB718960FB6F894BEBFD5
:100410000FBEADBF0E94670100D000D000D0EDB785
:10042000FEB7319627E131E0ADB7BEB712963C93E7
:100430002E931197D383C283848315820E94E10D8A
:10044000EFE3FCE93197F1F700C000008FE39CE98E
:100450000197F1F700C00000ADB7BEB716960FB612
:10046000F894BEBF0FBEADBF0E946701C82F0E94A7
:100470001B038C010E9457067C010E945C06EDB7AD
:10048000FEB73A970FB6F894FEBF0FBEEDBF319698
:100490002AE231E0ADB7BEB712963C932E93119786
:1004A000C283138215830483F782E6829187808753
:1004B0000E94E10DEDB7FEB73A960FB6F894FEBF75
:1004C0000FBEEDBF0E946701C82F0E941B032C2F97
:1004D00030E0821793079CF40E945C0680FD0FC0F9
:1004E00000D089E391E0ADB7BEB712969C938E938E
:1004F00011970E94E10D0F900F900E946D060E94CF
:100500006701C82F0E941B032C2F30E028173907E2
:10051000B4F40E94570662E070E00E945B0C8130E8
:10052000910569F400D08FE391E0EDB7FEB79283B7
:1005300081830E94E10D0F900F900E94DD06809153
:100540005A0690915B06019690935B0680935A063B
:100550001092590610925806FF91EF91DF91CF91BA
:10056000BF91AF919F918F917F916F915F914F91CB
:100570003F912F911F910F91FF90EF900F900FBE21
:100580000F901F9018951F920F920FB60F92112483
:100590002F933F934F935F936F937F938F939F938B
:1005A000AF93BF93CF93DF93EF93FF938091600658
:1005B0009091610681309105D1F410928100C4E8D8
:1005C000D0E06881798180E090E00E94DE07DC0164
:1005D000CB018093620690936306A0936406B09368
:1005E0006506198218821092610610926006809149
:1005F000600690916106009759F4E1E8F0E080818F
:100600008160808381E090E0909361068093600632
:10061000FF91EF91DF91CF91BF91AF919F918F911A
:100620007F916F915F914F913F912F910F900FBEEE
:100630000F901F9018958091E70508956091E80547
:100640007091E9058091EA059091EB050E94B2074F
:10065000862F08955091E3054091E4053091E5051A
:100660002091E605852F942FA32FB22FBC01CD0139
:1006700008955091DF054091E0053091E10520910A
:10068000E205852F942FA32FB22FBC01CD01089531
:1006900005E411E0C0E9D6E00F2EFDE5EF2EF1E014
:1006A000FF2EF02D0F2EF1E8AF2EF1E0BF2EF02D32
:1006B0000F2EF4EACF2EF1E0DF2EF02D0F2EFBEA05
:1006C0008F2EF1E09F2EF02D0F2EF7EC6F2EF1E024
:1006D0007F2EF02D0F2EFFEE4F2EF1E05F2EF02D2E
:1006E0000F2EF1E22F2EF2E03F2EF02DC8010E94D6
:1006F0000506CE016EE170E041E00E941D06C701D3
:10070000BE010E94A10D282F392F21153105A1F41A
:100710000E945C0662E070E00E945B0C81309105F3
:1007200021F484E691E00E9414060E945C0680FD9C
:100730001FC00E946D061CC0C501BE010E94A10D14
:10074000282F392F2115310599F40E94570680FD75
:1007500004C088E891E00E9414060E94570662E0F7
:1007600070E00E945B0C8130910511F40E94DD065F
:10077000C601BE010E94A10D282F392F2115310578
:1007800009F4B4CFC401BE010E94A10D282F392F56
:1007900021153105B9F40E94200100D000D024EBCE
:1007A00031E0ADB7BEB712963C932E9311971496D5
:1007B0009C938E9313970E94E10D0F900F900F90D2
:1007C0000F9094CFC301BE010E94A10D282F392F95
:1007D0002115310501F500D000D000D086ED91E063
:1007E000EDB7FEB7928381838091E8059091E9058A
:1007F000A091EA05B091EB0583839483A583B6832A
:100800000E94E10D8DB79EB706960FB6F8949EBF75
:100810000FBE8DBF6BCFC201BE010E94A10D282F5C
:10082000392F21153105F9F400D000D000D0EDB7F3
:10083000FEB7319681E092E0ADB7BEB712969C93B9
:100840008E9311978091E70582831382D583C483A9
:100850000E94E10DEDB7FEB736960FB6F894FEBFD5
:100860000FBEEDBF43CFC101BE010E94A10D282FD5
:10087000392F21153105B9F40E94670100D000D04D
:100880002BE232E0ADB7BEB712963C932E93119790
:1008900014969C938E9313970E94E10D0F900F90E6
:1008A0000F900F9023CF8AE392E0BE010E94A10D2A
:1008B000282F392F21153105C1F400D000D0EDB714
:1008C000FEB731968AE492E0ADB7BEB712969C931C
:1008D0008E9311978091E705828313820E94E10D28
:1008E0000F900F900F900F9001CF84E692E0BE0121
:1008F0000E94A10D282F392F21153105F9F400D0C0
:1009000000D000D0EDB7FEB7319687E792E0ADB7E3
:10091000BEB712969C938E9311978091E7058283C0
:100920001382D583C4830E94E10DEDB7FEB73696DE
:100930000FB6F894FEBF0FBEEDBFD8CE88E992E0A7
:10094000BE010E94A10D282F392F2115310521F557
:1009500000D000D000D084EB91E0ADB7BEB71296C6
:100960009C938E9311978091E3059091E405A0915B
:10097000E505B091E605EDB7FEB783839483A583C3
:10098000B6830E94E10D8DB79EB706960FB6F89418
:100990009EBF0FBE8DBFAACE87EA92E0BE010E9425
:1009A000A10D282F392F2115310551F5ADB7BEB74F
:1009B00018970FB6F894BEBF0FBEADBFEDB7FEB728
:1009C000319689EB92E012969C938E9311978091C9
:1009D000E3059091E405A091E505B091E6058283D9
:1009E0009383A483B583D783C6830E94E10DEDB7BB
:1009F000FEB738960FB6F894FEBF0FBEEDBF76CEA9
:100A000089ED92E0BE010E94A10D282F392F2115FA
:100A1000310521F500D000D000D089EB92E0ADB7D0
:100A2000BEB712969C938E9311978091DF0590919B
:100A3000E005A091E105B091E205EDB7FEB7838333
:100A40009483A583B6830E94E10D8DB79EB7069669
:100A50000FB6F8949EBF0FBE8DBF48CE88EE92E0D1
:100A6000BE010E94A10D282F392F2115310551F506
:100A7000ADB7BEB718970FB6F894BEBF0FBEADBFE7
:100A8000EDB7FEB731968AEF92E012969C938E9363
:100A900011978091E3059091E405A091E505B0914F
:100AA000E60582839383A483B583D783C6830E949C
:100AB000E10DEDB7FEB738960FB6F894FEBF0FBE46
:100AC000EDBF14CE8AE193E0BE010E94A10D282F54
:100AD000392F2115310509F409CE83E293E0BE01D7
:100AE0000E94A10D282F392F2115310571F400D056
:100AF0008CE293E0ADB7BEB712969C938E9311979C
:100B00000E94E10D0F900F90F1CD84E393E0BE01C0
:100B10000E94A10D282F392F2115310509F4E6CDAA
:100B200081E493E0BE010E94A10D282F392F2115E9
:100B3000310561F400D08CE293E0EDB7FEB792830B
:100B400081830E94E10D0F900F90D0CD81E593E05D
:100B5000BE010E94A10D282F392F2115310589F4DE
:100B60000E945C0662E070E00E945B0C813091059F
:100B700011F40E946D0686E593E00E9414060E941F
:100B8000B90C8FE593E0BE010E94A10D282F392FEB
:100B90002115310529F484E693E00E941406A6CDC0
:100BA00083EA95E00E941406A1CD1092C50083E36C
:100BB0008093C4001092C00088E18093C10086E059
:100BC0008093C2008CEE95E09093B5068093B406B6
:100BD0000895E0ECF0E0908195FFFDCF8093C60092
:100BE0000895CF93C82F8A3019F48DE00E94E9054B
:100BF0008C2F0E94E905CF910895E0ECF0E0808110
:100C00008823ECF78091C6000895CF93DF93EC0121
:100C10008881882331F021960E94E90589918823F3
:100C2000D9F7DF91CF9108950E9405068DE00E94CB
:100C3000E9058AE00E94E9050895AF92BF92CF923C
:100C4000DF92EF92FF920F931F93CF93DF935C019C
:100C5000D42F6C01EE24FF248B01015010400E9420
:100C6000FD05C82FDD2311F00E94E905CD3031F4D8
:100C7000DD2371F08AE00E94E9050AC0E016F10662
:100C800074F7F601C1936F010894E11CF11CE7CFE2
:100C9000EA0CFB1CF7011082DF91CF911F910F919D
:100CA000FF90EF90DF90CF90BF90AF90089580912C
:100CB000B0069091B10608958091660690916706FE
:100CC0000895239A249A259AE9E6F0E080818160CC
:100CD000808381E08CBB2D9A0895CF93DF93809120
:100CE0006606909167060196909367068093660664
:100CF0008091B0069091B10601969093B1068093D1
:100D0000B0068AEF95E00E9405062D982B9A0E9466
:100D1000110100D000D02FEF35E0ADB7BEB712966D
:100D20003C932E93119714969C938E9313970E9445
:100D3000E10D0F900F900F900F90C7E1D6E022C009
:100D40002C9A8FE39DE0A3E081509040A040E1F712
:100D500000C000002C988FE39DE0A3E081509040FC
:100D6000A040E1F700C000008091AE069091AF0670
:100D700001969093AF068093AE0680FD03C0CE012E
:100D80000E9405068091AE069091AF0689319105CB
:100D9000BCF21092AF061092AE0689E196E00E9476
:100DA00014068FE39DE0A3E081509040A040E1F75E
:100DB00000C00000DF91CF910895CF93DF93809121
:100DC000B0069091B10601969093B1068093B0065B
:100DD00080916606909167060196909367068093CE
:100DE00066068AEF95E00E9405062B982D9A0E94D0
:100DF000110100D000D02FEF35E0ADB7BEB712968D
:100E00003C932E93119714969C938E9313970E9464
:100E1000E10D0F900F900F900F90C7E1D6E022C028
:100E20002C9A8FE39DE0A3E081509040A040E1F731
:100E300000C000002C988FE39DE0A3E0815090401B
:100E4000A040E1F700C000008091AE069091AF068F
:100E500001969093AF068093AE0680FD03C0CE014D
:100E60000E9405068091AE069091AF0689319105EA
:100E7000BCF21092AF061092AE0689E396E00E9493
:100E800014068FE39DE0A3E081509040A040E1F77D
:100E900000C00000DF91CF9108955058BB27AA27CA
:100EA0000ED0E0C0D1D030F0D6D020F031F49F3F4A
:100EB00011F41EF4C6C00EF4E095E7FBBCC0E92FA8
:100EC000E2D080F3BA17620773078407950718F01A
:100ED00071F49EF5FAC00EF4E0950B2EBA2FA02DFA
:100EE0000B01B90190010C01CA01A0011124FF27D7
:100EF000591B99F0593F50F4503E68F11A16F040D2
:100F0000A22F232F342F4427585FF3CF46953795D0
:100F10002795A795F0405395C9F77EF41F16BA0B95
:100F2000620B730B840BBAF09150A1F0FF0FBB1F43
:100F3000661F771F881FC2F70EC0BA0F621F731F8C
:100F4000841F48F4879577956795B795F7959E3FE9
:100F500008F0B3CF9395880F08F09927EE0F979577
:100F60008795089598D088F09F5790F0B92F9927CA
:100F7000B751A0F0D1F0660F771F881F991F1AF0A4
:100F8000BA95C9F712C0B13081F09FD0B1E0089591
:100F90009CC0672F782F8827B85F39F0B93FCCF312
:100FA000869577956795B395D9F73EF4909580959A
:100FB000709561957F4F8F4F9F4F0895E89409C0BA
:100FC00097FB3EF490958095709561957F4F8F4F7C
:100FD0009F4F9923A9F0F92F96E9BB279395F69592
:100FE000879577956795B795F111F8CFFAF4BB0F10
:100FF00011F460FF1BC06F5F7F4F8F4F9F4F16C074
:10100000882311F096E911C0772321F09EE8872FFD
:10101000762F05C0662371F096E8862F70E060E0B9
:101020002AF09A95660F771F881FDAF7880F969532
:10103000879597F9089597F99F6780E870E060E0D9
:1010400008959FEF80EC089500240A941616170661
:1010500018060906089500240A94121613061406A9
:1010600005060895092E0394000C11F4882352F00C
:10107000BB0F40F4BF2B11F460FF04C06F5F7F4FC4
:101080008F4F9F4F089557FD9058440F551F59F0AB
:101090005F3F71F04795880F97FB991F61F09F3F65
:1010A00079F087950895121613061406551FF2CF8E
:1010B0004695F1DF08C0161617061806991FF1CFDE
:1010C00086957105610508940895E894BB27662705
:1010D0007727CB0197F908950BD0C4CFB5DF28F05F
:1010E000BADF18F0952309F0A6CFABCF1124EECFCD
:1010F000CADFA0F3959FD1F3950F50E0551F629F73
:10110000F001729FBB27F00DB11D639FAA27F00D60
:10111000B11DAA1F649F6627B00DA11D661F829F87
:101120002227B00DA11D621F739FB00DA11D621F6C
:10113000839FA00D611D221F749F3327A00D611D89
:10114000231F849F600D211D822F762F6A2F11246B
:101150009F5750408AF0E1F088234AF0EE0FFF1FBE
:10116000BB1F661F771F881F91505040A9F79E3FF5
:10117000510570F060CFAACF5F3FECF3983EDCF3EF
:10118000869577956795B795F795E7959F5FC1F732
:10119000FE2B880F911D9695879597F90895A5E1E7
:1011A000B0E0E5EDF8E00C946E0C4C017F876E87A3
:1011B000FC0117821682838181FD04C076C34C85B1
:1011C0005D8504C01E010894211C311CF40193812B
:1011D000EE85FF8593FD859193FF8191FF87EE87D3
:1011E000882309F45EC3853241F493FD859193FF12
:1011F0008191FF87EE87853259F490E0B4014C8BE2
:101200005D8B0E94B50D4C895D895D874C87D7CF7A
:10121000FF24DD2410E01032B0F48B3269F08C3200
:1012200028F4803251F0833271F40BC08D3239F0E2
:10123000803349F411602CC01260146029C018601A
:1012400027C0106125C017FD2EC0282F20532A303B
:1012500098F416FF08C08F2D880FF82EFF0CFF0C96
:10126000F80EF20E15C08D2D880FD82EDD0CDD0C7A
:10127000D80ED20E10620CC08E3221F416FD11C3AE
:10128000106406C08C3611F4106802C0883659F418
:10129000EE85FF8593FD859193FF8191FF87EE8712
:1012A000882309F0B8CF982F9554933018F4106123
:1012B000805E06C0982F9556933008F0A2C11F7E1D
:1012C00016FD02C0E6E0FE2E1F73853611F4106491
:1012D00006C0863611F4106802C0F110FA9417FFA8
:1012E00007C0FBE3FF1548F0EF2CE39427E00DC0A7
:1012F00027E02F1530F02F2D07C027E07CE3E72EE5
:1013000004C027E067E0F62EEE24CA0104969D870C
:101310008C87FA016081718182819381A1010E2DF8
:101320000E94BE0C5C01C9802C2D30E0398B288BCB
:10133000C0FE03C0388933FF06C011FD06C012FF8E
:1013400006C000E205C00DE203C00BE201C000E0F0
:10135000888999898C709070009709F43CC00023AB
:1013600011F084E001C083E08D1558F4D81A13FD04
:1013700009C080E290E0B4010E94B50DDA94C9F78B
:1013800001C0DD24002329F0802F90E0B4010E94E9
:10139000B50D888983FD05C03CE6E32E30E0F32ED1
:1013A00011C028E6E22E20E0F22E0CC00115110536
:1013B00009F0805290E0B4010E94B50D0894E11C40
:1013C000F11C04C0012F10E000711070F70184912E
:1013D000882361F763C217FF0EC0EA0CF889F4FF97
:1013E00004C08A81813309F4EA941E144CF528E084
:1013F0002E1548F12CC016FD2AC08F2D90E08A15BD
:101400009B0544F03CEFA3163FEFB3061CF01068B9
:1014100001C0FA94FF2049F0E2E0F0E0EC0FFD1F7C
:10142000EF0DF11D80818033A1F317FF10C0EF2C69
:10143000E3948F2D90E0A816B90644F4FA1807C07B
:10144000EE24E39404C098E0E92E01C0FF2417FFC6
:1014500007C01A141B043CF495012F5F3F4F05C0D1
:1014600025E030E002C021E030E0002311F02F5FE2
:101470003F4FFF2029F08F2D90E00196280F391F54
:101480008D2D90E02817390714F4D21A01C0DD24FD
:10149000612E7724C30189709070009749F406C0CB
:1014A00080E290E0B4010E94B50DDA94DD20C1F72E
:1014B000002329F0802F90E0B4010E94B50D63FC59
:1014C00009C006C080E390E0B4010E94B50DDA9433
:1014D000DD20C1F717FF48C08501B7FE02C000E05C
:1014E00010E06624772495012E1931093B8B2A8B55
:1014F0002501401A510A420C531C6F2D70E0EE2456
:10150000FF24E61AF70A3FEF0F3F130729F48EE294
:1015100090E0B4010E94B50DA016B10654F02A89DE
:101520003B89201731072CF4F201E60DF71D81816C
:1015300001C080E3015010400894611C711C0E151D
:101540001F052CF090E0B4010E94B50DDCCF0A1508
:101550001B0541F49A81963320F4953319F43889A8
:1015600034FF81E390E049C08A81813311F09FEE1E
:10157000C92290E0B4010E94B50DFF2089F08EE2EF
:1015800090E0B4010E94B50D12E0F101E10FF11DF0
:101590001F5F808190E0B4010E94B50DFA94A9F715
:1015A00064FE03C085E490E002C085E690E0B401EB
:1015B0000E94B50DB7FC05C0A114B10441F4C4FEEE
:1015C00006C0B094A194B108B3948DE201C08BE23F
:1015D00090E0B4010E94B50D80E305C08F5FE6EF97
:1015E000FFEFAE0EBF1EFAE0AF16B104BCF790E0FD
:1015F000B4010E94B50DC501C096B4010E94B50D9D
:101600004DC1833631F0833789F0833509F059C0F5
:1016100022C09A012E5F3F4F3D872C87FA018081BF
:10162000898381E0E82EF12C510113C09A012E5FCD
:101630003F4F3D872C87FA01A080B18016FF03C081
:101640006F2D70E002C06FEF7FEFC5010E94AA0D01
:101650007C011F7714C09A012E5F3F4F3D872C8776
:10166000FA01A080B18016FF03C06F2D70E002C0A8
:101670006FEF7FEFC5010E94960D7C01106813FD8E
:101680001CC006C080E290E0B4010E94B50DDA945F
:101690008D2D90E0E816F906A8F30FC0F50117FDAF
:1016A000859117FF81915F0190E0B4010E94B50D13
:1016B000D110DA940894E108F108E114F10471F70B
:1016C000EDC0843611F0893671F59A0117FF0AC012
:1016D0002C5F3F4F3D872C87FA0180819181A28149
:1016E000B3810BC02E5F3F4F3D872C87FA0180816D
:1016F0009181AA2797FDA095BA2F012F0F76B7FFEA
:1017000008C0B095A095909581959F4FAF4FBF4F62
:101710000068BC01CD01A1012AE030E00E94F60D75
:10172000E82EE21841C0853721F41F7E2AE030E020
:1017300020C0197F8F36A9F0803720F4883509F052
:10174000B0C00BC0803721F0883709F0AAC001C0B3
:10175000106114FF09C0146007C014FF08C01660B0
:1017600006C028E030E005C020E130E002C020E102
:1017700032E0CA0117FF09C004969D878C87FA01E1
:10178000608171818281938108C002969D878C87D8
:10179000FA016081718180E090E0A1010E94F60D64
:1017A000E82EE218012F0F7706FF09C00E7FEF1415
:1017B00030F404FF06C002FD04C00F7E02C01E2DDF
:1017C00001C01F2D802F90E004FF0CC0FE01EE0D24
:1017D000F11D2081203311F4097E09C002FF06C0EB
:1017E0001E5F05C086789070009709F01F5FA02EDD
:1017F000BB2403FD12C000FF0DC0FE2C1D1550F4CC
:10180000FD0CF11A1D2D06C080E290E0B4010E948B
:10181000B50D1F5F1D15C0F304C01D1510F4D11ABE
:1018200001C0DD24A4FE0FC080E390E0B4010E945B
:10183000B50DA2FE1FC0A1FE03C088E590E010C058
:1018400088E790E00DC0C50186789070009791F010
:10185000A1FC02C080E201C08BE207FD8DE290E0B6
:10186000B4010E94B50D06C080E390E0B4010E946F
:10187000B50DFA94EF14C0F3EA94F101EE0DF11DE9
:10188000808190E0B4010E94B50DEE20A9F706C05A
:1018900080E290E0B4010E94B50DDA94DD20C1F73A
:1018A0008ECCF4018681978102C08FEF9FEF659601
:1018B000E2E10C948A0C97FB092E07260AD077FDEB
:1018C00004D043D006D000201AF4709561957F4F64
:1018D0000895F6F7909581959F4F08952F923F9226
:1018E0004F925F926F927F928F929F92AF92BF9230
:1018F000CF92DF92EF92FF920F931F93CF93DF93DC
:10190000CDB7DEB7CA1BDB0B0FB6F894DEBF0FBE38
:10191000CDBF09942A88398848885F846E847D8485
:101920008C849B84AA84B984C884DF80EE80FD8087
:101930000C811B81AA81B981CE0FD11D0FB6F894FD
:10194000DEBF0FBECDBFED010895AA1BBB1B51E149
:1019500007C0AA1FBB1FA617B70710F0A61BB70B1F
:10196000881F991F5A95A9F780959095BC01CD01C4
:10197000089581E090E0F8940C94540E283008F01B
:1019800027E03327DA01990F311D87FD916000961A
:101990006105710539F432602E5F3D9330E32A957D
:1019A000E1F708959F3F30F080387105610509F037
:1019B0003C5F3C5F3D93913008F08068911DDF9360
:1019C000CF931F930F93FF92EF92192F987F9695C5
:1019D000E92F96959695E90FFF27E653FF4F992734
:1019E0003327EE24FF24A701E7010590089407940C
:1019F00028F4360FE71EF81E491F511D660F771F8A
:101A0000881F991F0694A1F70590079428F4E70E04
:101A1000F81E491F561FC11D770F881F991F661F8B
:101A20000694A1F70590079428F4F80E491F561F55
:101A3000C71FD11D880F991F661F771F0694A1F736
:101A40000590079420F4490F561FC71FD81F990F00
:101A5000661F771F881F0694A9F784911095177049
:101A600041F0D695C79557954795F794E7941A9501
:101A7000C1F7E0E7F0E06894159015913591659114
:101A8000959105907FE27395E118F10A430B560B8F
:101A9000C90BD009C0F7E10CF11E431F561FC91F27
:101AA000D01D7EF4703311F48A95E6CFE89401508E
:101AB00030F0080F0AF40027021708F4202F2395AE
:101AC000022F7A3328F079E37D932A95E9F710C045
:101AD0007D932A9589F6069497956795379517957E
:101AE0001794E118F10A430B560BC90BD00998F073
:101AF00023957E9173957A3308F070E37C932013DD
:101B0000B8F77E9170617D9330F0839571E37D939A
:101B100070E32A95E1F71124EF90FF900F911F9148
:101B2000CF91DF91992787FD90950895FC0105904D
:101B3000615070400110D8F7809590958E0F9F1FCF
:101B40000895FB01DC018D91019080190110D9F3FA
:101B5000990B0895FC016150704001900110D8F775
:101B6000809590958E0F9F1F08950F931F93CF938D
:101B7000DF938C01EB018B8181FF1BC082FF0DC0C5
:101B80002E813F818C819D812817390764F4E8817B
:101B9000F9810193F983E88306C0E885F985802FF0
:101BA0000995009731F48E819F8101969F838E83E2
:101BB00002C00FEF1FEFC801DF91CF911F910F916E
:101BC0000895A0E0B0E0E7EEFDE00C947E0CFE018D
:101BD0003596619171918091B4069091B506AF01EF
:101BE0000E94CF082096E2E00C949A0CFA01AA27F2
:101BF000283051F1203181F1E8946F936E7F6E5F50
:101C00007F4F8F4F9F4FAF4FB1E03ED0B4E03CD0FD
:101C1000670F781F891F9A1FA11D680F791F8A1FE0
:101C2000911DA11D6A0F711D811D911DA11D20D047
:101C300009F468943F912AE0269F11243019305D01
:101C40003193DEF6CF010895462F4770405D4193F2
:101C5000B3E00FD0C9F7F6CF462F4F70405D4A333F
:101C600018F0495D31FD4052419302D0A9F7EACF07
:101C7000B4E0A6959795879577956795BA95C9F736
:101C800000976105710508959B01AC010A2E069429
:101C90005795479537952795BA95C9F7620F731FE2
:0C1CA000841F951FA01D0895F894FFCF2D
:101CAC0025692074656D70657261747575723D255A
:101CBC0020362E32660A00256920696E74656E73B3
:101CCC0069746569743D25640A0025642C202564BB
:101CDC002C2025692C2025690074657374310074DF
:101CEC006573743200576174206B616E20696B20D0
:101CFC00766F6F72207520646F656E3F00554E5283
:101D0C004F4C4C005A6F6E6E6573636865726D2034
:101D1C00697320616C207569746765726F6C6421DE
:101D2C0000524F4C4C5550005A6F6E6E6573636881
:101D3C0065726D20697320616C206F706765726FBE
:101D4C006C642100535441545553004745545F541F
:101D5C00454D50003230322054454D503D20252009
:101D6C00362E3266200A004745545F4752454E5383
:101D7C005F54454D5000323032204752454E535F30
:101D8C0054454D503A202520362E3266200A0053F9
:101D9C0045545F4752454E535F54454D50285A2980
:101DAC0000323033204752454E535F54454D503A24
:101DBC002025362E3266202D3E2025362E326620EA
:101DCC00004745545F4C4947485400323032204C50
:101DDC0049474854202569200A004745545F47521B
:101DEC00454E535F4C4947485400323032204752DD
:101DFC00454E535F4C494748543A202520362E32E5
:101E0C0066200A005345545F4752454E535F4C4978
:101E1C00474854285A2900323033204752454E53F4
:101E2C005F4C494748543A2025362E3266202D3EC9
:101E3C002025362E326620004745545F4D41585FB1
:101E4C00554E524F4C4C005345545F4D41585F55C5
:101E5C004E524F4C4C285A2900323033204D4158A9
:101E6C005F554E524F4C4C3A2025362E3266202D63
:101E7C003E2025362E326620004745545F4D494E94
:101E8C005F554E524F4C4C005345545F4D494E5F7D
:101E9C00554E524F4C4C285A2900323033204D4964
:101EAC004E5F554E524F4C4C3A2025362E32662002
:101EBC002D3E2025362E326620004745545F4E417C
:101ECC004D45005345545F4E414D45003230302056
:101EDC004F4B20004745545F4C4F434154494F4EA4
:101EEC00005345545F4C4F434154494F4E285A2997
:101EFC0000457869740032323120427965210048FE
:101F0C00656C70002D2D2D2D2D2D2D2D2D2D2D2D68
:101F1C002D2D2D2D2D2D5A6F6E6E65736368657288
:101F2C006D2D2D2D2D2D2D2D2D2D2D2D2D2D2D2D95
:101F3C002D2D2D0A0D554E524F4C4C09094C6161FB
:101F4C007420686574207A6F6E6E65736368657251
:101F5C006D20756974726F6C6C656E0A0D524F4C06
:101F6C004C555009094C61617420686574207A6F76
:101F7C006E6E6573636865726D206F70726F6C6CDA
:101F8C00656E0A0A0D5354415455532D2D2D2D2D8C
:101F9C002D2D2D2D2D2D2D2D2D2D2D2D2D2D2D533F
:101FAC00656E736F72732D2D2D2D2D2D2D2D2D2DC9
:101FBC002D2D2D2D2D2D2D2D2D2D2D0A0D4745542F
:101FCC005F54454D50090947656566742074656D0D
:101FDC0070657261747575722076616E20646174BF
:101FEC00206D6F6D656E742074657275670A0A0DCD
:101FFC004745545F4752454E535F54454D505345EA
:10200C00545F4752454E535F54454D50285A29470B
:10201C0045545F4C494748544745545F4752454ED9
:10202C00535F4C494748545345545F4752454E53B0
:10203C005F4C49474854285A294745545F4D4158ED
:10204C005F554E524F4C4C5345545F4D41585F5564
:10205C004E524F4C4C285A294745545F4D494E5FC0
:10206C00554E524F4C4C5345545F4D494E5F554E57
:10207C00524F4C4C285A292D2D2D2D2D2D2D2D2DDB
:10208C002D2D2D2D2D2D2D2D2D2D496E666F726D17
:10209C006174696F6E2D2D2D2D2D2D2D2D2D2D2D2A
:1020AC002D2D2D2D2D2D2D0A0D4745545F4E414DB7
:1020BC00455345545F4E414D45285A294745545F79
:1020CC004C4F434154494F4E5345545F4C4F434141
:1020DC0054494F4E285A292D2D2D2D2D2D2D2D2D7A
:1020EC002D2D2D2D2D2D2D2D2D2D4F7665726967B6
:1020FC00652D2D2D2D2D2D2D2D2D2D2D2D2D2D2DCC
:10210C002D2D2D0A0D48656C7009090957656572EE
:10211C00676565667420616C6C6520636F6D6D61BD
:10212C006E646F27730A0D45786974090909536C3D
:10213C00756974206865742070726F6772616D6D5B
:10214C00610A0035313020436F6D6D616E646F2014
:10215C006E696574206765766F6E64656E212054B8
:10216C007970652048656C7020766F6F7220616C99
:10217C006C6520636F6D6D616E646F27730A00CDA3
:10218C00CC4C3D00004842B40000C84100000002A5
:10219C0000000000F1050000000032353020005A2C
:1021AC006F6E6E6573636865726D202520362E32F6
:1021BC006620636D200A002E000A0D323031205A41
:1021CC006F6E6E6573636865726D206973207569D7
:1021DC00746765726F6C640A000A0D323031205AD4
:1021EC006F6E6E6573636865726D206973206F70B6
:0821FC006765726F6C640A0054
:00000001FF
