:100000000C94B5000C94D2000C946C020C94D200A9
:100010000C94D2000C94D2000C94D2000C94D20018
:100020000C94D2000C94D2000C94D2000C94D20008
:100030000C94D2000C94D2000C94B1010C94D20018
:100040000C94D2000C94D2000C94D2000C94D200E8
:100050000C94D2000C94D2000C94D2000C94D200D8
:100060000C94D2000C94D2006E616E00696E660032
:1000700000407A10F35A00A0724E18090010A5D45F
:10008000E80000E87648170000E40B54020000CABC
:100090009A3B000000E1F505000080969800000002
:1000A00040420F000000A086010000001027000061
:1000B0000000E803000000006400000000000A00E7
:1000C000000000000100000000002C76D888DC67EA
:1000D0004F0823DFC1DFAE59E1B1B796E5E3E45342
:1000E000C63AE651997696E8E6C28426EB898C9B5F
:1000F00062ED407C6FFCEFBC9C9F40F2BAA56FA5FF
:10010000F490055A2AF75C936B6CF9676DC11BFC80
:10011000E0E40D47FEF520E6B500D0ED902E03009B
:10012000943577050080841E080000204E0A0000E8
:1001300000C80C333333330F986E12831141EF8DA7
:100140002114893BE65516CFFEE6DB18D1844B38E7
:100150001BF77C1D901DA4BBE424203284725E2218
:100160008100C9F124ECA1E53D2711241FBECFEF8A
:10017000D8E0DEBFCDBF16E0A0E0B1E0EEE0FDE1EB
:1001800002C005900D92A836B107D9F716E0A8E68F
:10019000B6E001C01D92AA3CB107E1F70E94A1019F
:1001A0000C94850E0C94000087E880937A0080E21E
:1001B00080937E000895EAE7F0E080818064808388
:1001C000808186FDFDCF80917900089585E480933C
:1001D0007C00EAE7F0E0808180648083808186FD96
:1001E000FDCF8091780090917900089582E6809308
:1001F0007C00EAE7F0E0808180648083808186FD76
:10020000FDCF80917900089587EF8AB98FEF84B987
:10021000089584E08093690082E08DBB1092800095
:100220000895289A8FE39CE90197F1F700C0000038
:1002300028988FEF91EEA4E081509040A040E1F724
:1002400000C000006091740670917506809176067A
:100250009091770620E030E040E05FE30E949D0847
:1002600029E93BEB46E15BE30E949D08262F372FEF
:10027000F82FE92F462F572F682F792F40936E06BE
:1002800050936F066093700670937106822F932FC0
:10029000AF2FBE2FBC01CD0108950E94E600682F4C
:1002A00070E080E090E00E94E90720E030E040EA62
:1002B0005BE30E949D08262F372FF82FE92F462F4A
:1002C000572F682F792F40937A0650937B066093BF
:1002D0007C0670937D06822F932FAF2FBE2FBC011B
:1002E000CD0120E030E040E05FE30E94520720E0D3
:1002F00030E048EC52E40E949D08262F372FF82F5B
:10030000E92F462F572F682F792F40939E06509341
:100310009F066093A0067093A106822F932FAF2FA4
:10032000BE2FBC01CD0108950E94F600089582E021
:1003300084BD9CE997BD80936E0085B5856085BDC1
:1003400008950E9414060E9497010E9488050E9449
:10035000D4000E9404010E94090178940E94F102D5
:10036000FDCF1F920F920FB60F9211242F933F9340
:100370004F935F936F937F938F939F93AF93BF93AD
:10038000CF93DF93EF93FF9380916A0690916B0672
:10039000019690936B0680936A0680916A0690910D
:1003A0006B062BE0893B92070CF483C0C0916C066E
:1003B000D0916D060E944D01DC01CB01EDB7FEB777
:1003C00038970FB6F894FEBF0FBEEDBF4DB75EB7BE
:1003D0004F5F5F4F20E031E032832183FA01D38306
:1003E000C28384839583A683B7830E94120E8FE312
:1003F0009CE90197F1F700C00000C0916C06D09114
:100400006D06ADB7BEB718960FB6F894BEBF0FBE57
:10041000ADBF0E94940100D000D000D0EDB7FEB770
:10042000319628E131E0ADB7BEB712963C932E93DA
:100430001197D383C283848315820E94120EEDB775
:10044000FEB736960FB6F894FEBF0FBEEDBF0E9402
:100450009401C82F0E94C4022C2F30E0821793070A
:1004600034F40E940F0680FD02C00E9420060E9404
:100470009401C82F0E94C4022C2F30E0281739079E
:100480005CF40E940A0662E070E00E948C0C8130ED
:10049000910511F40E94B90680916C0690916D0649
:1004A000019690936D0680936C0610926B061092E5
:1004B0006A06FF91EF91DF91CF91BF91AF919F912C
:1004C0008F917F916F915F914F913F912F910F90FD
:1004D0000FBE0F901F9018951F920F920FB60F929C
:1004E00011242F933F934F935F936F937F938F9339
:1004F0009F93AF93BF93CF93DF93EF93FF9380913D
:1005000072069091730681309105D1F410928100AA
:10051000C4E8D0E06881798180E090E00E94E7073C
:10052000DC01CB018093740690937506A093760648
:10053000B093770619821882109273061092720691
:100540008091720690917306009759F4E1E8F0E00B
:1005500080818160808381E090E090937306809336
:100560007206FF91EF91DF91CF91BF91AF919F9173
:100570008F917F916F915F914F913F912F910F904C
:100580000FBE0F901F9018958091CE050895609131
:10059000CF057091D0058091D1059091D2050E9430
:1005A000BB07862F08955091CA054091CB05309125
:1005B000CC052091CD05852F942FA32FB22FBC0100
:1005C000CD0108955091C6054091C7053091C805E9
:1005D0002091C905852F942FA32FB22FBC01CD01E7
:1005E00008950BE211E0C2EAD6E00F2EF4E4EF2EFC
:1005F000F1E0FF2EF02D0F2EF8E6AF2EF1E0BF2E2A
:10060000F02D0F2EFBE8CF2EF1E0DF2EF02D0F2E78
:10061000F2E98F2EF1E09F2EF02D0F2EFEEA6F2EC5
:10062000F1E07F2EF02D0F2EF6ED4F2EF1E05F2E34
:10063000F02D0F2EF8E02F2EF2E03F2EF02DC80106
:100640000E94B805CE016EE170E041E00E94D00545
:10065000C701BE010E94D20D282F392F2115310567
:10066000A1F40E940F0662E070E00E948C0C8130C1
:10067000910521F48BE491E00E94C7050E940F06CA
:1006800080FD1FC00E9420061CC0C501BE010E9443
:10069000D20D282F392F2115310599F40E940A0611
:1006A00080FD04C08FE691E00E94C7050E940A0603
:1006B00062E070E00E948C0C8130910511F40E9480
:1006C000B906C601BE010E94D20D282F392F21156F
:1006D000310509F4B4CFC401BE010E94D20D282F08
:1006E000392F21153105E1F40E944D01DC01CB01C8
:1006F00000D000D000D02BE931E0EDB7FEB7328357
:10070000218383839483A583B6830E94120E8DB7C1
:100710009EB706960FB6F8949EBF0FBE8DBF8FCFC3
:10072000C301BE010E94D20D282F392F211531059A
:1007300021F500D000D000D08DEB91E0ADB7BEB771
:1007400012969C938E9311978091CF059091D0052E
:10075000A091D105B091D205EDB7FEB78383948304
:10076000A583B6830E94120E8DB79EB706960FB66C
:10077000F8949EBF0FBE8DBF62CFC201BE010E9422
:10078000D20D282F392F21153105F9F400D000D0D2
:1007900000D0EDB7FEB7319688EE91E0ADB7BEB7A9
:1007A00012969C938E9311978091CE05828313822B
:1007B000D583C4830E94120EEDB7FEB736960FB6EE
:1007C000F894FEBF0FBEEDBF3ACFC101BE010E943B
:1007D000D20D282F392F21153105C1F40E94940123
:1007E00000D000D0EDB7FEB7319622E132E0ADB7D0
:1007F000BEB712963C932E931197828313820E9468
:10080000120E0F900F900F900F9019CF81E292E08F
:10081000BE010E94D20D282F392F21153105C1F4B8
:1008200000D000D0EDB7FEB7319681E392E0ADB7CE
:10083000BEB712969C938E9311978091CE058283BA
:1008400013820E94120E0F900F900F900F90F7CE10
:100850008BE492E0BE010E94D20D282F392F211582
:100860003105F9F400D000D000D0EDB7FEB73196D5
:100870008EE592E0ADB7BEB712969C938E9311971A
:100880008091CE0582831382D583C4830E94120E89
:10089000EDB7FEB736960FB6F894FEBF0FBEEDBFAC
:1008A000CECE8FE792E0BE010E94D20D282F392FC5
:1008B0002115310521F500D000D000D08BE991E061
:1008C000ADB7BEB712969C938E9311978091CA05CF
:1008D0009091CB05A091CC05B091CD05EDB7FEB7B9
:1008E00083839483A583B6830E94120E8DB79EB72F
:1008F00006960FB6F8949EBF0FBE8DBFA0CE8EE8B1
:1009000092E0BE010E94D20D282F392F211531050A
:1009100051F5ADB7BEB718970FB6F894BEBF0FBE6E
:10092000ADBFEDB7FEB7319680EA92E012969C9388
:100930008E9311978091CA059091CB05A091CC051B
:10094000B091CD0582839383A483B583D783C68377
:100950000E94120EEDB7FEB738960FB6F894FEBFA0
:100960000FBEEDBF6CCE80EC92E0BE010E94D20DB6
:10097000282F392F2115310521F500D000D000D0C6
:1009800080EA92E0ADB7BEB712969C938E93119712
:100990008091C6059091C705A091C805B091C90581
:1009A000EDB7FEB783839483A583B6830E94120EAE
:1009B0008DB79EB706960FB6F8949EBF0FBE8DBF3B
:1009C0003ECE8FEC92E0BE010E94D20D282F392F2F
:1009D0002115310551F5ADB7BEB718970FB6F8948C
:1009E000BEBF0FBEADBFEDB7FEB7319681EE92E050
:1009F00012969C938E9311978091CA059091CB0586
:100A0000A091CC05B091CD0582839383A483B58357
:100A1000D783C6830E94120EEDB7FEB738960FB685
:100A2000F894FEBF0FBEEDBF0ACE81E093E0BE0199
:100A30000E94D20D282F392F2115310509F4FFCD41
:100A40008AE093E0BE010E94D20D282F392F211594
:100A5000310571F400D083E193E0ADB7BEB71296D3
:100A60009C938E9311970E94120E0F900F90E7CDDA
:100A70008BE193E0BE010E94D20D282F392F211562
:100A8000310509F4DCCD88E293E0BE010E94D20D6D
:100A9000282F392F2115310561F400D083E193E02F
:100AA000EDB7FEB7928381830E94120E0F900F90D4
:100AB000C6CD88E393E0BE010E94D20D282F392FC6
:100AC0002115310589F40E940F0662E070E00E9452
:100AD0008C0C8130910511F40E9420068DE393E087
:100AE0000E94C7050E94EA0C86E493E0BE010E94C2
:100AF000D20D282F392F2115310529F48BE493E0ED
:100B00000E94C7059CCD8AE895E00E94C70597CD55
:100B10001092C50083E38093C4001092C00088E166
:100B20008093C10086E08093C20083ED95E09093AE
:100B3000C7068093C6060895E0ECF0E0908195FF2B
:100B4000FDCF8093C6000895CF93C82F8A3019F443
:100B50008DE00E949C058C2F0E949C05CF910895EA
:100B6000E0ECF0E080818823ECF78091C6000895E6
:100B7000CF93DF93EC018881882331F021960E9486
:100B80009C0589918823D9F7DF91CF9108950E9420
:100B9000B8058DE00E949C058AE00E949C0508959E
:100BA000AF92BF92CF92DF92EF92FF920F931F937B
:100BB000CF93DF935C01D42F6C01EE24FF248B01D3
:100BC000015010400E94B005C82FDD2311F00E9493
:100BD0009C05CD3031F4DD2371F08AE00E949C0544
:100BE0000AC0E016F10674F7F601C1936F0108948C
:100BF000E11CF11CE7CFEA0CFB1CF7011082DF912E
:100C0000CF911F910F91FF90EF90DF90CF90BF9009
:100C1000AF9008958091C2069091C3060895809187
:100C20007806909179060895239A249A259AE9E600
:100C3000F0E080818160808381E08CBB2D9A0895F3
:100C4000CF93DF93809178069091790601969093E7
:100C50007906809378068091C2069091C30601962A
:100C60009093C3068093C20681EE95E00E94B8057A
:100C70002D982B9A0E941101DC01CB0100D000D0ED
:100C800000D026EE35E0EDB7FEB7328321838383B3
:100C90009483A583B6830E94120E87EA91E601979A
:100CA000F1F700C00000ADB7BEB716960FB6F894C6
:100CB000BEBF0FBEADBFC7E0D6E022C02C9A8FE307
:100CC0009DE0A3E081509040A040E1F700C000000B
:100CD0002C988FE39DE0A3E081509040A040E1F785
:100CE00000C000008091C0069091C10601969093CB
:100CF000C1068093C00680FD03C0CE010E94B805E6
:100D00000E94110120E030E040EA51E40E94B70760
:100D10008823A4F21092C1061092C0060E9411010D
:100D2000DC01CB0100D000D000D029E036E0EDB7E7
:100D3000FEB73283218383839483A583B6830E9485
:100D4000120E8DB79EB706960FB6F8949EBF0FBED3
:100D50008DBF89E296E00E94C7058FE39DE0A3E086
:100D600081509040A040E1F700C00000DF91CF919A
:100D70000895CF93DF938091C2069091C3060196A8
:100D80009093C3068093C20680917806909179066D
:100D90000196909379068093780681EE95E00E9403
:100DA000B8052B982D9A0E941101DC01CB0100D0CF
:100DB00000D000D029E036E0EDB7FEB732832183C2
:100DC00083839483A583B6830E94120E87EA91E6FB
:100DD0000197F1F700C00000ADB7BEB716960FB689
:100DE000F894BEBF0FBEADBFC7E0D6E022C02C9ABC
:100DF0008FE39DE0A3E081509040A040E1F700C068
:100E000000002C988FE39DE0A3E081509040A0402B
:100E1000E1F700C000008091C0069091C1060196E4
:100E20009093C1068093C00680FD03C0CE010E944E
:100E3000B8050E94110120E030E040EA50E40E9431
:100E400099081816A4F21092C1061092C0060E94CA
:100E50001101DC01CB0100D000D000D029E036E048
:100E6000EDB7FEB73283218383839483A583B68352
:100E70000E94120E8DB79EB706960FB6F8949EBFCD
:100E80000FBE8DBF89E496E00E94C7058FE39DE009
:100E9000A3E081509040A040E1F700C00000DF9146
:100EA000CF9108955058BB27AA270ED008C1F9D07A
:100EB00030F0FED020F031F49F3F11F41EF4EEC06C
:100EC0000EF4E095E7FBE4C0E92F0AD180F3BA17EE
:100ED000620773078407950718F071F49EF522C125
:100EE0000EF4E0950B2EBA2FA02D0B01B901900145
:100EF0000C01CA01A0011124FF27591B99F0593F89
:100F000050F4503E68F11A16F040A22F232F342FD0
:100F10004427585FF3CF469537952795A795F0401E
:100F20005395C9F77EF41F16BA0B620B730B840B33
:100F3000BAF09150A1F0FF0FBB1F661F771F881FEB
:100F4000C2F70EC0BA0F621F731F841F48F4879543
:100F500077956795B795F7959E3F08F0B3CF939532
:100F6000880F08F09927EE0F9795879508956CD014
:100F700008F481E00895BCD088F09F5790F0B92F15
:100F80009927B751A0F0D1F0660F771F881F991FDE
:100F90001AF0BA95C9F712C0B13081F0C3D0B1E0F0
:100FA0000895C0C0672F782F8827B85F39F0B93F00
:100FB000CCF3869577956795B395D9F73EF49095E0
:100FC0008095709561957F4F8F4F9F4F0895E8945E
:100FD00009C097FB3EF490958095709561957F4F81
:100FE0008F4F9F4F9923A9F0F92F96E9BB2793952F
:100FF000F695879577956795B795F111F8CFFAF43F
:10100000BB0F11F460FF1BC06F5F7F4F8F4F9F4F6F
:1010100016C0882311F096E911C0772321F09EE8CD
:10102000872F762F05C0662371F096E8862F70E033
:1010300060E02AF09A95660F771F881FDAF7880F0D
:101040009695879597F90895990F0008550FAA0B63
:10105000E0E8FEEF16161706E807F907C0F01216CB
:101060001306E407F50798F0621B730B840B950BCE
:1010700039F40A2661F0232B242B252B21F4089523
:101080000A2609F4A140A6958FEF811D811D0895C0
:1010900097F99F6780E870E060E008959FEF80EC2B
:1010A000089500240A9416161706180609060895CE
:1010B00000240A9412161306140605060895092E34
:1010C0000394000C11F4882352F0BB0F40F4BF2BA3
:1010D00011F460FF04C06F5F7F4F8F4F9F4F0895E3
:1010E00057FD9058440F551F59F05F3F71F04795D9
:1010F000880F97FB991F61F09F3F79F087950895BE
:10110000121613061406551FF2CF4695F1DF08C0DC
:10111000161617061806991FF1CF869571056105F9
:1011200008940895E894BB2766277727CB0197F9A1
:1011300008958ADF08F48FEF08950BD0C0CFB1DF98
:1011400028F0B6DF18F0952309F0A2CFA7CF11241D
:10115000EACFC6DFA0F3959FD1F3950F50E0551F5E
:10116000629FF001729FBB27F00DB11D639FAA27FC
:10117000F00DB11DAA1F649F6627B00DA11D661F4B
:10118000829F2227B00DA11D621F739FB00DA11D6C
:10119000621F839FA00D611D221F749F3327A00D26
:1011A000611D231F849F600D211D822F762F6A2FC2
:1011B00011249F5750408AF0E1F088234AF0EE0F47
:1011C000FF1FBB1F661F771F881F91505040A9F754
:1011D0009E3F510570F05CCFA6CF5F3FECF3983E89
:1011E000DCF3869577956795B795F795E7959F5FBB
:1011F000C1F7FE2B880F911D9695879597F9089555
:10120000A5E1B0E0E6E0F9E00C949F0C4C017F878B
:101210006E87FC0117821682838181FD04C076C32C
:101220004C855D8504C01E010894211C311CF4010D
:101230009381EE85FF8593FD859193FF8191FF87D3
:10124000EE87882309F45EC3853241F493FD8591CE
:1012500093FF8191FF87EE87853259F490E0B401C6
:101260004C8B5D8B0E94E60D4C895D895D874C87B8
:10127000D7CFFF24DD2410E01032B0F48B3269F0B8
:101280008C3228F4803251F0833271F40BC08D32ED
:1012900039F0803349F411602CC01260146029C009
:1012A000186027C0106125C017FD2EC0282F2053BD
:1012B0002A3098F416FF08C08F2D880FF82EFF0CE7
:1012C000FF0CF80EF20E15C08D2D880FD82EDD0CF8
:1012D000DD0CD80ED20E10620CC08E3221F416FD39
:1012E00011C3106406C08C3611F4106802C0883631
:1012F00059F4EE85FF8593FD859193FF8191FF87DA
:10130000EE87882309F0B8CF982F9554933018F4BE
:101310001061805E06C0982F9556933008F0A2C1E8
:101320001F7E16FD02C0E6E0FE2E1F73853611F407
:10133000106406C0863611F4106802C0F110FA94E9
:1013400017FF07C0FBE3FF1548F0EF2CE39427E0FD
:101350000DC027E02F1530F02F2D07C027E07CE3CC
:10136000E72E04C027E067E0F62EEE24CA010496BB
:101370009D878C87FA016081718182819381A101AF
:101380000E2D0E94EF0C5C01C9802C2D30E0398BB2
:10139000288BC0FE03C0388933FF06C011FD06C08C
:1013A00012FF06C000E205C00DE203C00BE201C05F
:1013B00000E0888999898C709070009709F43CC08E
:1013C000002311F084E001C083E08D1558F4D81A91
:1013D00013FD09C080E290E0B4010E94E60DDA94AA
:1013E000C9F701C0DD24002329F0802F90E0B4016B
:1013F0000E94E60D888983FD05C03CE6E32E30E0BF
:10140000F32E11C028E6E22E20E0F22E0CC00115CA
:10141000110509F0805290E0B4010E94E60D089495
:10142000E11CF11C04C0012F10E000711070F701E5
:101430008491882361F763C217FF0EC0EA0CF88914
:10144000F4FF04C08A81813309F4EA941E144CF538
:1014500028E02E1548F12CC016FD2AC08F2D90E0F3
:101460008A159B0544F03CEFA3163FEFB3061CF032
:10147000106801C0FA94FF2049F0E2E0F0E0EC0FC0
:10148000FD1FEF0DF11D80818033A1F317FF10C008
:10149000EF2CE3948F2D90E0A816B90644F4FA18C7
:1014A00007C0EE24E39404C098E0E92E01C0FF24B5
:1014B00017FF07C01A141B043CF495012F5F3F4F20
:1014C00005C025E030E002C021E030E0002311F04B
:1014D0002F5F3F4FFF2029F08F2D90E00196280FBE
:1014E000391F8D2D90E02817390714F4D21A01C046
:1014F000DD24612E7724C30189709070009749F430
:1015000006C080E290E0B4010E94E60DDA94DD208E
:10151000C1F7002329F0802F90E0B4010E94E60D6E
:1015200063FC09C006C080E390E0B4010E94E60DB0
:10153000DA94DD20C1F717FF48C08501B7FE02C06D
:1015400000E010E06624772495012E1931093B8BC9
:101550002A8B2501401A510A420C531C6F2D70E052
:10156000EE24FF24E61AF70A3FEF0F3F130729F492
:101570008EE290E0B4010E94E60DA016B10654F090
:101580002A893B89201731072CF4F201E60DF71D5B
:10159000818101C080E3015010400894611C711CDE
:1015A0000E151F052CF090E0B4010E94E60DDCCF73
:1015B0000A151B0541F49A81963320F4953319F4EA
:1015C000388934FF81E390E049C08A81813311F08A
:1015D0009FEEC92290E0B4010E94E60DFF2089F041
:1015E0008EE290E0B4010E94E60D12E0F101E10FFD
:1015F000F11D1F5F808190E0B4010E94E60DFA9416
:10160000A9F764FE03C085E490E002C085E690E09F
:10161000B4010E94E60DB7FC05C0A114B10441F469
:10162000C4FE06C0B094A194B108B3948DE201C089
:101630008BE290E0B4010E94E60D80E305C08F5F6D
:10164000E6EFFFEFAE0EBF1EFAE0AF16B104BCF737
:1016500090E0B4010E94E60DC501C096B4010E945D
:10166000E60D4DC1833631F0833789F0833509F0BB
:1016700059C022C09A012E5F3F4F3D872C87FA0147
:101680008081898381E0E82EF12C510113C09A01F9
:101690002E5F3F4F3D872C87FA01A080B18016FF57
:1016A00003C06F2D70E002C06FEF7FEFC5010E9495
:1016B000DB0D7C011F7714C09A012E5F3F4F3D87E1
:1016C0002C87FA01A080B18016FF03C06F2D70E057
:1016D00002C06FEF7FEFC5010E94C70D7C0110684B
:1016E00013FD1CC006C080E290E0B4010E94E60D2C
:1016F000DA948D2D90E0E816F906A8F30FC0F501F5
:1017000017FD859117FF81915F0190E0B4010E9460
:10171000E60DD110DA940894E108F108E114F1041F
:1017200071F7EDC0843611F0893671F59A0117FF13
:101730000AC02C5F3F4F3D872C87FA018081918141
:10174000A281B3810BC02E5F3F4F3D872C87FA01EA
:1017500080819181AA2797FDA095BA2F012F0F763E
:10176000B7FF08C0B095A095909581959F4FAF4F5A
:10177000BF4F0068BC01CD01A1012AE030E00E940A
:10178000270EE82EE21841C0853721F41F7E2AE09B
:1017900030E020C0197F8F36A9F0803720F48835DB
:1017A00009F0B0C00BC0803721F0883709F0AAC01B
:1017B00001C0106114FF09C0146007C014FF08C005
:1017C000166006C028E030E005C020E130E002C02D
:1017D00020E132E0CA0117FF09C004969D878C877B
:1017E000FA01608171818281938108C002969D8790
:1017F0008C87FA016081718180E090E0A1010E94F4
:10180000270EE82EE218012F0F7706FF09C00E7F82
:10181000EF1430F404FF06C002FD04C00F7E02C0C6
:101820001E2D01C01F2D802F90E004FF0CC0FE0173
:10183000EE0DF11D2081203311F4097E09C002FF55
:1018400006C01E5F05C086789070009709F01F5F84
:10185000A02EBB2403FD12C000FF0DC0FE2C1D15E1
:1018600050F4FD0CF11A1D2D06C080E290E0B40189
:101870000E94E60D1F5F1D15C0F304C01D1510F476
:10188000D11A01C0DD24A4FE0FC080E390E0B401B2
:101890000E94E60DA2FE1FC0A1FE03C088E590E0F5
:1018A00010C088E790E00DC0C50186789070009761
:1018B00091F0A1FC02C080E201C08BE207FD8DE245
:1018C00090E0B4010E94E60D06C080E390E0B40110
:1018D0000E94E60DFA94EF14C0F3EA94F101EE0DC4
:1018E000F11D808190E0B4010E94E60DEE20A9F781
:1018F00006C080E290E0B4010E94E60DDA94DD209B
:10190000C1F78ECCF4018681978102C08FEF9FEFE3
:101910006596E2E10C94BB0C97FB092E07260AD0D2
:1019200077FD04D043D006D000201AF4709561955D
:101930007F4F0895F6F7909581959F4F08952F92C8
:101940003F924F925F926F927F928F929F92AF924F
:10195000BF92CF92DF92EF92FF920F931F93CF939C
:10196000DF93CDB7DEB7CA1BDB0B0FB6F894DEBF33
:101970000FBECDBF09942A88398848885F846E8459
:101980007D848C849B84AA84B984C884DF80EE80A3
:10199000FD800C811B81AA81B981CE0FD11D0FB6AC
:1019A000F894DEBF0FBECDBFED010895AA1BBB1B8F
:1019B00051E107C0AA1FBB1FA617B70710F0A61B4F
:1019C000B70B881F991F5A95A9F780959095BC0170
:1019D000CD01089581E090E0F8940C94850E2830B4
:1019E00008F027E03327DA01990F311D87FD916058
:1019F00000966105710539F432602E5F3D9330E346
:101A00002A95E1F708959F3F30F080387105610510
:101A100009F03C5F3C5F3D93913008F08068911D78
:101A2000DF93CF931F930F93FF92EF92192F987F1D
:101A30009695E92F96959695E90FFF27E653FF4F68
:101A400099273327EE24FF24A701E7010590089486
:101A5000079428F4360FE71EF81E491F511D660F24
:101A6000771F881F991F0694A1F70590079428F403
:101A7000E70EF81E491F561FC11D770F881F991FBB
:101A8000661F0694A1F70590079428F4F80E491FE5
:101A9000561FC71FD11D880F991F661F771F0694F9
:101AA000A1F70590079420F4490F561FC71FD81FB0
:101AB000990F661F771F881F0694A9F784911095C8
:101AC000177041F0D695C79557954795F794E794C9
:101AD0001A95C1F7E0E7F0E06894159015913591FB
:101AE0006591959105907FE27395E118F10A430B9A
:101AF000560BC90BD009C0F7E10CF11E431F561F4E
:101B0000C91FD01D7EF4703311F48A95E6CFE89496
:101B1000015030F0080F0AF40027021708F4202FB4
:101B20002395022F7A3328F079E37D932A95E9F7FC
:101B300010C07D932A9589F60694979567953795F9
:101B400017951794E118F10A430B560BC90BD009EE
:101B500098F023957E9173957A3308F070E37C9327
:101B60002013B8F77E9170617D9330F0839571E317
:101B70007D9370E32A95E1F71124EF90FF900F9188
:101B80001F91CF91DF91992787FD90950895FC01D2
:101B90000590615070400110D8F7809590958E0F98
:101BA0009F1F0895FB01DC018D91019080190110A8
:101BB000D9F3990B0895FC01615070400190011018
:101BC000D8F7809590958E0F9F1F08950F931F93C0
:101BD000CF93DF938C01EB018B8181FF1BC082FFD0
:101BE0000DC02E813F818C819D812817390764F4B7
:101BF000E881F9810193F983E88306C0E885F985D6
:101C0000802F0995009731F48E819F8101969F83E3
:101C10008E8302C00FEF1FEFC801DF91CF911F919C
:101C20000F910895A0E0B0E0E8E1FEE00C94AF0C65
:101C3000FE013596619171918091C6069091C7061B
:101C4000AF010E9400092096E2E00C94CB0CFA014F
:101C5000AA27283051F1203181F1E8946F936E7FEB
:101C60006E5F7F4F8F4F9F4FAF4FB1E03ED0B4E0DC
:101C70003CD0670F781F891F9A1FA11D680F791F1D
:101C80008A1F911DA11D6A0F711D811D911DA11D2E
:101C900020D009F468943F912AE0269F112430193E
:101CA000305D3193DEF6CF010895462F4770405DD9
:101CB0004193B3E00FD0C9F7F6CF462F4F70405D88
:101CC0004A3318F0495D31FD4052419302D0A9F7E3
:101CD000EACFB4E0A6959795879577956795BA95DD
:101CE000C9F700976105710508959B01AC010A2EA3
:101CF00006945795479537952795BA95C9F7620F7A
:0E1D0000731F841F951FA01D0895F894FFCF38
:101D0E0025692074656D70657261747575723D20FC
:101D1E002520362E32660A00256920696E74656E9E
:101D2E007369746569743D25640A00576174206B8C
:101D3E00616E20696B20766F6F72207520646F65FF
:101D4E006E3F2000554E524F4C4C005A6F6E6E65D2
:101D5E0073636865726D20697320616C2075697498
:101D6E006765726F6C642100524F4C4C5550005A8F
:101D7E006F6E6E6573636865726D20697320616C3A
:101D8E00206F706765726F6C642100535441545517
:101D9E0053004745545F54454D5000323032205465
:101DAE00454D503D202520362E3266200A004745EF
:101DBE00545F4752454E535F54454D5000323032BA
:101DCE00204752454E535F54454D503A20252036FC
:101DDE002E3266200A005345545F4752454E535FDC
:101DEE0054454D50285A2900323033204752454E23
:101DFE00535F54454D503A2025362E3266202D3EE7
:101E0E002025362E326620004745545F4C49474800
:101E1E005400323032204C49474854202569200A5C
:101E2E00004745545F4752454E535F4C494748540F
:101E3E0000323032204752454E535F4C494748548A
:101E4E003A202520362E3266200A005345545F472D
:101E5E0052454E535F4C49474854285A2900323058
:101E6E0033204752454E535F4C494748543A20253C
:101E7E00362E3266202D3E2025362E326620004725
:101E8E0045545F4D41585F554E524F4C4C00534593
:101E9E00545F4D41585F554E524F4C4C285A2900B5
:101EAE00323033204D41585F554E524F4C4C3A20F4
:101EBE0025362E3266202D3E2025362E3266200007
:101ECE004745545F4D494E5F554E524F4C4C005353
:101EDE0045545F4D494E5F554E524F4C4C285A2932
:101EEE0000323033204D494E5F554E524F4C4C3AD6
:101EFE002025362E3266202D3E2025362E326620A7
:101F0E00004745545F4E414D45005345545F4E4189
:101F1E004D4500323030204F4B20004745545F4C2A
:101F2E004F434154494F4E005345545F4C4F43412C
:101F3E0054494F4E285A290045786974003232317F
:101F4E0020427965210048656C70002D2D2D2D2DB8
:101F5E002D2D2D2D2D2D2D2D2D2D2D2D2D5A6F6EF3
:101F6E006E6573636865726D2D2D2D2D2D2D2D2DA6
:101F7E002D2D2D2D2D2D2D2D2D2D0A0D554E524F36
:101F8E004C4C09094C61617420686574207A6F6E3F
:101F9E006E6573636865726D20756974726F6C6CB3
:101FAE00656E0A0D524F4C4C555009094C616174C7
:101FBE0020686574207A6F6E6E6573636865726DE6
:101FCE00206F70726F6C6C656E0A0A0D535441541B
:101FDE0055532D2D2D2D2D2D2D2D2D2D2D2D2D2DD5
:101FEE002D2D2D2D2D2D53656E736F72732D2D2D61
:101FFE002D2D2D2D2D2D2D2D2D2D2D2D2D2D2D2D03
:10200E002D2D0A0D4745545F54454D50090947651E
:10201E006566742074656D70657261747575722075
:10202E0076616E20646174206D6F6D656E742074C0
:10203E00657275670A0A0D4745545F4752454E5300
:10204E005F54454D505345545F4752454E535F5470
:10205E00454D50285A294745545F4C4947485447E7
:10206E0045545F4752454E535F4C4947485453457C
:10207E00545F4752454E535F4C49474854285A299E
:10208E004745545F4D41585F554E524F4C4C53454A
:10209E00545F4D41585F554E524F4C4C285A29476C
:1020AE0045545F4D494E5F554E524F4C4C5345541F
:1020BE005F4D494E5F554E524F4C4C285A292D2D8F
:1020CE002D2D2D2D2D2D2D2D2D2D2D2D2D2D2D2D32
:1020DE002D496E666F726D6174696F6E2D2D2D2D8B
:1020EE002D2D2D2D2D2D2D2D2D2D2D2D2D2D0A0D55
:1020FE004745545F4E414D455345545F4E414D4506
:10210E00285A294745545F4C4F434154494F4E532B
:10211E0045545F4C4F434154494F4E285A292D2D5B
:10212E002D2D2D2D2D2D2D2D2D2D2D2D2D2D2D2DD1
:10213E002D4F7665726967652D2D2D2D2D2D2D2D2B
:10214E002D2D2D2D2D2D2D2D2D2D0A0D48656C701F
:10215E0009090957656572676565667420616C6C5F
:10216E006520636F6D6D616E646F27730A0D457820
:10217E006974090909536C75697420686574207057
:10218E00726F6772616D6D610A0035313020436F79
:10219E006D6D616E646F206E696574206765766F14
:1021AE006E64656E2120547970652048656C7020D0
:1021BE00766F6F7220616C6C6520636F6D6D616EF2
:1021CE00646F27730A00CDCC4C3D00004842B4002A
:1021DE0000C8410000000200000000A4050000003D
:1021EE000032353020005A6F6E6E6573636865720B
:1021FE006D756974726F6C6C656E202520362E328B
:10220E006620636D200A002E005A6F6E6E65736332
:10221E006865726D6F70726F6C6C656E20252036FE
:10222E002E326620636D200A000A0D323031205A9C
:10223E006F6E6E6573636865726D20697320756964
:10224E00746765726F6C640A000A0D323031205A61
:10225E006F6E6E6573636865726D206973206F7043
:08226E006765726F6C640A00E1
:00000001FF
