:100000000C94D3000C94F0000C9406020C94F000B5
:100010000C94F0000C94F0000C94F0000C94F000A0
:100020000C94F0000C94F0000C94F0000C94F00090
:100030000C94F0000C94F0000C94D2010C94F0009D
:100040000C94F0000C94F0000C94F0000C94F00070
:100050000C94F0000C94F0000C94F0000C94F00060
:100060000C94F0000C94F0006E616E00696E6600F6
:10007000494E46494E4954594E414E0000204100D8
:1000800000C84200401C4620BCBE4CCA1B0E5AAEE3
:10009000C59D74CDCCCC3D0AD7233C17B7D138775A
:1000A000CC2B329595E6241FB14F0A00407A10F30D
:1000B0005A00A0724E18090010A5D4E80000E87696
:1000C00048170000E40B54020000CA9A3B000000ED
:1000D000E1F505000080969800000040420F000006
:1000E00000A08601000000102700000000E80300C7
:1000F0000000006400000000000A00000000000191
:1001000000000000002C76D888DC674F0823DFC190
:10011000DFAE59E1B1B796E5E3E453C63AE651994B
:100120007696E8E6C28426EB898C9B62ED407C6F74
:10013000FCEFBC9C9F40F2BAA56FA5F490055A2A2B
:10014000F75C936B6CF9676DC11BFCE0E40D47FE37
:10015000F520E6B500D0ED902E030094357705002C
:1001600080841E080000204E0A000000C80C3333B3
:1001700033330F986E12831141EF8D2114893BE6C2
:100180005516CFFEE6DB18D1844B381BF77C1D904B
:100190001DA4BBE424203284725E228100C9F124B4
:1001A000ECA1E53D270011241FBECFEFD8E0DEBF54
:1001B000CDBF16E0A0E0B1E0E4EAF3E202C00590B2
:1001C0000D92AC3EB107D9F718E0ACEEB6E001C035
:1001D0001D92A032B107E1F70E94C2010C94D01128
:1001E0000C94000087E880937A0080E280937E0080
:1001F0000895EAE7F0E0808180648083808186FD55
:10020000FDCF80917900089585E480937C00EAE732
:10021000F0E0808180648083808186FDFDCF8091C5
:10022000780090917900089582E680937C00EAE757
:10023000F0E0808180648083808186FDFDCF8091A5
:100240007900089587EF8AB98FEF84B9089584E023
:100250008093690082E08DBB1092800008958091A8
:10026000EC069091ED0608957894289A8FE39CE926
:100270000197F1F700C0000028988FE39CE90197EF
:10028000F1F700C000006091F4067091F5068091CE
:10029000F6069091F70620E030E040E05FE30E9430
:1002A000FA0929E93BEB46E15BE30E94FA09262FB4
:1002B000372FF82FE92F462F572F682F792F40938C
:1002C0000001509301016093020170930301822F9A
:1002D000932FAF2FBE2FBC01CD0108950E940401C2
:1002E000682F70E080E090E00E94460920E030E056
:1002F00040EA5BE30E94FA09262F372FF82FE92FF7
:10030000462F572F682F792F4093FC065093FD06F8
:100310006093FE067093FF06822F932FAF2FBE2FA0
:10032000BC01CD0120E030E040E05FE30E94DB084B
:1003300020E030E048EC52E40E94FA09262F372FE3
:10034000F82FE92F462F572F682F792F409320073A
:10035000509321076093220770932307822F932FD6
:10036000AF2FBE2FBC01CD0108950E941401089546
:1003700082E084BD9CE997BD80936E0085B5856061
:1003800085BD08950E9415080E94B8010E948E073D
:100390000E94F2000E9422010E94270178940E948C
:1003A0000F05FDCF1F920F920FB60F9211248F935E
:1003B0009F938091EE069091EF0601969093EF0641
:1003C0008093EE068091EE069091EF0685369105BA
:1003D0006CF08091EC069091ED0601969093ED06FD
:1003E0008093EC061092EF061092EE068091F006D4
:1003F0009091F10601969093F1068093F0069F91FB
:100400008F910F900FBE0F901F9018951F920F9213
:100410000FB60F9211242F933F934F935F936F93D7
:100420007F938F939F93AF93BF93CF93DF93EF937C
:10043000FF938091F2069091F30681309105D1F4FB
:1004400010928100C4E8D0E06881798180E090E07A
:100450000E944409DC01CB018093F4069093F506D9
:10046000A093F606B093F706198218821092F3064D
:100470001092F2068091F2069091F306009759F4DB
:10048000E1E8F0E080818160808381E090E09093FA
:10049000F3068093F206FF91EF91DF91CF91BF9128
:1004A000AF919F918F917F916F915F914F913F910C
:1004B0002F910F900FBE0F901F9018950F931F93C1
:1004C000CF93DF93C091F806D091F90620911C01DB
:1004D00030911D012C173D078CF08C010C0F1D1F56
:1004E000F80161918F01CE010E94BB11219680918C
:1004F0001C0190911D018C179D0794F7DF91CF91FE
:100500001F910F9108950F931F93CF93DF93C09185
:10051000F806D091F90680911C0190911D018C176D
:100520009D078CF08E010E59184FCE010E94B31119
:10053000F80181938F01219680911C0190911D01FA
:100540008C179D0794F782E697E0DF91CF911F917A
:100550000F9108950F931F93CF93DF938C01C09158
:100560000E01D0910F0180911A0190911B019923E6
:10057000CCF080E090E0F801E80FF91FCE01608137
:100580000E94BB11219680910E0190910F019E0156
:10059000281B390BC90120911A0130911B01281722
:1005A00039074CF7DF91CF911F910F910895CF92AA
:1005B000DF92EF92FF920F931F93CF93DF93E09020
:1005C0000E01F0900F0180911A0190911B01992367
:1005D000ECF001E010E0C0E0D0E00F2EF3E3CF2E0E
:1005E000F7E0DF2EF02DC7010E94B311CC0DDD1D09
:1005F00088830894E11CF11CE8010F5F1F4F809174
:100600001A0190911B018C179D076CF783E397E00B
:10061000DF91CF911F910F91FF90EF90DF90CF90DE
:1006200008950F931F93CF93DF938C01C0910C011A
:10063000D0910D0180911801909119019923CCF06E
:1006400080E090E0F801E80FF91FCE0160810E9480
:10065000BB11219680910C0190910D019E01281BE8
:10066000390BC90120911801309119012817390758
:100670004CF7DF91CF911F910F910895CF92DF92A8
:10068000EF92FF920F931F93CF93DF93E0900C01B3
:10069000F0900D0180911801909119019923ECF0CF
:1006A00001E010E0C0E0D0E00F2EFEE8CF2EF7E032
:1006B000DF2EF02DC7010E94B311CC0DDD1D888304
:1006C0000894E11CF11CE8010F5F1F4F8091180195
:1006D000909119018C179D076CF78EE897E0DF91D8
:1006E000CF911F910F91FF90EF90DF90CF900895E1
:1006F0000F931F93CF93DF938C01C0910A01D09188
:100700000B0180911601909117019923CCF080E0A4
:1007100090E0F801E80FF91FCE0160810E94BB1143
:10072000219680910A0190910B019E01281B390BA3
:10073000C9012091160130911701281739074CF78C
:10074000DF91CF911F910F910895CF92DF92EF9299
:10075000FF920F931F93CF93DF93E0900A01F090E5
:100760000B0180911601909117019923ECF001E0A3
:1007700010E0C0E0D0E00F2EFFE5CF2EF7E0DF2E37
:10078000F02DC7010E94B311CC0DDD1D88830894A4
:10079000E11CF11CE8010F5F1F4F80911601909141
:1007A00017018C179D076CF78FE597E0DF91CF91CC
:1007B0001F910F91FF90EF90DF90CF9008950F93CE
:1007C0001F93CF93DF938C01C0910801D091090151
:1007D00080911401909115019923CCF080E090E074
:1007E000F801E80FF91FCE0160810E94BB1121962C
:1007F00080910801909109019E01281B390BC901C4
:100800002091140130911501281739074CF7DF9119
:10081000CF911F910F910895EF92FF920F931F9325
:10082000CF93DF93E0900801F090090180911401CB
:10083000909115019923BCF001E010E0C0E0D0E0F8
:10084000C7010E94B311CA56D84F88830894E11C8F
:10085000F11CE8010F5F1F4F809114019091150169
:100860008C179D076CF786E997E0DF91CF911F9178
:100870000F91FF90EF9008950F931F93CF93DF9305
:100880008C01C0910601D0910701809112019091D5
:1008900013019923CCF080E090E0F801E80FF91FF4
:1008A000CE0160810E94BB1121968091060190913A
:1008B00007019E01281B390BC901209112013091BB
:1008C0001301281739074CF7DF91CF911F910F9132
:1008D0000895EF92FF920F931F93CF93DF93E090D1
:1008E0000601F09007018091120190911301992364
:1008F000BCF001E010E0C0E0D0E0C7010E94B311FD
:10090000CC5DD84F88830894E11CF11CE8010F5F8F
:100910001F4F80911201909113018C179D076CF766
:1009200084E297E0DF91CF911F910F91FF90EF90BC
:1009300008950F931F93CF93DF938C01C09104010F
:10094000D091050180911001909111019923CCF073
:1009500080E090E0F801E80FF91FCE0160810E946D
:10096000BB11219680910401909105019E01281BE5
:10097000390BC90120911001309111012817390755
:100980004CF7DF91CF911F910F910895EF92FF9255
:100990000F931F93CF93DF93E0900401F090050134
:1009A00080911001909111019923BCF001E010E0B9
:1009B000C0E0D0E0C7010E94B311CC53D84F888368
:1009C0000894E11CF11CE8010F5F1F4F809110019A
:1009D000909111018C179D076CF784EC97E0DF91E3
:1009E000CF911F910F91FF90EF90089588EF97E0BE
:1009F00068E270E00E94B910E82FF92FDF010D9036
:100A00000020E9F71197AE1BBF0BA80FB91F119774
:100A10001C9201969093F5078093F40708952F9206
:100A20003F924F925F926F927F928F929F92AF927E
:100A3000BF92CF92DF92EF92FF920F931F93CF93CB
:100A4000DF938EE191E00E94BE07C8EFD7E0CE01B0
:100A50006EE170E041E00E94D6078AE696E0BE01B2
:100A60000E94C410282F392F21153105B9F082E3D7
:100A700091E00E94CD07DF91CF911F910F91FF90E0
:100A8000EF90DF90CF90BF90AF909F908F907F902E
:100A90006F905F904F903F902F90089584E491E085
:100AA0000E94271185E591E00E94CD070DE611E037
:100AB000C8EFD7E00F2EFAE8EF2EF1E0FF2EF02D71
:100AC0000F2EF2EBAF2EF1E0BF2EF02D0F2EF9ED31
:100AD000CF2EF1E0DF2EF02D0F2EFFEE8F2EF1E066
:100AE0009F2EF02D0F2EFBE06F2EF2E07F2EF02DCB
:100AF0000F2EFAE24F2EF2E05F2EF02D0F2EF6E5CC
:100B00002F2EF2E03F2EF02DC8010E94BE07CE012D
:100B10006EE170E041E00E94D607C701BE010E946D
:100B2000C410282F392F21153105A1F40E94100877
:100B300062E070E00E94E90D8130910521F481E9C5
:100B400091E00E94CD070E94100880FD1FC00E9406
:100B500021081CC0C501BE010E94C410282F392FD6
:100B60002115310599F40E94100880FD04C089EB1D
:100B700091E00E94CD070E94100862E070E00E94A0
:100B8000E90D8130910511F40E947D08C601BE0176
:100B90000E94C410282F392F21153105B9F40E9465
:100BA000100800D000D020EE31E0ADB7BEB71296ED
:100BB0003C932E93119714969C938E9313970E94B7
:100BC00012110F900F900F900F909ECFC401BE0195
:100BD0000E94C410282F392F21153105E1F40E94FD
:100BE0006E01DC01CB0100D000D000D028EF31E055
:100BF000EDB7FEB73283218383839483A583B683C5
:100C00000E9412118DB79EB706960FB6F8949EBF3C
:100C10000FBE8DBF79CFC301BE010E94C410282F23
:100C2000392F2115310549F48AE192E00E94BE076F
:100C30000E94A5030E94CD0767CFC201BE014EE00E
:100C400050E00E94CD10282F392F2115310571F465
:100C500000D08CE392E0ADB7BEB712969C938E9312
:100C600011970E9412110F900F904ECFC101BE013B
:100C70000E94C410282F392F21153105C1F40E947C
:100C8000B50100D000D0EDB7FEB7319620E632E0D6
:100C9000ADB7BEB712963C932E9311978283138201
:100CA0000E9412110F900F900F900F902DCF8FE692
:100CB00092E0BE010E94C410282F392F2115310562
:100CC00049F48FE792E00E94BE070E940C040E9444
:100CD000CD071ACF80E992E0BE014FE050E00E94BC
:100CE000CD10282F392F2115310561F400D083EA6A
:100CF00092E0EDB7FEB7928381830E9412110F90AC
:100D00000F9002CF82EC92E0BE010E94C410282F07
:100D1000392F2115310549F481ED92E00E94BE077B
:100D20000E94C6040E94CD07EFCE82EE92E0BE0183
:100D30004FE050E00E94CD10282F392F21153105AA
:100D400071F400D084EF92E0ADB7BEB712969C93D9
:100D50008E9311970E9412110F900F90D5CE8FE0B5
:100D600093E0BE010E94C410282F392F21153105B0
:100D700049F48EE193E00E94BE070E9469040E943C
:100D8000CD07C2CE8FE293E0BE014FE050E00E945B
:100D9000CD10282F392F2115310561F400D081E4C1
:100DA00093E0EDB7FEB7928381830E9412110F90FA
:100DB0000F90AACE8BE593E0BE010E94C410282FAD
:100DC000392F2115310549F484E693E00E94BE07CE
:100DD0000E9483020E94CD0797CE89E693E0BE0170
:100DE00048E050E00E94CD10282F392F2115310501
:100DF00069F40E94F6048091F4079091F5070E942F
:100E00005E0285E793E00E9427117ECE8DE793E096
:100E1000BE010E94C410282F392F2115310549F435
:100E200084E693E00E94BE070E94D7020E94CD078D
:100E30006BCE8AE893E0BE014CE050E00E94CD10FA
:100E4000282F392F2115310569F40E94F60480916D
:100E5000F4079091F5070E94AA0285E793E00E94AB
:100E6000271152CE8AE993E0BE010E94C410282FB8
:100E7000392F2115310549F486EA93E00E94BE0717
:100E80000E943E030E94CD073FCE83EB93E0BE015C
:100E90004CE050E00E94CD10282F392F211531054C
:100EA00071F400D082EC93E0ADB7BEB712969C937C
:100EB0008E9311970E9412110F900F9025CE86ED00
:100EC00093E0BE010E94C410282F392F211531054F
:100ED00089F40E94100862E070E00E94E90D813000
:100EE000910511F40E9421088BED93E00E94CD073B
:100EF0000E94B10F84EE93E0BE010E94C410282F1F
:100F0000392F2115310529F489EE93E00E94CD0790
:100F1000FBCD8EE296E00E94CD07F6CD1092C50083
:100F200083E38093C4001092C00088E18093C100E5
:100F300086E08093C20084E796E090931B0880933C
:100F40001A080895E0ECF0E0908195FFFDCF8093C2
:100F5000C6000895CF93C82F8A3019F48DE00E94FF
:100F6000A2078C2F0E94A207CF910895E0ECF0E039
:100F700080818823ECF78091C6000895CF93DF939A
:100F8000EC018881882331F021960E94A207899183
:100F90008823D9F7DF91CF9108950E94BE078DE095
:100FA0000E94A2078AE00E94A2070895AF92BF9212
:100FB000CF92DF92EF92FF920F931F93CF93DF9325
:100FC0005C01D42F6C01EE24FF248B0101501040F2
:100FD0000E94B607C82FDD2311F00E94A207CD3072
:100FE00031F4DD2371F08AE00E94A2070AC0E01606
:100FF000F10674F7F601C1936F010894E11CF11C2E
:10100000E7CFEA0CFB1CF7011082DF91CF911F9113
:101010000F91FF90EF90DF90CF90BF90AF90089529
:101020008091FA069091FB060895239A249A259AB6
:10103000E9E6F0E080818160808381E08CBB2D9ABD
:101040000895CF92DF92EF92FF928091FA069091ED
:10105000FB0601969093FB068093FA0682E896E0E1
:101060000E94BE072D982B9A0E94C60460E070E093
:101070000E94470E6B017C0114C02C9A8FE39DE007
:10108000A3E081509040A040E1F700C000002C9800
:101090008FE39DE0A3E081509040A040E1F700C0C5
:1010A00000000E943401A70196010E944009882394
:1010B00024F30E943401DC01CB0100D000D000D029
:1010C00028E836E0EDB7FEB732832183838394832B
:1010D000A583B6830E9412118DB79EB706960FB6F0
:1010E000F8949EBF0FBE8DBF8CEA96E00E94CD079C
:1010F000FF90EF90DF90CF900895CF92DF92EF9224
:10110000FF928091FA069091FB0601969093FB0660
:101110008093FA068AEC96E00E94BE072B982D9ADF
:101120000E94690460E070E00E94470E6B017C0140
:1011300014C02C9A8FE39DE0A3E081509040A04022
:10114000E1F700C000002C988FE39DE0A3E0815000
:101150009040A040E1F700C000000E943401A701C8
:1011600096010E94F609181624F30E94CD070E94EA
:101170003401DC01CB0100D000D000D028E836E0FB
:10118000EDB7FEB73283218383839483A583B6832F
:101190000E9412118DB79EB706960FB6F8949EBFA7
:1011A0000FBE8DBF8FEC96E00E94CD07FF90EF90B1
:1011B000DF90CF9008955058BB27AA270ED0DCC0EF
:1011C000CDD030F0D2D020F031F49F3F11F41EF496
:1011D000C2C00EF4E095E7FBB8C0E92FDED080F383
:1011E000BA17620773078407950718F071F49EF524
:1011F000F6C00EF4E0950B2EBA2FA02D0B01B9010D
:1012000090010C01CA01A0011124FF27591B99F07C
:10121000593F50F4503E68F11A16F040A22F232F88
:10122000342F4427585FF3CF469537952795A795D8
:10123000F0405395C9F77EF41F16BA0B620B730B7F
:10124000840BBAF09150A1F0FF0FBB1F661F771FF0
:10125000881FC2F70EC0BA0F621F731F841F48F4A5
:10126000879577956795B795F7959E3F08F0B3CF2B
:101270009395880F08F09927EE0F97958795089515
:1012800040D008F481E00895E89409C097FB3EF44B
:1012900090958095709561957F4F8F4F9F4F9923C3
:1012A000A9F0F92F96E9BB279395F6958795779541
:1012B0006795B795F111F8CFFAF4BB0F11F460FF01
:1012C0001BC06F5F7F4F8F4F9F4F16C0882311F059
:1012D00096E911C0772321F09EE8872F762F05C06D
:1012E000662371F096E8862F70E060E02AF09A9508
:1012F000660F771F881FDAF7880F9695879597F9FD
:101300000895990F0008550FAA0BE0E8FEEF161696
:101310001706E807F907C0F012161306E407F507E9
:1013200098F0621B730B840B950B39F40A2661F05D
:10133000232B242B252B21F408950A2609F4A14000
:10134000A6958FEF811D811D089597F99F6780E80D
:1013500070E060E008959FEF80EC089500240A9407
:101360001616170618060906089500240A94121680
:101370001306140605060895092E0394000C11F4B3
:10138000882352F0BB0F40F4BF2B11F460FF04C060
:101390006F5F7F4F8F4F9F4F089557FD9058440FB9
:1013A000551F59F05F3F71F04795880F97FB991FC4
:1013B00061F09F3F79F08795089512161306140681
:1013C000551FF2CF4695F1DF08C01616170618060E
:1013D000991FF1CF86957105610508940895E894E9
:1013E000BB2766277727CB0197F908958ADF08F492
:1013F0008FEF08950BD0C0CFB1DF28F0B6DF18F023
:10140000952309F0A2CFA7CF1124EACFC6DFA0F31E
:10141000959FD1F3950F50E0551F629FF001729F89
:10142000BB27F00DB11D639FAA27F00DB11DAA1FA8
:10143000649F6627B00DA11D661F829F2227B00DF5
:10144000A11D621F739FB00DA11D621F839FA00D80
:10145000611D221F749F3327A00D611D231F849FD0
:10146000600D211D822F762F6A2F11249F57504027
:101470008AF0E1F088234AF0EE0FFF1FBB1F661FC2
:10148000771F881F91505040A9F79E3F510570F07B
:101490005CCFA6CF5F3FECF3983EDCF38695779563
:1014A0006795B795F795E7959F5FC1F7FE2B880F76
:1014B000911D9695879597F90895A5E1B0E0E3E62B
:1014C000FAE00C94FC0D4C017F876E87FC011782BB
:1014D0001682838181FD04C076C34C855D8504C07E
:1014E0001E010894211C311CF4019381EE85FF85B7
:1014F00093FD859193FF8191FF87EE87882309F4FF
:101500005EC3853241F493FD859193FF8191FF87FE
:10151000EE87853259F490E0B4014C8B5D8B0E94CC
:10152000E6104C895D895D874C87D7CFFF24DD2489
:1015300010E01032B0F48B3269F08C3228F4803233
:1015400051F0833271F40BC08D3239F0803349F49D
:1015500011602CC01260146029C0186027C010618F
:1015600025C017FD2EC0282F20532A3098F416FFCF
:1015700008C08F2D880FF82EFF0CFF0CF80EF20E0E
:1015800015C08D2D880FD82EDD0CDD0CD80ED20E97
:1015900010620CC08E3221F416FD11C3106406C017
:1015A0008C3611F4106802C0883659F4EE85FF8538
:1015B00093FD859193FF8191FF87EE87882309F042
:1015C000B8CF982F9554933018F41061805E06C000
:1015D000982F9556933008F0A2C11F7E16FD02C0C9
:1015E000E6E0FE2E1F73853611F4106406C08636C1
:1015F00011F4106802C0F110FA9417FF07C0FBE362
:10160000FF1548F0EF2CE39427E00DC027E02F15DD
:1016100030F02F2D07C027E07CE3E72E04C027E041
:1016200067E0F62EEE24CA0104969D878C87FA01A6
:101630006081718182819381A1010E2D0E94B60F7C
:101640005C01C9802C2D30E0398B288BC0FE03C093
:10165000388933FF06C011FD06C012FF06C000E244
:1016600005C00DE203C00BE201C000E08889998942
:101670008C709070009709F43CC0002311F084E056
:1016800001C083E08D1558F4D81A13FD09C080E21B
:1016900090E0B4010E94E610DA94C9F701C0DD249D
:1016A000002329F0802F90E0B4010E94E610888981
:1016B00083FD05C03CE6E32E30E0F32E11C028E6A2
:1016C000E22E20E0F22E0CC00115110509F0805227
:1016D00090E0B4010E94E6100894E11CF11C04C0E3
:1016E000012F10E000711070F7018491882361F7D9
:1016F00063C217FF0EC0EA0CF889F4FF04C08A81A8
:10170000813309F4EA941E144CF528E02E1548F1B3
:101710002CC016FD2AC08F2D90E08A159B0544F041
:101720003CEFA3163FEFB3061CF0106801C0FA941B
:10173000FF2049F0E2E0F0E0EC0FFD1FEF0DF11D9E
:1017400080818033A1F317FF10C0EF2CE3948F2D1D
:1017500090E0A816B90644F4FA1807C0EE24E39402
:1017600004C098E0E92E01C0FF2417FF07C01A1437
:101770001B043CF495012F5F3F4F05C025E030E08E
:1017800002C021E030E0002311F02F5F3F4FFF2027
:1017900029F08F2D90E00196280F391F8D2D90E0B4
:1017A0002817390714F4D21A01C0DD24612E7724DA
:1017B000C30189709070009749F406C080E290E000
:1017C000B4010E94E610DA94DD20C1F7002329F06D
:1017D000802F90E0B4010E94E61063FC09C006C0AF
:1017E00080E390E0B4010E94E610DA94DD20C1F7B6
:1017F00017FF48C08501B7FE02C000E010E0662474
:10180000772495012E1931093B8B2A8B2501401A2B
:10181000510A420C531C6F2D70E0EE24FF24E61A8F
:10182000F70A3FEF0F3F130729F48EE290E0B4016F
:101830000E94E610A016B10654F02A893B892017B1
:1018400031072CF4F201E60DF71D818101C080E320
:10185000015010400894611C711C0E151F052CF0DE
:1018600090E0B4010E94E610DCCF0A151B0541F49C
:101870009A81963320F4953319F4388934FF81E343
:1018800090E049C08A81813311F09FEEC92290E037
:10189000B4010E94E610FF2089F08EE290E0B401CE
:1018A0000E94E61012E0F101E10FF11D1F5F80813F
:1018B00090E0B4010E94E610FA94A9F764FE03C018
:1018C00085E490E002C085E690E0B4010E94E61055
:1018D000B7FC05C0A114B10441F4C4FE06C0B09425
:1018E000A194B108B3948DE201C08BE290E0B40101
:1018F0000E94E61080E305C08F5FE6EFFFEFAE0EBB
:10190000BF1EFAE0AF16B104BCF790E0B4010E942C
:10191000E610C501C096B4010E94E6104DC18336A1
:1019200031F0833789F0833509F059C022C09A011C
:101930002E5F3F4F3D872C87FA018081898381E0AC
:10194000E82EF12C510113C09A012E5F3F4F3D87C5
:101950002C87FA01A080B18016FF03C06F2D70E0C4
:1019600002C06FEF7FEFC5010E94DB107C011F7783
:1019700014C09A012E5F3F4F3D872C87FA01A0804B
:10198000B18016FF03C06F2D70E002C06FEF7FEFD4
:10199000C5010E94AE107C01106813FD1CC006C07A
:1019A00080E290E0B4010E94E610DA948D2D90E080
:1019B000E816F906A8F30FC0F50117FD859117FF8A
:1019C00081915F0190E0B4010E94E610D110DA9499
:1019D0000894E108F108E114F10471F7EDC08436D0
:1019E00011F0893671F59A0117FF0AC02C5F3F4F3D
:1019F0003D872C87FA0180819181A281B3810BC040
:101A00002E5F3F4F3D872C87FA0180819181AA2765
:101A100097FDA095BA2F012F0F76B7FF08C0B0959C
:101A2000A095909581959F4FAF4FBF4F0068BC0127
:101A3000CD01A1012AE030E00E945511E82EE21804
:101A400041C0853721F41F7E2AE030E020C0197F95
:101A50008F36A9F0803720F4883509F0B0C00BC06C
:101A6000803721F0883709F0AAC001C0106114FF47
:101A700009C0146007C014FF08C0166006C028E043
:101A800030E005C020E130E002C020E132E0CA01D0
:101A900017FF09C004969D878C87FA0160817181C8
:101AA0008281938108C002969D878C87FA016081AC
:101AB000718180E090E0A1010E945511E82EE218AA
:101AC000012F0F7706FF09C00E7FEF1430F404FFDB
:101AD00006C002FD04C00F7E02C01E2D01C01F2DD6
:101AE000802F90E004FF0CC0FE01EE0DF11D20815F
:101AF000203311F4097E09C002FF06C01E5F05C035
:101B000086789070009709F01F5FA02EBB2403FD1C
:101B100012C000FF0DC0FE2C1D1550F4FD0CF11A73
:101B20001D2D06C080E290E0B4010E94E6101F5F08
:101B30001D15C0F304C01D1510F4D11A01C0DD2419
:101B4000A4FE0FC080E390E0B4010E94E610A2FE64
:101B50001FC0A1FE03C088E590E010C088E790E0B8
:101B60000DC0C50186789070009791F0A1FC02C06D
:101B700080E201C08BE207FD8DE290E0B4010E949B
:101B8000E61006C080E390E0B4010E94E610FA94EB
:101B9000EF14C0F3EA94F101EE0DF11D808190E0A5
:101BA000B4010E94E610EE20A9F706C080E290E0A2
:101BB000B4010E94E610DA94DD20C1F78ECCF40166
:101BC0008681978102C08FEF9FEF6596E2E10C94CA
:101BD000180E97FB092E07260AD077FD04D043D0B4
:101BE00006D000201AF4709561957F4F0895F6F79E
:101BF000909581959F4F08952F923F924F925F92BB
:101C00006F927F928F929F92AF92BF92CF92DF920C
:101C1000EF92FF920F931F93CF93DF93CDB7DEB771
:101C2000CA1BDB0B0FB6F894DEBF0FBECDBF099405
:101C30002A88398848885F846E847D848C849B845C
:101C4000AA84B984C884DF80EE80FD800C811B816A
:101C5000AA81B981CE0FD11D0FB6F894DEBF0FBE99
:101C6000CDBFED010895AA1BBB1B51E107C0AA1F00
:101C7000BB1FA617B70710F0A61BB70B881F991F2D
:101C80005A95A9F780959095BC01CD010895A0E0E3
:101C9000B0E0EDE4FEE00C94000E5B01611571050F
:101CA00021F0DB018C9311969C937C01E701089451
:101CB000E11CF11C08816701802F90E00E948E10CA
:101CC0000097A1F70D3241F4098142E0C42ED12CD6
:101CD000CC0EDD1E11E009C00B3231F4098132E077
:101CE000C32ED12CCC0EDD1E10E0E6012197CE01D3
:101CF00060E770E043E050E00E9496100097D1F456
:101D0000E6012296CE0163E770E045E050E00E94D4
:101D10009610009711F4E6012796A114B10419F06A
:101D2000F501D183C08330E020E090E8112309F46D
:101D30000AC104C1CE0168E770E043E050E00E94B0
:101D40009610009759F4A114B10409F4F9C0C60122
:101D50000296D50111969C938E93F2C040E050E01C
:101D6000BA018824992400530A3090F51260212F7B
:101D700030E0C9018870907012FF06C0009769F5C5
:101D80000894811C911C29C0009719F008948108BF
:101D90009108DB01CA01D2E0880F991FAA1FBB1F5F
:101DA000DA95D1F7480F591F6A1F7B1F440F551F43
:101DB000661F771F400F511D611D711D4839B9E91C
:101DC0005B07B9E96B07B9E17B0738F0146005C020
:101DD0000E3F39F413FD43C01860F60101916F0105
:101DE000C2CF053311F00531D1F5D601EC91ED32BA
:101DF00011F4106108C0EB3229F0C601019621E010
:101E000030E008C0D6011196EC911197C6010296F8
:101E100022E030E0E053EA3020F06C01C21AD30A2D
:101E20001EC0DC0120E030E0FCE020383F075CF41D
:101E3000C901880F991F880F991F280F391F220F7A
:101E4000331F2E0F311DED91E0536D01EA3060F329
:101E500014FF03C0309521953F4F820E931EC12F72
:101E6000D0E011FF08C0A114B10429F0C601019708
:101E7000D5018D939C93CB01BA010E9444096B015B
:101E80007C01CE01837090708330910521F4F7FAC4
:101E9000F094F7F8F094C701B60120E030E0A90112
:101EA0000E944009882309F444C097FE07C090941B
:101EB000819491089394C7EAD0E002C0CFE8D0E0C3
:101EC00098EE692E9FEF792E6C0E7D1E20E2A22ED9
:101ED000B12C0FC0FE010591159125913491C701D8
:101EE000B601A90198010E94FA096B017C018A18C8
:101EF0009B088A149B0474F72497B594A794C6157D
:101F0000D705B9F7C601D7012A2F220F2B2F221F81
:101F10002F3F49F0BC01CD0120E030E0A9010E9433
:101F20004009882331F482E290E090931F08809367
:101F30001E083C2D2D2D9E2D8F2D06C08FEF04C029
:101F400030E020E090EC8FE7B901AC01872F922FB1
:101F5000A52FB42FBC01CD01CDB7DEB7EEE00C94B8
:101F60001C0E81E090E0F8940C94D011283008F019
:101F700027E03327DA01990F311D87FD9160009624
:101F80006105710539F432602E5F3D9330E32A9587
:101F9000E1F708959F3F30F080387105610509F041
:101FA0003C5F3C5F3D93913008F08068911DDF936A
:101FB000CF931F930F93FF92EF92192F987F9695CF
:101FC000E92F96959695E90FFF27EB5FFE4F99272E
:101FD0003327EE24FF24A701E70105900894079416
:101FE00028F4360FE71EF81E491F511D660F771F94
:101FF000881F991F0694A1F70590079428F4E70E0F
:10200000F81E491F561FC11D770F881F991F661F95
:102010000694A1F70590079428F4F80E491F561F5F
:10202000C71FD11D880F991F661F771F0694A1F740
:102030000590079420F4490F561FC71FD81F990F0A
:10204000661F771F881F0694A9F784911095177053
:1020500041F0D695C79557954795F794E7941A950B
:10206000C1F7EBEAF0E06894159015913591659110
:10207000959105907FE27395E118F10A430B560B99
:10208000C90BD009C0F7E10CF11E431F561FC91F31
:10209000D01D7EF4703311F48A95E6CFE894015098
:1020A00030F0080F0AF40027021708F4202F2395B8
:1020B000022F7A3328F079E37D932A95E9F710C04F
:1020C0007D932A9589F60694979567953795179588
:1020D0001794E118F10A430B560BC90BD00998F07D
:1020E00023957E9173957A3308F070E37C932013E7
:1020F000B8F77E9170617D9330F0839571E37D93A5
:1021000070E32A95E1F71124EF90FF900F911F9152
:10211000CF91DF91992787FD9095089591113DC149
:10212000803219F089508550D0F70895FB01DC0109
:102130004150504088F08D9181341CF08B350CF467
:10214000805E659161341CF06B350CF4605E861B1B
:10215000611171F3990B0895881BFCCFFC01059068
:10216000615070400110D8F7809590958E0F9F1F99
:102170000895FC018191861721F08823D9F79927CA
:1021800008953197CF010895FB01DC018D910190F5
:1021900080190110D9F3990B0895FB01DC0141501E
:1021A000504030F08D910190801919F40020B9F75A
:1021B000881B990B0895FC0161507040019001103B
:1021C000D8F7809590958E0F9F1F08950F931F93BA
:1021D000CF93DF938C01EB018B8181FF1BC082FFCA
:1021E0000DC02E813F818C819D812817390764F4B1
:1021F000E881F9810193F983E88306C0E885F985D0
:10220000802F0995009731F48E819F8101969F83DD
:102210008E8302C00FEF1FEFC801DF91CF911F9196
:102220000F910895A0E0B0E0E8E1F1E10C940C0E0C
:10223000FE0135966191719180911A0890911B0869
:10224000AF010E945D0A2096E2E00C94280E0F93E5
:102250001F93CF93DF938C01E0911A08F0911B0834
:10226000838181FF1AC0C0E0D0E005C009950097C6
:1022700011F0CFEFDFEFF80181918F0160911A0823
:1022800070911B08DB011896ED91FC91199788233A
:1022900069F78AE00995009711F0CFEFDFEFCE01E3
:1022A000DF91CF911F910F910895FA01AA2728304D
:1022B00051F1203181F1E8946F936E7F6E5F7F4F13
:1022C0008F4F9F4FAF4FB1E03ED0B4E03CD0670F8F
:1022D000781F891F9A1FA11D680F791F8A1F911DE2
:1022E000A11D6A0F711D811D911DA11D20D009F432
:1022F00068943F912AE0269F11243019305D319374
:10230000DEF6CF010895462F4770405D4193B3E05C
:102310000FD0C9F7F6CF462F4F70405D4A3318F003
:10232000495D31FD4052419302D0A9F7EACFB4E0B4
:10233000A6959795879577956795BA95C9F700976C
:102340006105710508959B01AC010A2E069457950D
:10235000479537952795BA95C9F7620F731F841F64
:10236000951FA01D0895F999FECF92BD81BDF89AE1
:10237000992780B50895262FF999FECF92BD81BD8A
:10238000F89A019700B4021639F01FBA20BD0FB6B3
:10239000F894FA9AF99A0FBE089599278827089514
:0423A000F894FFCFDF
:1023A4000000204163005F005B00580050002800DB
:1023B4000400040004000300080028002800323050
:1023C4003120506C6561736520656E7465722049B7
:1023D40044003530343A205665726B656572646525
:1023E400204944003230312067726F656E656F7426
:1023F40074657220003230302048616E6473686105
:102404006B65206265766573746967740032303475
:1024140020576174206B616E20696B20766F6F7238
:10242400207520646F656E3F2000554E524F4C4C12
:1024340000353031205A6F6E6E6573636865726D56
:1024440020697320616C207569746765726F6C64B0
:102454002100524F4C4C555000353031205A6F6E8C
:102464006E6573636865726D20697320616C206F9B
:10247400706765726F6C6421005354415455530066
:10248400323032205374617475733A2025690047E1
:1024940045545F54454D50003230322054454D5020
:1024A4003D202520362E3266200A004745545F47DA
:1024B40052454E535F54454D5000323032204752FE
:1024C400454E535F54454D503A005345545F47526F
:1024D400454E535F54454D50285A29003530342019
:1024E4004F6E67656C646967652074656D706572AD
:1024F4006174757572004745545F4C4947485400F0
:10250400323032204C49474854202569200A00477C
:1025140045545F4752454E535F4C49474854003237
:102524003032204752454E535F4C494748543A0095
:102534005345545F4752454E535F4C4947485428CE
:102544005A2900353034204F6E67656C64696765BD
:10255400206C69636874696E74656E736974656907
:1025640074004745545F4D41585F554E524F4C4C93
:1025740000323033204D41585F554E524F4C4C3A47
:1025840020005345545F4D41585F554E524F4C4CBB
:10259400285A2900353034204F6E67656C646967AA
:1025A4006520756974726F6C776161726465004748
:1025B40045545F4D494E5F554E524F4C4C0032309E
:1025C40033204D494E5F554E524F4C4C3A200053E8
:1025D40045545F4D494E5F554E524F4C4C285A2935
:1025E40000353034204F6E67656C64696765206917
:1025F4006E726F6C776161726465004745545F4E1B
:10260400414D450032303220005345545F4E414D18
:1026140045285A2900323030204F4B20004745547A
:102624005F4C4F434154494F4E005345545F4C4F08
:10263400434154494F4E285A29004745545F564553
:102644005253494F4E0032303220766572736965B9
:102654003A20005345545F56455253494F4E285A29
:1026640029003530342054652067726F6F74206EF2
:10267400756D6D657200457869740032323120429F
:102684007965210048656C7000393939200A0D2DAF
:102694002D2D2D2D2D2D2D2D2D2D2D2D2D2D2D2D66
:1026A4002D5A6F6E6E6573636865726D2D2D2D2DB9
:1026B4002D2D2D2D2D2D2D2D2D2D2D2D2D2D0A0D89
:1026C400554E524F4C4C09094C6161742068657435
:1026D400207A6F6E6E6573636865726D20756974B8
:1026E400726F6C6C656E0A0D524F4C4C5550090953
:1026F4004C61617420686574207A6F6E6E657363D3
:102704006865726D206F70726F6C6C656E0A0A0D6D
:102714005354415455532D2D2D2D2D2D2D2D2D2D0F
:102724002D2D2D2D2D2D2D2D2D2D53656E736F7269
:10273400732D2D2D2D2D2D2D2D2D2D2D2D2D2D2D7F
:102744002D2D2D2D2D2D0A0D4745545F54454D50EB
:10275400090947656566742074656D7065726174F6
:102764007575722076616E20646174206D6F6D657D
:102774006E742074657275670A0A0D4745545F4785
:1027840052454E535F54454D505345545F4752454F
:102794004E535F54454D50285A294745545F4C4980
:1027A4004748544745545F4752454E535F4C494749
:1027B40048545345545F4752454E535F4C4947482C
:1027C40054285A294745545F4D41585F554E524F3E
:1027D4004C4C5345545F4D41585F554E524F4C4CF1
:1027E400285A294745545F4D494E5F554E524F4C28
:1027F4004C5345545F4D494E5F554E524F4C4C28F7
:102804005A292D2D2D2D2D2D2D2D2D2D2D2D2D2DCB
:102814002D2D2D2D2D496E666F726D6174696F6E4D
:102824002D2D2D2D2D2D2D2D2D2D2D2D2D2D2D2DD4
:102834002D2D0A0D4745545F4E414D455345545F78
:102844004E414D45285A294745545F4C4F43415406
:10285400494F4E5345545F4C4F434154494F4E28C2
:102864005A292D2D2D2D2D2D2D2D2D2D2D2D2D2D6B
:102874002D2D2D2D2D4F7665726967652D2D2D2DEE
:102884002D2D2D2D2D2D2D2D2D2D2D2D2D2D0A0DB7
:1028940048656C70090909576565726765656674F2
:1028A40020616C6C6520636F6D6D616E646F27735E
:1028B4000A0D45786974090909536C7569742068AF
:1028C40065742070726F6772616D6D610A003531D5
:1028D4003020436F6D6D616E646F206E6965742086
:1028E4006765766F6E64656E212054797065204843
:1028F400656C7020766F6F7220616C6C6520636FFD
:102904006D6D616E646F27730A006B657273746812
:1029140061616E000000000200000000AA070000D0
:102924000000323530200A00393939205A6F6E6E72
:102934006573636865726D6F70726F6C6C656E2021
:102944002520362E326620636D200A003230312075
:102954005A6F6E6E6573636865726D206973207556
:1029640069746765726F6C640A0032353020003216
:102974003031205A6F6E6E6573636865726D2069BD
:0C29840073206F706765726F6C640A004E
:00000001FF
