:100000000C9434000C9451000C9451000C94510049
:100010000C9451000C9451000C9451000C9451001C
:100020000C9451000C9451000C9451000C9451000C
:100030000C9451000C9451000C949E000C945100AF
:100040000C9451000C9451000C9451000C945100EC
:100050000C9451000C9451000C9451000C945100DC
:100060000C9451000C94510011241FBECFEFD8E026
:10007000DEBFCDBF11E0A0E0B1E0E8E7FDE002C0E7
:1000800005900D92A437B107D9F711E0A4E7B1E0CC
:1000900001C01D92AD39B107E1F70E948C000C94AC
:1000A000BA060C940000ECE7F0E080818066808363
:1000B00087E880937A0080E280937E000895EAE7E3
:1000C000F0E0808180648083808186FDFDCF809117
:1000D00079000895EAE7F0E0808180648083808180
:1000E00086FDFDCF80917800909179000895EAE730
:1000F000F0E0808180648083808186FDFDCF8091E7
:100100007900089582E084BD9CE997BD80936E00DC
:1001100085B5856085BD08950E9482000E947401A6
:100120000E945300789480E091E00E94B303FFCFD7
:100130000E946A0008950E94770008951F920F920E
:100140000FB60F9211242F933F934F935F936F93AA
:100150007F938F939F93AF93BF93CF93DF93EF934F
:10016000FF938091740190917501019690937501B0
:100170008093740180917401909175018536910589
:100180000CF49FC00E949800682F70E080E090E01F
:100190000E948E0220E030E040EA5BE30E941A03F6
:1001A000262F372FF82FE92F462F572F682F792F1B
:1001B00040937701509378016093790170937A01AD
:1001C000822F932FAF2FBE2FBC01CD0120E030E056
:1001D00040E05FE30E94F60120E030E048EC52E4AA
:1001E0000E941A03262F372FF82FE92F462F572F5B
:1001F000682F792F40939301509394016093950158
:1002000070939601822F932FAF2FBE2FBC01CD018B
:100210000E945B02DC01CB01CBE7D1E0BE014AE0EA
:1002200050E00E947D0380E391E00E94A401CE0192
:100230000E94B3012091760100D000D000D0EDB72C
:10024000FEB731968EE391E0ADB7BEB712969C93A0
:100250008E93119722831382D583C4830E949E03B9
:10026000C09176018DB79EB706960FB6F8949EBFE3
:100270000FBE8DBF0E949B0000D000D000D0EDB714
:10028000FEB7319622E531E0ADB7BEB712963C938A
:100290002E931197C2831382848315820E949E033A
:1002A000809176018F5F8093760110927501109294
:1002B00074018DB79EB706960FB6F8949EBF0FBE19
:1002C0008DBFFF91EF91DF91CF91BF91AF919F9142
:1002D0008F917F916F915F914F913F912F910F90EF
:1002E0000FBE0F901F9018951092C50083E3809366
:1002F000C4001092C00088E18093C10086E0809322
:10030000C20085E691E090939A0180939901089547
:10031000E0ECF0E0908195FFFDCF8093C60008955A
:10032000CF93C82F8A3019F48DE00E9488018C2F5A
:100330000E948801CF910895E0ECF0E0808188234D
:10034000ECF78091C6000895CF93DF93EC0188818C
:10035000882331F021960E94880189918823D9F75A
:10036000DF91CF9108950E94A4018DE00E94880141
:100370008AE00E9488010895AF92BF92CF92DF92E7
:10038000EF92FF920F931F93CF93DF935C01D42FD3
:100390006C01EE24FF248B01015010400E949C014F
:1003A000C82FDD2311F00E948801CD3031F4DD2308
:1003B00071F08AE00E9488010AC0E016F10674F725
:1003C000F601C1936F010894E11CF11CE7CFEA0C20
:1003D000FB1CF7011082DF91CF911F910F91FF90CD
:1003E000EF90DF90CF90BF90AF9008955058BB270B
:1003F000AA270ED0E5C0D6D030F0DBD020F031F403
:100400009F3F11F41EF4CBC00EF4E095E7FBC1C092
:10041000E92FE7D080F3BA176207730784079507BF
:1004200018F071F49EF5FFC00EF4E0950B2EBA2F74
:10043000A02D0B01B90190010C01CA01A0011124EA
:10044000FF27591B99F0593F50F4503E68F11A1696
:10045000F040A22F232F342F4427585FF3CF469527
:1004600037952795A795F0405395C9F77EF41F1649
:10047000BA0B620B730B840BBAF09150A1F0FF0F13
:10048000BB1F661F771F881FC2F70EC0BA0F621FFF
:10049000731F841F48F4879577956795B795F795EF
:1004A0009E3F08F0B3CF9395880F08F09927EE0F81
:1004B00097958795089504D06894B111B5C00895B3
:1004C00098D088F09F5790F0B92F9927B751A0F096
:1004D000D1F0660F771F881F991F1AF0BA95C9F7D8
:1004E00012C0B13081F09FD0B1E008959CC0672F59
:1004F000782F8827B85F39F0B93FCCF38695779588
:100500006795B395D9F73EF4909580957095619570
:100510007F4F8F4F9F4F0895E89409C097FB3EF49B
:1005200090958095709561957F4F8F4F9F4F992340
:10053000A9F0F92F96E9BB279395F69587957795BE
:100540006795B795F111F8CFFAF4BB0F11F460FF7E
:100550001BC06F5F7F4F8F4F9F4F16C0882311F0D6
:1005600096E911C0772321F09EE8872F762F05C0EA
:10057000662371F096E8862F70E060E02AF09A9585
:10058000660F771F881FDAF7880F9695879597F97A
:10059000089597F99F6780E870E060E008959FEF05
:1005A00080EC089500240A9416161706180609060A
:1005B000089500240A9412161306140605060895D9
:1005C000092E0394000C11F4882352F0BB0F40F461
:1005D000BF2B11F460FF04C06F5F7F4F8F4F9F4FA1
:1005E000089557FD9058440F551F59F05F3F71F023
:1005F0004795880F97FB991F61F09F3F79F087958A
:100600000895121613061406551FF2CF4695F1DF12
:1006100008C0161617061806991FF1CF86957105A2
:10062000610508940895E894BB2766277727CB01D6
:1006300097F908950BD0C4CFB5DF28F0BADF18F0D2
:10064000952309F0A6CFABCF1124EECFCADFA0F3DC
:10065000959FD1F3950F50E0551F629FF001729F57
:10066000BB27F00DB11D639FAA27F00DB11DAA1F76
:10067000649F6627B00DA11D661F829F2227B00DC3
:10068000A11D621F739FB00DA11D621F839FA00D4E
:10069000611D221F749F3327A00D611D231F849F9E
:1006A000600D211D822F762F6A2F11249F575040F5
:1006B0008AF0E1F088234AF0EE0FFF1FBB1F661F90
:1006C000771F881F91505040A9F79E3F510570F049
:1006D00060CFAACF5F3FECF3983EDCF38695779529
:1006E0006795B795F795E7959F5FC1F7FE2B880F44
:1006F000911D9695879597F90895FB019F01E894C0
:100700004230C4F04532B4F44A3029F497FB1EF469
:10071000909581959F4F642F77270E946F06805D8B
:100720008A330CF0895D8193CB010097A1F716F411
:100730005DE251931082C9010C94D505A0E0B0E0B0
:10074000E4EAF3E00C949306FE0135966191719111
:100750008091990190919A01AF010E94E103209646
:10076000E2E00C94AF060F931F93CF93DF938C01BD
:10077000E0919901F0919A01838181FF1AC0C0E054
:10078000D0E005C00995009711F0CFEFDFEFF80139
:1007900081918F016091990170919A01DB01189606
:1007A000ED91FC911997882369F78AE009950097E4
:1007B00011F0CFEFDFEFCE01DF91CF911F910F91BD
:1007C0000895ADE0B0E0E7EEF3E00C9483063C0161
:1007D0007D876C875A01FC0117821682838181FF15
:1007E000C8C12E010894411C511CF3019381EC8572
:1007F000FD8593FD859193FF8191FD87EC8788238B
:1008000009F4B3C1853241F493FD859193FF819141
:10081000FD87EC87853229F490E0B3010E94E5055D
:10082000E4CFFF24EE2410E01032B0F48B3269F0F4
:100830008C3228F4803251F0833271F40BC08D3247
:1008400039F0803349F411602CC01260146029C063
:10085000186027C0106125C017FD2EC0282F205317
:100860002A3098F416FF08C08F2D880FF82EFF0C41
:10087000FF0CF80EF20E15C08E2D880FE82EEE0C30
:10088000EE0CE80EE20E10620CC08E3221F416FD62
:100890006CC1106406C08C3611F4106802C0883632
:1008A00059F4EC85FD8593FD859193FF8191FD873A
:1008B000EC87882309F0B8CF982F9554933018F01F
:1008C0009052933038F424E030E0A20EB31E3FE3A0
:1008D00039830FC0833631F0833781F0833509F0D7
:1008E0005AC022C0F5018081898322E030E0A20E47
:1008F000B31E21E0C22ED12C420114C092E0292E59
:10090000312C2A0C3B1CF5018080918016FF03C01E
:100910006F2D70E002C06FEF7FEFC4010E94CA0527
:100920006C0151011F7715C082E0282E312C2A0C52
:100930003B1CF5018080918016FF03C06F2D70E095
:1009400002C06FEF7FEFC4010E94BF056C01106809
:10095000510113FD1CC006C080E290E0B3010E946B
:10096000E505EA948E2D90E0C816D906A8F30FC0CD
:10097000F40117FD859117FF81914F0190E0B301BC
:100980000E94E505E110EA940894C108D108C11459
:10099000D10471F7E7C0843611F0893651F5F501BD
:1009A00017FF07C080819181A281B38124E030E0EC
:1009B00008C080819181AA2797FDA095BA2F22E0D7
:1009C00030E0A20EB31E012F0F76B7FF08C0B0951E
:1009D000A095909581959F4FAF4FBF4F0068BC0188
:1009E000CD01A2012AE030E00E941106D82ED418D1
:1009F0003FC0853721F41F7E2AE030E020C0197FF8
:100A00008F36A9F0803720F4883509F0AEC00BC0CE
:100A1000803721F0883709F0A8C001C0106114FFA9
:100A200009C0146007C014FF08C0166006C028E0A3
:100A300030E005C020E130E002C020E132E0F50105
:100A400017FF07C0608171818281938144E050E08B
:100A500006C06081718180E090E042E050E0A40E29
:100A6000B51EA2010E941106D82ED418012F0F77AF
:100A700006FF09C00E7FDF1430F404FF06C002FD3C
:100A800004C00F7E02C01D2D01C01F2D802F90E0DD
:100A900004FF0CC0FE01ED0DF11D2081203311F487
:100AA000097E09C002FF06C01E5F05C086789070EF
:100AB000009709F01F5F802E992403FD12C000FFEC
:100AC0000DC0FD2C1E1550F4FE0CF11A1E2D06C093
:100AD00080E290E0B3010E94E5051F5F1E15C0F3A0
:100AE00004C01E1510F4E11A01C0EE2484FE0FC0EC
:100AF00080E390E0B3010E94E50582FE1FC081FE05
:100B000003C088E590E010C088E790E00DC0C40104
:100B100086789070009791F081FC02C080E201C05D
:100B20008BE207FD8DE290E0B3010E94E50506C06F
:100B300080E390E0B3010E94E505FA94DF14C0F36E
:100B4000DA94F201ED0DF11D808190E0B3010E9475
:100B5000E505DD20A9F706C080E290E0B3010E9420
:100B6000E505EA94EE20C1F740CEF3018681978136
:100B700002C08FEF9FEF2D96E2E10C949F06FC01DF
:100B80000590615070400110D8F7809590958E0FB8
:100B90009F1F0895FC016150704001900110D8F72B
:100BA000809590958E0F9F1F0895DC01FC01672FA3
:100BB00071917723E1F7329704C07C916D93708334
:100BC0006291AE17BF07C8F308950F931F93CF9399
:100BD000DF938C01EB018B8181FF1BC082FF0DC075
:100BE0002E813F818C819D812817390764F4E8812B
:100BF000F9810193F983E88306C0E885F985802FA0
:100C00000995009731F48E819F8101969F838E8391
:100C100002C00FEF1FEFC801DF91CF911F910F911D
:100C20000895FA01AA27283051F1203181F1E89482
:100C30006F936E7F6E5F7F4F8F4F9F4FAF4FB1E0CF
:100C40003ED0B4E03CD0670F781F891F9A1FA11DCA
:100C5000680F791F8A1F911DA11D6A0F711D811DCB
:100C6000911DA11D20D009F468943F912AE0269F90
:100C700011243019305D3193DEF6CF010895462FEF
:100C80004770405D4193B3E00FD0C9F7F6CF462FD0
:100C90004F70405D4A3318F0495D31FD4052419339
:100CA00002D0A9F7EACFB4E0A695979587957795F6
:100CB0006795BA95C9F700976105710508959B017D
:100CC000AC010A2E06945795479537952795BA9506
:100CD000C9F7620F731F841F951FA01D0895AA1BDB
:100CE000BB1B51E107C0AA1FBB1FA617B70710F017
:100CF000A61BB70B881F991F5A95A9F78095909549
:100D0000BC01CD0108952F923F924F925F926F9256
:100D10007F928F929F92AF92BF92CF92DF92EF928B
:100D2000FF920F931F93CF93DF93CDB7DEB7CA1B0C
:100D3000DB0B0FB6F894DEBF0FBECDBF09942A8837
:100D4000398848885F846E847D848C849B84AA84DF
:100D5000B984C884DF80EE80FD800C811B81AA816C
:100D6000B981CE0FD11D0FB6F894DEBF0FBECDBF37
:080D7000ED010895F894FFCF96
:100D7800416E20696E746572727570742073686F45
:100D8800756C64206265206F63637572696E672095
:100D980065766572792031207365636F6E647300C0
:100DA80054656D70657261747575723A20002569B5
:100DB8002054656D70657261747575723D25662085
:100DC8000A00256920696E74656E736974656974B3
:100DD8003D25640A000000000200000000900100A8
:040DE8000000000007
:00000001FF
