:100000000C94D3000C94F0000C94DC020C94F000DF
:100010000C94F0000C94F0000C94F0000C94F000A0
:100020000C94F0000C94F0000C94F0000C94F00090
:100030000C94F0000C94F0000C94D2010C94F0009D
:100040000C94F0000C94F0000C94F0000C94F00070
:100050000C94F0000C94F0000C94F0000C94F00060
:100060000C94F0000C94F0006E616E00696E6600F6
:10007000494E46494E4954594E414E0000204100D8
:1000800000C84200401C4620BCBE4CCA1B0E5AAEE3
:10009000C59D74CDCCCC3D0AD7233C17B7D138775A
:1000A000CC2B329595E6241FB14F0A00407A10F30D
:1000B0005A00A0724E18090010A5D4E80000E87696
:1000C00048170000E40B54020000CA9A3B000000ED
:1000D000E1F505000080969800000040420F000006
:1000E00000A08601000000102700000000E80300C7
:1000F0000000006400000000000A00000000000191
:1001000000000000002C76D888DC674F0823DFC190
:10011000DFAE59E1B1B796E5E3E453C63AE651994B
:100120007696E8E6C28426EB898C9B62ED407C6F74
:10013000FCEFBC9C9F40F2BAA56FA5F490055A2A2B
:10014000F75C936B6CF9676DC11BFCE0E40D47FE37
:10015000F520E6B500D0ED902E030094357705002C
:1001600080841E080000204E0A000000C80C3333B3
:1001700033330F986E12831141EF8D2114893BE6C2
:100180005516CFFEE6DB18D1844B381BF77C1D904B
:100190001DA4BBE424203284725E228100C9F124B4
:1001A000ECA1E53D270011241FBECFEFD8E0DEBF54
:1001B000CDBF17E0A0E0B1E0E4E8F6E202C00590B0
:1001C0000D92A030B107D9F718E0A0E0B7E001C068
:1001D0001D92A633B107E1F70E94C2010C944013AF
:1001E0000C94000087E880937A0080E280937E0080
:1001F0000895EAE7F0E0808180648083808186FD55
:10020000FDCF80917900089585E480937C00EAE732
:10021000F0E0808180648083808186FDFDCF8091C5
:10022000780090917900089582E680937C00EAE757
:10023000F0E0808180648083808186FDFDCF8091A5
:100240007900089587EF8AB98FEF84B9089584E023
:100250008093690082E08DBB1092800008958091A8
:1002600000079091010708957894289A8FE39CE9FC
:100270000197F1F700C0000028988FE39CE90197EF
:10028000F1F700C0000060910807709109078091A4
:100290000A0790910B0720E030E040E05FE30E9406
:1002A0006A0B29E93BEB46E15BE30E946A0B262FD0
:1002B000372FF82FE92F462F572F682F792F40938C
:1002C0001A0150931B0160931C0170931D01822F32
:1002D000932FAF2FBE2FBC01CD0108950E940401C2
:1002E000682F70E080E090E00E94B60A20E030E0E5
:1002F00040EA5BE30E946A0B262F372FF82FE92F85
:10030000462F572F682F792F4093120750931307CA
:100310006093140770931507822F932FAF2FBE2F72
:10032000BC01CD0120E030E040E05FE30E944B0AD9
:1003300020E030E048EC52E40E946A0B262F372F71
:10034000F82FE92F462F572F682F792F4093360724
:10035000509337076093380770933907822F932F94
:10036000AF2FBE2FBC01CD0108950E941401089546
:1003700082E084BD9CE997BD80936E0085B5856061
:1003800085BD08950E9485090E94B8010E94FE085B
:100390000E94F2000E9422010E94270178940E948C
:1003A000EA05FDCF1F920F920FB60F9211248F9284
:1003B0009F92AF92BF92CF92DF92EF92FF922F93D4
:1003C0003F934F935F936F937F938F939F93AF93DD
:1003D000BF93CF93DF93EF93FF93809102079091A8
:1003E0000307019690930307809302078091020709
:1003F00090910307853691056CF0809100079091EC
:10040000010701969093010780930007109203075C
:10041000109202078091040790910507019690932E
:100420000507809304070E94E50562E070E00E94E2
:10043000590F8130910509F0A4C080910407909173
:1004400005072BE0893B92070CF49BC00E94E20455
:1004500060E070E00E94B70F6B017C010E947B049A
:1004600060E070E00E94B70F4B015C010E946E01DA
:10047000DC01CB01CDB7DEB72A970FB6F894DEBF0B
:100480000FBECDBFEDB7FEB7319620E031E03A8325
:10049000298382829382A482B58286839783A087F0
:1004A000B1870E9482122DB73EB7265F3F4F0FB62D
:1004B000F8943EBF0FBE2DBF0E94B501ADB7BEB7C9
:1004C00018970FB6F894BEBF0FBEADBFEDB7FEB71D
:1004D00031962FE031E0CDB7DEB73A832983C2826F
:1004E000D382E482F582868317820E9482122DB71E
:1004F0003EB7285F3F4F0FB6F8943EBF0FBE2DBFEB
:100500000E94B501682F70E080E090E00E94B60A7A
:10051000A70196010E94660B181674F40E946E01E2
:10052000A50194010E94660B181634F40E948009FC
:1005300080FD02C00E9491090E94B501682F70E001
:1005400080E090E00E94B60AA70196010E94B00ADE
:1005500088239CF40E946E01A50194010E94B00AB8
:1005600088235CF40E94800962E070E00E94590FC9
:100570008130910511F40E94ED0910920507109247
:100580000407FF91EF91DF91CF91BF91AF919F91C0
:100590008F917F916F915F914F913F912F91FF903C
:1005A000EF90DF90CF90BF90AF909F908F900F9083
:1005B0000FBE0F901F9018951F920F920FB60F92BB
:1005C00011242F933F934F935F936F937F938F9358
:1005D0009F93AF93BF93CF93DF93EF93FF9380915C
:1005E00006079091070781309105D1F410928100A0
:1005F000C4E8D0E06881798180E090E00E94B40A8C
:10060000DC01CB018093080790930907A0930A07A8
:10061000B0930B07198218821092070710920607F1
:100620008091060790910707009759F4E1E8F0E000
:1006300080818160808381E090E0909307078093C0
:100640000607FF91EF91DF91CF91BF91AF919F91FD
:100650008F917F916F915F914F913F912F910F906B
:100660000FBE0F901F9018950F931F93CF93DF939A
:10067000C0910C07D0910D072091360130913701C0
:100680002C173D078CF08C010C0F1D1FF801619198
:100690008F01CE010E942B132196809136019091FB
:1006A00037018C179D0794F7DF91CF911F910F9120
:1006B00008950F931F93CF93DF93C0910C07D091B0
:1006C0000D0780913601909137018C179D078CF0B2
:1006D0008E010858184FCE010E942313F801819310
:1006E0008F01219680913601909137018C179D07DB
:1006F00094F788E797E0DF91CF911F910F910895CC
:100700000F931F93CF93DF938C01C0912801D09159
:10071000290180913401909135019923CCF080E03A
:1007200090E0F801E80FF91FCE0160810E942B13C1
:10073000219680912801909129019E01281B390B57
:10074000C9012091340130913501281739074CF740
:10075000DF91CF911F910F910895CF92DF92EF9289
:10076000FF920F931F93CF93DF93E0902801F090B7
:10077000290180913401909135019923ECF001E039
:1007800010E0C0E0D0E00F2EF9E4CF2EF7E0DF2E2E
:10079000F02DC7010E942313CC0DDD1D8883089422
:1007A000E11CF11CE8010F5F1F4F80913401909113
:1007B00035018C179D076CF789E497E0DF91CF91A5
:1007C0001F910F91FF90EF90DF90CF9008950F93BE
:1007D0001F93CF93DF938C01C0912601D091270105
:1007E00080913201909133019923CCF080E090E028
:1007F000F801E80FF91FCE0160810E942B132196AA
:1008000080912601909127019E01281B390BC90177
:100810002091320130913301281739074CF7DF91CD
:10082000CF911F910F910895CF92DF92EF92FF9297
:100830000F931F93CF93DF93E0902601F090270151
:1008400080913201909133019923ECF001E010E0A6
:10085000C0E0D0E00F2EF4EACF2EF7E0DF2EF02D2F
:10086000C7010E942313CC0DDD1D88830894E11C71
:10087000F11CE8010F5F1F4F80913201909133010D
:100880008C179D076CF784EA97E0DF91CF911F9159
:100890000F91FF90EF90DF90CF9008950F931F93EB
:1008A000CF93DF938C01C0912401D09125018091D9
:1008B0003001909131019923CCF080E090E0F80173
:1008C000E80FF91FCE0160810E942B1321968091C1
:1008D0002401909125019E01281B390BC90120910B
:1008E000300130913101281739074CF7DF91CF9152
:1008F0001F910F910895CF92DF92EF92FF920F9385
:100900001F93CF93DF93E0902401F0902501809115
:100910003001909131019923ECF001E010E0C0E04A
:10092000D0E00F2EF5E7CF2EF7E0DF2EF02DC70138
:100930000E942313CC0DDD1D88830894E11CF11C5B
:10094000E8010F5F1F4F80913001909131018C17AA
:100950009D076CF785E797E0DF91CF911F910F918D
:10096000FF90EF90DF90CF9008950F931F93CF9358
:10097000DF938C01C0912201D091230180912E013F
:1009800090912F019923CCF080E090E0F801E80FDE
:10099000F91FCE0160810E942B13219680912201C4
:1009A000909123019E01281B390BC90120912E0132
:1009B00030912F01281739074CF7DF91CF911F9104
:1009C0000F910895EF92FF920F931F93CF93DF93B0
:1009D000E0902201F090230180912E0190912F014F
:1009E0009923BCF001E010E0C0E0D0E0C7010E9414
:1009F0002313C455D84F88830894E11CF11CE801E7
:100A00000F5F1F4F80912E0190912F018C179D0732
:100A10006CF78CEA97E0DF91CF911F910F91FF90D7
:100A2000EF9008950F931F93CF93DF938C01C091A4
:100A30002001D091210180912C0190912D019923C9
:100A4000CCF080E090E0F801E80FF91FCE01608162
:100A50000E942B13219680912001909121019E01EB
:100A6000281B390BC90120912C0130912D01281729
:100A700039074CF7DF91CF911F910F910895EF92B5
:100A8000FF920F931F93CF93DF93E0902001F0909C
:100A9000210180912C0190912D019923BCF001E05E
:100AA00010E0C0E0D0E0C7010E942313C65CD84F1D
:100AB00088830894E11CF11CE8010F5F1F4F8091AF
:100AC0002C0190912D018C179D076CF78AE397E01C
:100AD000DF91CF911F910F91FF90EF9008950F93A9
:100AE0001F93CF93DF938C01C0911E01D0911F0102
:100AF00080912A0190912B019923CCF080E090E025
:100B0000F801E80FF91FCE0160810E942B13219696
:100B100080911E0190911F019E01281B390BC90174
:100B200020912A0130912B01281739074CF7DF91CA
:100B3000CF911F910F910895EF92FF920F931F9302
:100B4000CF93DF93E0901E01F0901F0180912A0166
:100B500090912B019923BCF001E010E0C0E0D0E0BF
:100B6000C7010E942313C652D84F88830894E11C02
:100B7000F11CE8010F5F1F4F80912A0190912B011A
:100B80008C179D076CF78AED97E0DF91CF911F914D
:100B90000F91FF90EF9008958EE098E068E270E08A
:100BA0000E942912E82FF92FDF010D900020E9F7AC
:100BB0001197AE1BBF0BA80FB91F11971C9201967E
:100BC00090930B0880930A08089580910E079091E6
:100BD0000F07089508E311E0CEE0D8E00F2EF3E50B
:100BE000EF2EF1E0FF2EF02D0F2EFBE78F2EF1E020
:100BF0009F2EF02D0F2EF2EACF2EF1E0DF2EF02DFA
:100C00000F2EF9EA2F2EF1E03F2EF02D0F2EF8EBEC
:100C1000AF2EF1E0BF2EF02D0F2EFCED6F2EF1E088
:100C20007F2EF02D0F2EF8EF4F2EF1E05F2EF02DDE
:100C3000C8010E942E09CE016EE170E041E00E94E1
:100C40004609C701BE010E943412282F392F2115F1
:100C50003105A1F40E94800962E070E00E94590F02
:100C60008130910521F48AE591E00E943D090E94BE
:100C7000800980FD1FC00E9491091CC0C401BE01F3
:100C80000E943412282F392F2115310599F40E9422
:100C9000800980FD04C082E891E00E943D090E9425
:100CA000800962E070E00E94590F8130910511F4D3
:100CB0000E94ED09C601BE010E943412282F392F6F
:100CC00021153105A1F40E94800900D000D0ADB7F4
:100CD000BEB712963C922E92119714969C938E93C7
:100CE00013970E9482120F900F900F900F90C501E2
:100CF000BE010E943412282F392F21153105E1F44D
:100D00000E94E50562E070E00E94590F8130910574
:100D100029F482EC91E00E94971204C08FEC91E0DC
:100D20000E94971280910E0790910F070196909361
:100D30000F0780930E077CCFC301BE010E943412BF
:100D4000282F392F21153105E1F40E946E01DC01B5
:100D5000CB0100D000D000D025EE31E0EDB7FEB7DA
:100D60003283218383839483A583B6830E94821276
:100D70008DB79EB706960FB6F8949EBF0FBE8DBF77
:100D800057CFC201BE010E943412282F392F2115DE
:100D9000310549F487E092E00E942E090E947B040D
:100DA0000E943D0945CF87E192E0BE014EE050E050
:100DB0000E943D12282F392F21153105C9F489E2EF
:100DC00092E00E942E090E947B040E942E098AE371
:100DD00092E00E942E090E94CC0580910A08909111
:100DE0000B080E944E040E947B040E943D0920CF04
:100DF0008FE392E0BE010E943412282F392F211573
:100E0000310509F07EC00E946E01DC01CB0100D0EB
:100E100000D000D027E432E0EDB7FEB73283218363
:100E200083839483A583B6830E9482128DB79EB775
:100E300006960FB6F8949EBF0FBE8DBF0E94B501F7
:100E400000D000D0EDB7FEB7319627E532E0ADB760
:100E5000BEB712963C932E931197828313820E9401
:100E600082120F900F900F900F900E943401DC01BE
:100E7000CB0100D000D000D026E632E0EDB7FEB7BF
:100E80003283218383839483A583B6830E94821255
:100E90008DB79EB706960FB6F8949EBF0FBE8DBF56
:100EA0008BE792E00E942E090E949C050E943D095A
:100EB0008BE892E00E942E090E943F050E943D09A6
:100EC0008BE992E00E942E090E94E2040E943D09F3
:100ED0008CEA92E00E942E090E947B040E943D0948
:100EE0008CEB92E00E942E090E9459030E943D095A
:100EF00081EC92E00E942E090E94AD030E943D0900
:100F000097CE86EC92E0BE010E943412282F392F32
:100F100021153105C1F40E94B50100D000D0EDB714
:100F2000FEB7319627E532E0ADB7BEB712963C93D7
:100F30002E931197828313820E9482120F900F903A
:100F40000F900F9075CE80ED92E0BE010E9434129A
:100F5000282F392F2115310549F480EE92E00E94A7
:100F60002E090E94E2040E943D0962CE81EF92E0C8
:100F7000BE014FE050E00E943D12282F392F21156D
:100F80003105C9F484E093E00E942E090E94E20436
:100F90000E942E098AE392E00E942E090E94CC054D
:100FA00080910A0890910B080E94B5040E94E20407
:100FB0000E943D093DCE86E193E0BE010E943412BD
:100FC000282F392F2115310549F485E293E00E943D
:100FD0002E090E949C050E943D092ACE86E393E0DB
:100FE000BE014FE050E00E943D12282F392F2115FD
:100FF0003105C9F485E293E00E942E090E949C0508
:101000000E942E098AE392E00E942E090E94CC05DC
:1010100080910A0890910B080E946F050E949C0520
:101020000E943D0905CE88E493E0BE010E9434127F
:10103000282F392F2115310549F487E593E00E94C7
:101040002E090E943F050E943D09F2CD88E693E0FB
:10105000BE014FE050E00E943D12282F392F21158C
:101060003105C9F487E593E00E942E090E943F05EF
:101070000E942E098AE392E00E942E090E94CC056C
:1010800080910A0890910B080E9412050E943F056A
:101090000E943D09CDCD8AE793E0BE010E94341243
:1010A000282F392F2115310549F483E893E00E9458
:1010B0002E090E9459030E943D09BACD88E893E0A9
:1010C000BE0148E050E00E943D12282F392F211523
:1010D000310569F40E94CC0580910A0890910B08B3
:1010E0000E94340384E993E00E949712A1CD8CE919
:1010F00093E0BE010E943412282F392F21153105AB
:1011000049F483E893E00E942E090E94AD030E94F7
:101110003D098ECD89EA93E0BE014CE050E00E948B
:101120003D12282F392F2115310569F40E94CC0575
:1011300080910A0890910B080E94800384E993E053
:101140000E94971275CD89EB93E0BE010E94341284
:10115000282F392F2115310549F485EC93E00E94A1
:101160002E090E9414040E943D0962CD82ED93E095
:10117000BE014CE050E00E943D12282F392F21156E
:10118000310569F40E94CC0580910A0890910B0802
:101190000E94E70384E993E00E94971249CD81EE13
:1011A00093E0BE010E943412282F392F21153105FA
:1011B00089F40E94800962E070E00E94590F81303A
:1011C000910511F40E94910986EE93E00E943D0979
:1011D0000E9421118FEE93E0BE010E943412282F4D
:1011E000392F2115310529F484EF93E00E943D0940
:1011F0001FCD82E496E00E943D091ACD1092C500F1
:1012000083E38093C4001092C00088E18093C10002
:1012100086E08093C20088E896E09093310880933E
:1012200030080895E0ECF0E0908195FFFDCF8093C9
:10123000C6000895CF93C82F8A3019F48DE00E941C
:1012400012098C2F0E941209CF910895E0ECF0E072
:1012500080818823ECF78091C6000895CF93DF93B7
:10126000EC018881882331F021960E94120989912E
:101270008823D9F7DF91CF9108950E942E098DE040
:101280000E9412098AE00E9412090895AF92BF924B
:10129000CF92DF92EF92FF920F931F93CF93DF9342
:1012A0005C01D42F6C01EE24FF248B01015010400F
:1012B0000E942609C82FDD2311F00E941209CD30AB
:1012C00031F4DD2371F08AE00E9412090AC0E016B1
:1012D000F10674F7F601C1936F010894E11CF11C4B
:1012E000E7CFEA0CFB1CF7011082DF91CF911F9131
:1012F0000F91FF90EF90DF90CF90BF90AF90089547
:1013000080911007909111070895239A249A259AA5
:10131000E9E6F0E080818160808381E08CBB2D9ADA
:101320000895CF92DF92EF92FF92809110079091F3
:1013300011070196909311078093100786E996E0B4
:101340000E942E092D982B9A0E949C0560E070E067
:101350000E94B70F6B017C0114C02C9A8FE39DE0B3
:10136000A3E081509040A040E1F700C000002C981D
:101370008FE39DE0A3E081509040A040E1F700C0E2
:1013800000000E943401A70196010E94B00A882340
:1013900024F30E943401DC01CB0100D000D000D046
:1013A0002CE936E0EDB7FEB7328321838383948343
:1013B000A583B6830E9482128DB79EB706960FB69C
:1013C000F8949EBF0FBE8DBF80EC96E00E943D0951
:1013D000FF90EF90DF90CF900895CF92DF92EF9241
:1013E000FF92809110079091110701969093110739
:1013F000809310078EED96E00E942E092B982D9A6F
:101400000E943F0560E070E00E94B70F6B017C0115
:1014100014C02C9A8FE39DE0A3E081509040A0403F
:10142000E1F700C000002C988FE39DE0A3E081501D
:101430009040A040E1F700C000000E943401A701E5
:1014400096010E94660B181624F30E943D090E9423
:101450003401DC01CB0100D000D000D02CE936E013
:10146000EDB7FEB73283218383839483A583B6834C
:101470000E9482128DB79EB706960FB6F8949EBF53
:101480000FBE8DBF83EE96E00E943D09FF90EF9066
:10149000DF90CF9008955058BB27AA270ED0DCC00C
:1014A000CDD030F0D2D020F031F49F3F11F41EF4B3
:1014B000C2C00EF4E095E7FBB8C0E92FDED080F3A0
:1014C000BA17620773078407950718F071F49EF541
:1014D000F6C00EF4E0950B2EBA2FA02D0B01B9012A
:1014E00090010C01CA01A0011124FF27591B99F09A
:1014F000593F50F4503E68F11A16F040A22F232FA6
:10150000342F4427585FF3CF469537952795A795F5
:10151000F0405395C9F77EF41F16BA0B620B730B9C
:10152000840BBAF09150A1F0FF0FBB1F661F771F0D
:10153000881FC2F70EC0BA0F621F731F841F48F4C2
:10154000879577956795B795F7959E3F08F0B3CF48
:101550009395880F08F09927EE0F97958795089532
:1015600040D008F481E00895E89409C097FB3EF468
:1015700090958095709561957F4F8F4F9F4F9923E0
:10158000A9F0F92F96E9BB279395F695879577955E
:101590006795B795F111F8CFFAF4BB0F11F460FF1E
:1015A0001BC06F5F7F4F8F4F9F4F16C0882311F076
:1015B00096E911C0772321F09EE8872F762F05C08A
:1015C000662371F096E8862F70E060E02AF09A9525
:1015D000660F771F881FDAF7880F9695879597F91A
:1015E0000895990F0008550FAA0BE0E8FEEF1616B4
:1015F0001706E807F907C0F012161306E407F50707
:1016000098F0621B730B840B950B39F40A2661F07A
:10161000232B242B252B21F408950A2609F4A1401D
:10162000A6958FEF811D811D089597F99F6780E82A
:1016300070E060E008959FEF80EC089500240A9424
:101640001616170618060906089500240A9412169D
:101650001306140605060895092E0394000C11F4D0
:10166000882352F0BB0F40F4BF2B11F460FF04C07D
:101670006F5F7F4F8F4F9F4F089557FD9058440FD6
:10168000551F59F05F3F71F04795880F97FB991FE1
:1016900061F09F3F79F0879508951216130614069E
:1016A000551FF2CF4695F1DF08C01616170618062B
:1016B000991FF1CF86957105610508940895E89406
:1016C000BB2766277727CB0197F908958ADF08F4AF
:1016D0008FEF08950BD0C0CFB1DF28F0B6DF18F040
:1016E000952309F0A2CFA7CF1124EACFC6DFA0F33C
:1016F000959FD1F3950F50E0551F629FF001729FA7
:10170000BB27F00DB11D639FAA27F00DB11DAA1FC5
:10171000649F6627B00DA11D661F829F2227B00D12
:10172000A11D621F739FB00DA11D621F839FA00D9D
:10173000611D221F749F3327A00D611D231F849FED
:10174000600D211D822F762F6A2F11249F57504044
:101750008AF0E1F088234AF0EE0FFF1FBB1F661FDF
:10176000771F881F91505040A9F79E3F510570F098
:101770005CCFA6CF5F3FECF3983EDCF38695779580
:101780006795B795F795E7959F5FC1F7FE2B880F93
:10179000911D9695879597F90895A5E1B0E0E3ED41
:1017A000FBE00C946C0F4C017F876E87FC01178265
:1017B0001682838181FD04C076C34C855D8504C09B
:1017C0001E010894211C311CF4019381EE85FF85D4
:1017D00093FD859193FF8191FF87EE87882309F41C
:1017E0005EC3853241F493FD859193FF8191FF871C
:1017F000EE87853259F490E0B4014C8B5D8B0E94EA
:1018000056124C895D895D874C87D7CFFF24DD2434
:1018100010E01032B0F48B3269F08C3228F4803250
:1018200051F0833271F40BC08D3239F0803349F4BA
:1018300011602CC01260146029C0186027C01061AC
:1018400025C017FD2EC0282F20532A3098F416FFEC
:1018500008C08F2D880FF82EFF0CFF0CF80EF20E2B
:1018600015C08D2D880FD82EDD0CDD0CD80ED20EB4
:1018700010620CC08E3221F416FD11C3106406C034
:101880008C3611F4106802C0883659F4EE85FF8555
:1018900093FD859193FF8191FF87EE87882309F05F
:1018A000B8CF982F9554933018F41061805E06C01D
:1018B000982F9556933008F0A2C11F7E16FD02C0E6
:1018C000E6E0FE2E1F73853611F4106406C08636DE
:1018D00011F4106802C0F110FA9417FF07C0FBE37F
:1018E000FF1548F0EF2CE39427E00DC027E02F15FB
:1018F00030F02F2D07C027E07CE3E72E04C027E05F
:1019000067E0F62EEE24CA0104969D878C87FA01C3
:101910006081718182819381A1010E2D0E94261127
:101920005C01C9802C2D30E0398B288BC0FE03C0B0
:10193000388933FF06C011FD06C012FF06C000E261
:1019400005C00DE203C00BE201C000E0888999895F
:101950008C709070009709F43CC0002311F084E073
:1019600001C083E08D1558F4D81A13FD09C080E238
:1019700090E0B4010E945612DA94C9F701C0DD2448
:10198000002329F0802F90E0B4010E94561288892C
:1019900083FD05C03CE6E32E30E0F32E11C028E6BF
:1019A000E22E20E0F22E0CC00115110509F0805244
:1019B00090E0B4010E9456120894E11CF11C04C08E
:1019C000012F10E000711070F7018491882361F7F6
:1019D00063C217FF0EC0EA0CF889F4FF04C08A81C5
:1019E000813309F4EA941E144CF528E02E1548F1D1
:1019F0002CC016FD2AC08F2D90E08A159B0544F05F
:101A00003CEFA3163FEFB3061CF0106801C0FA9438
:101A1000FF2049F0E2E0F0E0EC0FFD1FEF0DF11DBB
:101A200080818033A1F317FF10C0EF2CE3948F2D3A
:101A300090E0A816B90644F4FA1807C0EE24E3941F
:101A400004C098E0E92E01C0FF2417FF07C01A1454
:101A50001B043CF495012F5F3F4F05C025E030E0AB
:101A600002C021E030E0002311F02F5F3F4FFF2044
:101A700029F08F2D90E00196280F391F8D2D90E0D1
:101A80002817390714F4D21A01C0DD24612E7724F7
:101A9000C30189709070009749F406C080E290E01D
:101AA000B4010E945612DA94DD20C1F7002329F018
:101AB000802F90E0B4010E94561263FC09C006C05A
:101AC00080E390E0B4010E945612DA94DD20C1F761
:101AD00017FF48C08501B7FE02C000E010E0662491
:101AE000772495012E1931093B8B2A8B2501401A49
:101AF000510A420C531C6F2D70E0EE24FF24E61AAD
:101B0000F70A3FEF0F3F130729F48EE290E0B4018C
:101B10000E945612A016B10654F02A893B8920175C
:101B200031072CF4F201E60DF71D818101C080E33D
:101B3000015010400894611C711C0E151F052CF0FB
:101B400090E0B4010E945612DCCF0A151B0541F447
:101B50009A81963320F4953319F4388934FF81E360
:101B600090E049C08A81813311F09FEEC92290E054
:101B7000B4010E945612FF2089F08EE290E0B40179
:101B80000E94561212E0F101E10FF11D1F5F8081EA
:101B900090E0B4010E945612FA94A9F764FE03C0C3
:101BA00085E490E002C085E690E0B4010E94561200
:101BB000B7FC05C0A114B10441F4C4FE06C0B09442
:101BC000A194B108B3948DE201C08BE290E0B4011E
:101BD0000E94561280E305C08F5FE6EFFFEFAE0E66
:101BE000BF1EFAE0AF16B104BCF790E0B4010E944A
:101BF0005612C501C096B4010E9456124DC18336DB
:101C000031F0833789F0833509F059C022C09A0139
:101C10002E5F3F4F3D872C87FA018081898381E0C9
:101C2000E82EF12C510113C09A012E5F3F4F3D87E2
:101C30002C87FA01A080B18016FF03C06F2D70E0E1
:101C400002C06FEF7FEFC5010E944B127C011F772E
:101C500014C09A012E5F3F4F3D872C87FA01A08068
:101C6000B18016FF03C06F2D70E002C06FEF7FEFF1
:101C7000C5010E941E127C01106813FD1CC006C025
:101C800080E290E0B4010E945612DA948D2D90E02B
:101C9000E816F906A8F30FC0F50117FD859117FFA7
:101CA00081915F0190E0B4010E945612D110DA9444
:101CB0000894E108F108E114F10471F7EDC08436ED
:101CC00011F0893671F59A0117FF0AC02C5F3F4F5A
:101CD0003D872C87FA0180819181A281B3810BC05D
:101CE0002E5F3F4F3D872C87FA0180819181AA2783
:101CF00097FDA095BA2F012F0F76B7FF08C0B095BA
:101D0000A095909581959F4FAF4FBF4F0068BC0144
:101D1000CD01A1012AE030E00E94C512E82EE218B0
:101D200041C0853721F41F7E2AE030E020C0197FB2
:101D30008F36A9F0803720F4883509F0B0C00BC089
:101D4000803721F0883709F0AAC001C0106114FF64
:101D500009C0146007C014FF08C0166006C028E060
:101D600030E005C020E130E002C020E132E0CA01ED
:101D700017FF09C004969D878C87FA0160817181E5
:101D80008281938108C002969D878C87FA016081C9
:101D9000718180E090E0A1010E94C512E82EE21856
:101DA000012F0F7706FF09C00E7FEF1430F404FFF8
:101DB00006C002FD04C00F7E02C01E2D01C01F2DF3
:101DC000802F90E004FF0CC0FE01EE0DF11D20817C
:101DD000203311F4097E09C002FF06C01E5F05C052
:101DE00086789070009709F01F5FA02EBB2403FD3A
:101DF00012C000FF0DC0FE2C1D1550F4FD0CF11A91
:101E00001D2D06C080E290E0B4010E9456121F5FB3
:101E10001D15C0F304C01D1510F4D11A01C0DD2436
:101E2000A4FE0FC080E390E0B4010E945612A2FE0F
:101E30001FC0A1FE03C088E590E010C088E790E0D5
:101E40000DC0C50186789070009791F0A1FC02C08A
:101E500080E201C08BE207FD8DE290E0B4010E94B8
:101E6000561206C080E390E0B4010E945612FA9424
:101E7000EF14C0F3EA94F101EE0DF11D808190E0C2
:101E8000B4010E945612EE20A9F706C080E290E04D
:101E9000B4010E945612DA94DD20C1F78ECCF40111
:101EA0008681978102C08FEF9FEF6596E2E10C94E7
:101EB000880F97FB092E07260AD077FD04D043D060
:101EC00006D000201AF4709561957F4F0895F6F7BB
:101ED000909581959F4F08952F923F924F925F92D8
:101EE0006F927F928F929F92AF92BF92CF92DF922A
:101EF000EF92FF920F931F93CF93DF93CDB7DEB78F
:101F0000CA1BDB0B0FB6F894DEBF0FBECDBF099422
:101F10002A88398848885F846E847D848C849B8479
:101F2000AA84B984C884DF80EE80FD800C811B8187
:101F3000AA81B981CE0FD11D0FB6F894DEBF0FBEB6
:101F4000CDBFED010895AA1BBB1B51E107C0AA1F1D
:101F5000BB1FA617B70710F0A61BB70B881F991F4A
:101F60005A95A9F780959095BC01CD010895A0E000
:101F7000B0E0EDEBFFE00C94700F5B0161157105B3
:101F800021F0DB018C9311969C937C01E70108946E
:101F9000E11CF11C08816701802F90E00E94FE1176
:101FA0000097A1F70D3241F4098142E0C42ED12CF3
:101FB000CC0EDD1E11E009C00B3231F4098132E094
:101FC000C32ED12CCC0EDD1E10E0E6012197CE01F0
:101FD00060E770E043E050E00E9406120097D1F401
:101FE000E6012296CE0163E770E045E050E00E94F2
:101FF0000612009711F4E6012796A114B10419F016
:10200000F501D183C08330E020E090E8112309F48A
:102010000AC104C1CE0168E770E043E050E00E94CD
:102020000612009759F4A114B10409F4F9C0C601CD
:102030000296D50111969C938E93F2C040E050E039
:10204000BA018824992400530A3090F51260212F98
:1020500030E0C9018870907012FF06C0009769F5E2
:102060000894811C911C29C0009719F008948108DC
:102070009108DB01CA01D2E0880F991FAA1FBB1F7C
:10208000DA95D1F7480F591F6A1F7B1F440F551F60
:10209000661F771F400F511D611D711D4839B9E939
:1020A0005B07B9E96B07B9E17B0738F0146005C03D
:1020B0000E3F39F413FD43C01860F60101916F0122
:1020C000C2CF053311F00531D1F5D601EC91ED32D7
:1020D00011F4106108C0EB3229F0C601019621E02D
:1020E00030E008C0D6011196EC911197C601029616
:1020F00022E030E0E053EA3020F06C01C21AD30A4B
:102100001EC0DC0120E030E0FCE020383F075CF43A
:10211000C901880F991F880F991F280F391F220F97
:10212000331F2E0F311DED91E0536D01EA3060F346
:1021300014FF03C0309521953F4F820E931EC12F8F
:10214000D0E011FF08C0A114B10429F0C601019725
:10215000D5018D939C93CB01BA010E94B40A6B0107
:102160007C01CE01837090708330910521F4F7FAE1
:10217000F094F7F8F094C701B60120E030E0A9012F
:102180000E94B00A882309F444C097FE07C09094C7
:10219000819491089394C7EAD0E002C0CFE8D0E0E0
:1021A00098EE692E9FEF792E6C0E7D1E20E2A22EF6
:1021B000B12C0FC0FE010591159125913491C701F5
:1021C000B601A90198010E946A0B6B017C018A1873
:1021D0009B088A149B0474F72497B594A794C6159A
:1021E000D705B9F7C601D7012A2F220F2B2F221F9F
:1021F0002F3F49F0BC01CD0120E030E0A9010E9451
:10220000B00A882331F482E290E0909335088093FD
:1022100034083C2D2D2D9E2D8F2D06C08FEF04C030
:1022200030E020E090EC8FE7B901AC01872F922FCE
:10223000A52FB42FBC01CD01CDB7DEB7EEE00C94D5
:102240008C0F81E090E0F8940C944013283008F053
:1022500027E03327DA01990F311D87FD9160009641
:102260006105710539F432602E5F3D9330E32A95A4
:10227000E1F708959F3F30F080387105610509F05E
:102280003C5F3C5F3D93913008F08068911DDF9387
:10229000CF931F930F93FF92EF92192F987F9695EC
:1022A000E92F96959695E90FFF27EB5FFE4F99274B
:1022B0003327EE24FF24A701E70105900894079433
:1022C00028F4360FE71EF81E491F511D660F771FB1
:1022D000881F991F0694A1F70590079428F4E70E2C
:1022E000F81E491F561FC11D770F881F991F661FB3
:1022F0000694A1F70590079428F4F80E491F561F7D
:10230000C71FD11D880F991F661F771F0694A1F75D
:102310000590079420F4490F561FC71FD81F990F27
:10232000661F771F881F0694A9F784911095177070
:1023300041F0D695C79557954795F794E7941A9528
:10234000C1F7EBEAF0E0689415901591359165912D
:10235000959105907FE27395E118F10A430B560BB6
:10236000C90BD009C0F7E10CF11E431F561FC91F4E
:10237000D01D7EF4703311F48A95E6CFE8940150B5
:1023800030F0080F0AF40027021708F4202F2395D5
:10239000022F7A3328F079E37D932A95E9F710C06C
:1023A0007D932A9589F606949795679537951795A5
:1023B0001794E118F10A430B560BC90BD00998F09A
:1023C00023957E9173957A3308F070E37C93201304
:1023D000B8F77E9170617D9330F0839571E37D93C2
:1023E00070E32A95E1F71124EF90FF900F911F9170
:1023F000CF91DF91992787FD9095089591113DC167
:10240000803219F089508550D0F70895FB01DC0126
:102410004150504088F08D9181341CF08B350CF484
:10242000805E659161341CF06B350CF4605E861B38
:10243000611171F3990B0895881BFCCFFC01059085
:10244000615070400110D8F7809590958E0F9F1FB6
:102450000895FC018191861721F08823D9F79927E7
:1024600008953197CF010895FB01DC018D91019012
:1024700080190110D9F3990B0895FB01DC0141503B
:10248000504030F08D910190801919F40020B9F777
:10249000881B990B0895FC01615070400190011058
:1024A000D8F7809590958E0F9F1F08950F931F93D7
:1024B000CF93DF938C01EB018B8181FF1BC082FFE7
:1024C0000DC02E813F818C819D812817390764F4CE
:1024D000E881F9810193F983E88306C0E885F985ED
:1024E000802F0995009731F48E819F8101969F83FB
:1024F0008E8302C00FEF1FEFC801DF91CF911F91B4
:102500000F910895A0E0B0E0E8E8F2E10C947C0FB0
:10251000FE0135966191719180913008909131085A
:10252000AF010E94CD0B2096E2E00C94980F0F9320
:102530001F93CF93DF938C01E0913008F091310825
:10254000838181FF1AC0C0E0D0E005C009950097E3
:1025500011F0CFEFDFEFF80181918F01609130082A
:1025600070913108DB011896ED91FC911997882341
:1025700069F78AE00995009711F0CFEFDFEFCE0100
:10258000DF91CF911F910F910895FA01AA2728306A
:1025900051F1203181F1E8946F936E7F6E5F7F4F30
:1025A0008F4F9F4FAF4FB1E03ED0B4E03CD0670FAC
:1025B000781F891F9A1FA11D680F791F8A1F911DFF
:1025C000A11D6A0F711D811D911DA11D20D009F44F
:1025D00068943F912AE0269F11243019305D319391
:1025E000DEF6CF010895462F4770405D4193B3E07A
:1025F0000FD0C9F7F6CF462F4F70405D4A3318F021
:10260000495D31FD4052419302D0A9F7EACFB4E0D1
:10261000A6959795879577956795BA95C9F7009789
:102620006105710508959B01AC010A2E069457952A
:10263000479537952795BA95C9F7620F731F841F81
:10264000951FA01D0895F999FECF92BD81BDF89AFE
:10265000992780B50895262FF999FECF92BD81BDA7
:10266000F89A019700B4021639F01FBA20BD0FB6D0
:10267000F894FA9AF99A0FBE089599278827089531
:04268000F894FFCFFC
:102684002520362E32662C202520362E3266002553
:1026940020362E32662C202569000000204192004D
:1026A400850077006A005A00320004000400040028
:1026B40003000800280028003230342057617420B9
:1026C4006B616E20696B20766F6F72207520646F6A
:1026D400656E00554E524F4C4C00353031205A6FC8
:1026E4006E6E6573636865726D20697320616C201A
:1026F4007569746765726F6C642100524F4C4C5558
:102704005000353031205A6F6E6E657363686572A0
:102714006D20697320616C206F706765726F6C64E3
:1027240021005354415455530032303220537461C4
:102734007475733A20256900544F47474C454155F9
:10274400540032303220415554205549542000322F
:102754003032204155542041414E20004745545FBA
:1027640054454D50003230322054454D503D2025C3
:1027740020362E3266200A004745545F4752454EA4
:10278400535F54454D5000323032204752454E532A
:102794005F54454D503A005345545F4752454E539C
:1027A4005F54454D50285A29003230332047524552
:1027B4004E535F54454D503A2000202D3E20004793
:1027C40045545F414C4C003230322054454D502525
:1027D400362E3266200A00323032204C49474854A3
:1027E400202569200A003230342041465354414E9A
:1027F4004425362E3266636D200A00323035204D72
:1028040041585F554E524F4C4C2000323036204DCB
:10281400494E5F554E524F4C4C20003230372047C2
:1028240052454E535F4C49474854200032303820BB
:102834004752454E535F54454D50200032303520A9
:102844000032303620004745545F4C494748540015
:102854004745545F4752454E535F4C4947485400DF
:10286400323032204752454E535F4C494748543A20
:10287400005345545F4752454E535F4C49474854B3
:10288400285A2900323033204752454E535F4C4971
:102894004748543A20004745545F4D41585F554ED0
:1028A400524F4C4C00323033204D41585F554E52FC
:1028B4004F4C4C3A20005345545F4D41585F554EA0
:1028C400524F4C4C285A29004745545F4D494E5F9E
:1028D400554E524F4C4C00323033204D494E5F55CB
:1028E4004E524F4C4C3A20005345545F4D494E5F75
:1028F400554E524F4C4C285A29004745545F4E417F
:102904004D450032303220005345545F4E414D4511
:10291400285A2900323030204F4B20004745545F5D
:102924004C4F434154494F4E005345545F4C4F4321
:102934004154494F4E285A29004745545F56455241
:1029440053494F4E00323032207665727369653ACE
:1029540020005345545F56455253494F4E285A2937
:10296400004578697400323231204279652100488B
:10297400656C7000393939200A0D2D2D2D2D2D2D22
:102984002D2D2D2D2D2D2D2D2D2D2D2D5A6F6E6E82
:102994006573636865726D2D2D2D2D2D2D2D2D2DB7
:1029A4002D2D2D2D2D2D2D2D2D0A0D554E524F4CE7
:1029B4004C09094C61617420686574207A6F6E6EED
:1029C4006573636865726D20756974726F6C6C658C
:1029D4006E0A0D524F4C4C555009094C61617420DC
:1029E400686574207A6F6E6E6573636865726D20B6
:1029F4006F70726F6C6C656E0A0A0D5354415455B6
:102A040053544F47474C454155542D2D2D2D2D2DB5
:102A14002D2D2D2D2D2D2D2D2D2D2D2D2D2D536584
:102A24006E736F72732D2D2D2D2D2D2D2D2D2D2D7E
:102A34002D2D2D2D2D2D2D2D2D2D0A0D4745545F7A
:102A440054454D50090947656566742074656D7079
:102A5400657261747575722076616E20646174208C
:102A64006D6F6D656E742074657275670A0A0D4723
:102A740045545F4752454E535F54454D505345545A
:102A84005F4752454E535F54454D50285A29474598
:102A9400545F4C494748544745545F4752454E5349
:102AA4005F4C494748545345545F4752454E535F22
:102AB4004C49474854285A294745545F4D41585F6B
:102AC400554E524F4C4C5345545F4D41585F554EF3
:102AD400524F4C4C285A294745545F4D494E5F5537
:102AE4004E524F4C4C5345545F4D494E5F554E52D8
:102AF4004F4C4C285A292D2D2D2D2D2D2D2D2D2D7E
:102B04002D2D2D2D2D2D2D2D2D496E666F726D6160
:102B140074696F6E2D2D2D2D2D2D2D2D2D2D2D2DDB
:102B24002D2D2D2D2D2D0A0D4745545F4E414D451C
:102B34005345545F4E414D45285A294745545F4CEF
:102B44004F434154494F4E5345545F4C4F434154B6
:102B5400494F4E285A292D2D2D2D2D2D2D2D2D2D1E
:102B64002D2D2D2D2D2D2D2D2D4F766572696765FB
:102B74002D2D2D2D2D2D2D2D2D2D2D2D2D2D2D2D81
:102B84002D2D0A0D48656C70090909576565726732
:102B94006565667420616C6C6520636F6D6D616E34
:102BA400646F27730A0D45786974090909536C75B4
:102BB4006974206865742070726F6772616D6D61ED
:102BC4000A0035313020436F6D6D616E646F206E85
:102BD400696574206765766F6E64656E212054792B
:102BE40070652048656C7020766F6F7220616C6C24
:102BF4006520636F6D6D616E646F27730A006B658A
:102C04007273746861616E000000000200000000CD
:102C14001A0900000000323530200A003939392001
:102C24005A6F6E6E6573636865726D6F70726F6CE8
:102C34006C656E202520362E326620636D200A00D6
:102C4400323031205A6F6E6E6573636865726D2021
:102C54006973207569746765726F6C640A00323534
:102C6400302000323031205A6F6E6E6573636865B0
:102C7400726D206973206F706765726F6C640A00EF
:00000001FF
