S0190000426573747572696E677365656E686569642E7372656313
S11300000C94B5000C94C3030C940B020C94D20012
S11300100C94D2000C94D2000C94D2000C94D20014
S11300200C94D2000C94D2000C94D2000C94D20004
S11300300C94D2000C94D2000C942F010C94D20096
S11300400C94D2000C94D2000C94D2000C94D200E4
S11300500C94D2000C94D2000C94D2000C94D200D4
S11300600C94D2000C94D2006E616E00696E66002E
S113007000407A10F35A00A0724E18090010A5D45B
S1130080E80000E87648170000E40B54020000CAB8
S11300909A3B000000E1F5050000809698000000FE
S11300A040420F000000A08601000000102700005D
S11300B00000E803000000006400000000000A00E3
S11300C0000000000100000000002C76D888DC67E6
S11300D04F0823DFC1DFAE59E1B1B796E5E3E4533E
S11300E0C63AE651997696E8E6C28426EB898C9B5B
S11300F062ED407C6FFCEFBC9C9F40F2BAA56FA5FB
S1130100F490055A2AF75C936B6CF9676DC11BFC7C
S1130110E0E40D47FEF520E6B500D0ED902E030097
S1130120943577050080841E080000204E0A0000E4
S113013000C80C333333330F986E12831141EF8DA3
S11301402114893BE65516CFFEE6DB18D1844B38E3
S11301501BF77C1D901DA4BBE424203284725E2214
S11301608100C9F124ECA1E53D2711241FBECFEF86
S1130170D8E0DEBFCDBF13E0A0E0B1E0E0EEF6E1F1
S113018002C005900D92A834B107D9F713E0A8E492
S1130190B3E001C01D92A03CB107E1F70E94210128
S11301A00C946E0B0C94000087E880937A0080E234
S11301B080937E000895EAE7F0E080818064808384
S11301C0808186FDFDCF80917900089585E4809338
S11301D07C00EAE7F0E0808180648083808186FD92
S11301E0FDCF8091780090917900089582E6809304
S11301F07C00EAE7F0E0808180648083808186FD72
S1130200FDCF80917900089587EF8AB98FEF84B983
S1130210089584E08093690082E08DBB1092800091
S113022008950E94E60008950E94F600089582E071
S113023084BD9CE997BD80936E0085B5856085BDBE
S113024008950E9417010E94EF030E94D4000E94A7
S113025004010E94090178940E941703FDCF1F92A4
S11302600F920FB60F9211242F933F934F935F93E6
S11302706F937F938F939F93AF93BF93CF93DF93AA
S1130280EF93FF93809148039091490301969093D3
S113029049038093480380914803909149032BE0DC
S11302A0893B92070CF4A4C00E941101682F70E0EE
S11302B080E090E00E94D80420E030E040EA5BE374
S11302C00E946405262F372FF82FE92F462F572F2A
S11302D0682F792F409358035093590360935A031E
S11302E070935B03822F932FAF2FBE2FBC01CD01E0
S11302F020E030E040E05FE30E94710420E030E061
S113030048EC52E40E946405A62FB72F462F572FBE
S1130310682F792F40939403509395036093960329
S113032070939703EDB7FEB738970FB6F894FEBFF6
S11303300FBEEDBF6DB77EB76F5F7F4FCCE7D3E0E5
S1130340D283C18320E031E0FB0133832283382F41
S1130350292F8A2F9B2FA32FB22F84839583A683C3
S1130360B7830E94EE0A2DB73EB7285F3F4F0FB602
S1130370F8943EBF0FBE2DBF87E091E00E941F049A
S1130380CE010E942E048FE39CE90197F1F700C08F
S11303900000C0914A03D0914B030E94140100D085
S11303A000D000D0EDB7FEB7319625E131E0ADB70E
S11303B0BEB712963C932E931197D383C283848342
S11303C015820E94D90A80914A0390914B030196A9
S11303D090934B0380934A0310924903109248036D
S11303E0EDB7FEB736960FB6F894FEBF0FBEEDBF5D
S11303F0FF91EF91DF91CF91BF91AF919F918F9139
S11304007F916F915F914F913F912F910F900FBE0C
S11304100F901F9018951F920F920FB60F921124F0
S11304202F933F934F935F936F937F938F939F93F8
S1130430AF93BF93CF93DF93EF93FF9380915003D8
S11304409091510381309105D1F410928100C4E858
S1130450D0E06881798180E090E00E94D604DC01DC
S1130460CB018093520390935303A0935403B0930E
S113047055031982188210925103109250038091EF
S1130480500390915103009759F4E1E8F0E0808122
S11304908160808381E090E09093510380935003C6
S11304A0FF91EF91DF91CF91BF91AF919F918F9188
S11304B07F916F915F914F913F912F910F900FBE5C
S11304C00F901F901895CF93DF938091B80390916C
S11304D0B90301969093B9038093B80380915603AE
S11304E0909157030196909357038093560388E2A3
S11304F091E00E941F042B982D9ACDE2D1E022C0F6
S11305002C9A8FE39DE0A3E081509040A040E1F756
S113051000C000002C988FE39DE0A3E08150904040
S1130520A040E1F700C000008091980390919903E6
S11305300196909399038093980380FD03C0CE01A4
S11305400E941F0480919803909199038931910529
S1130550BCF210929903109298038FE291E00E94EA
S11305602E048FE39DE0A3E081509040A040E1F78A
S113057000C00000DF91CF910895CF93DF93809165
S11305805603909157030196909357038093560313
S11305908091B8039091B90301969093B903809325
S11305A0B80388E291E00E941F042D982B9ACDE2B3
S11305B0D1E022C02C9A8FE39DE0A3E081509040CB
S11305C0A040E1F700C000002C988FE39DE0A3E079
S11305D081509040A040E1F700C000008091980352
S11305E0909199030196909399038093980380FDC9
S11305F003C0CE010E941F04809198039091990337
S113060089319105BCF210929903109298038EE4FB
S113061091E00E942E048FE39DE0A3E0815090407E
S1130620A040E1F700C00000DF91CF910895CF937F
S1130630DF93239A249A259AE9E6F0E08081816089
S1130640808381E08CBB2D9A8EE691E00E941F048A
S1130650CAE9D3E0CE016EE170E041E00E943704C4
S113066086E891E0BE010E94990A282F392F2115AE
S11306703105B1F4809156039091570362E070E024
S11306800E9453098130910521F480E991E00E9490
S11306902E048091560380FD23C00E94BD0220C019
S11306A08DEA91E06AE973E00E94990A282F392FB4
S11306B021153105A9F48091B80380FD04C086EBAF
S11306C091E00E942E048091B8039091B90362E0F6
S11306D070E00E9453098130910511F40E94630275
S11306E082ED91E06AE973E00E94990A282F392F7C
S11306F02115310599F40E94140100D000D02CED8D
S113070031E0EDB7FEB732832183948383830E9463
S1130710D90A0F900F900F900F9032C089EE91E09C
S11307206AE973E00E94990A282F392F21153105AF
S113073099F4809156039091570362E070E00E940F
S113074053098130910511F40E94BD028EEE91E0AF
S11307500E942E040E94B10987EF91E06AE973E0D8
S11307600E94990A282F392F2115310529F48CEF7D
S113077091E00E942E0404C08EEE92E00E942E04AA
S1130780DF91CF9108951F920F920FB60F9211240B
S11307902F933F934F935F936F937F938F939F9385
S11307A0AF93BF93EF93FF9383ED90E30197F1F73A
S11307B000C000008AE293E00E942E04FF91EF91B2
S11307C0BF91AF919F918F917F916F915F914F9165
S11307D03F912F910F900FBE0F901F90189510927C
S11307E0C50083E38093C4001092C00088E1809325
S11307F0C10086E08093C20089E393E09093BD0337
S11308008093BC030895E0ECF0E0908195FFFDCF68
S11308108093C6000895CF93C82F8A3019F48DE0D1
S11308200E9403048C2F0E940304CF910895E0ECEE
S1130830F0E080818823ECF78091C6000895CF937F
S1130840DF93EC018881882331F021960E94030410
S113085089918823D9F7DF91CF9108950E941F04CD
S11308608DE00E9403048AE00E9403040895AF927D
S1130870BF92CF92DF92EF92FF920F931F93CF9389
S1130880DF935C01D42F6C01EE24FF248B01015013
S113089010400E941704C82FDD2311F00E940304A6
S11308A0CD3031F4DD2371F08AE00E9403040AC0E4
S11308B0E016F10674F7F601C1936F010894E11C88
S11308C0F11CE7CFEA0CFB1CF7011082DF91CF91FA
S11308D01F910F91FF90EF90DF90CF90BF90AF905A
S11308E008955058BB27AA270ED0B4C0A5D030F025
S11308F0AAD020F031F49F3F11F41EF49AC00EF4F4
S1130900E095E7FB90C0E92FB6D080F3BA176207F1
S113091073078407950718F071F49EF5CEC00EF4A2
S1130920E0950B2EBA2FA02D0B01B90190010C01FB
S1130930CA01A0011124FF27591B99F0593F50F413
S1130940503E68F11A16F040A22F232F342F44276B
S1130950585FF3CF469537952795A795F040539563
S1130960C9F77EF41F16BA0B620B730B840BBAF033
S11309709150A1F0FF0FBB1F661F771F881FC2F79E
S11309800EC0BA0F621F731F841F48F487957795B2
S11309906795B795F7959E3F08F0B3CF9395880F69
S11309A008F09927EE0F979587950895E89409C064
S11309B097FB3EF490958095709561957F4F8F4F8E
S11309C09F4F9923A9F0F92F96E9BB279395F695A4
S11309D0879577956795B795F111F8CFFAF4BB0F22
S11309E011F460FF1BC06F5F7F4F8F4F9F4F16C086
S11309F0882311F096E911C0772321F09EE8872F10
S1130A00762F05C0662371F096E8862F70E060E0CB
S1130A102AF09A95660F771F881FDAF7880F969544
S1130A20879597F9089597F99F6780E870E060E0EB
S1130A3008959FEF80EC089500240A941616170673
S1130A4018060906089500240A94121613061406BB
S1130A5005060895092E0394000C11F4882352F01E
S1130A60BB0F40F4BF2B11F460FF04C06F5F7F4FD6
S1130A708F4F9F4F089557FD9058440F551F59F0BD
S1130A805F3F71F04795880F97FB991F61F09F3F77
S1130A9079F087950895121613061406551FF2CFA0
S1130AA04695F1DF08C0161617061806991FF1CFF0
S1130AB086957105610508940895E894BB27662717
S1130AC07727CB0197F908950BD0C4CFB5DF28F071
S1130AD0BADF18F0952309F0A6CFABCF1124EECFDF
S1130AE0CADFA0F3959FD1F3950F50E0551F629F85
S1130AF0F001729FBB27F00DB11D639FAA27F00D73
S1130B00B11DAA1F649F6627B00DA11D661F829F99
S1130B102227B00DA11D621F739FB00DA11D621F7E
S1130B20839FA00D611D221F749F3327A00D611D9B
S1130B30231F849F600D211D822F762F6A2F11247D
S1130B409F5750408AF0E1F088234AF0EE0FFF1FD0
S1130B50BB1F661F771F881F91505040A9F79E3F07
S1130B60510570F060CFAACF5F3FECF3983EDCF301
S1130B70869577956795B795F795E7959F5FC1F744
S1130B80FE2B880F911D9695879597F90895A5E1F9
S1130B90B0E0EDECF5E00C9466094C017F876E87BC
S1130BA0FC0117821682838181FD04C076C34C85C3
S1130BB05D8504C01E010894211C311CF40193813D
S1130BC0EE85FF8593FD859193FF8191FF87EE87E5
S1130BD0882309F45EC3853241F493FD859193FF24
S1130BE08191FF87EE87853259F490E0B4014C8BF4
S1130BF05D8B0E94AD0A4C895D895D874C87D7CF98
S1130C00FF24DD2410E01032B0F48B3269F08C3212
S1130C1028F4803251F0833271F40BC08D3239F0F4
S1130C20803349F411602CC01260146029C018602C
S1130C3027C0106125C017FD2EC0282F20532A304D
S1130C4098F416FF08C08F2D880FF82EFF0CFF0CA8
S1130C50F80EF20E15C08D2D880FD82EDD0CDD0C8C
S1130C60D80ED20E10620CC08E3221F416FD11C3C0
S1130C70106406C08C3611F4106802C0883659F42A
S1130C80EE85FF8593FD859193FF8191FF87EE8724
S1130C90882309F0B8CF982F9554933018F4106135
S1130CA0805E06C0982F9556933008F0A2C11F7E2F
S1130CB016FD02C0E6E0FE2E1F73853611F41064A3
S1130CC006C0863611F4106802C0F110FA9417FFBA
S1130CD007C0FBE3FF1548F0EF2CE39427E00DC0B9
S1130CE027E02F1530F02F2D07C027E07CE3E72EF7
S1130CF004C027E067E0F62EEE24CA0104969D871F
S1130D008C87FA016081718182819381A1010E2D0A
S1130D100E94B6095C01C9802C2D30E0398B288BE8
S1130D20C0FE03C0388933FF06C011FD06C012FFA0
S1130D3006C000E205C00DE203C00BE201C000E002
S1130D40888999898C709070009709F43CC00023BD
S1130D5011F084E001C083E08D1558F4D81A13FD16
S1130D6009C080E290E0B4010E94AD0ADA94C9F7A8
S1130D7001C0DD24002329F0802F90E0B4010E94FB
S1130D80AD0A888983FD05C03CE6E32E30E0F32EEE
S1130D9011C028E6E22E20E0F22E0CC00115110548
S1130DA009F0805290E0B4010E94AD0A0894E11C5D
S1130DB0F11C04C0012F10E000711070F701849140
S1130DC0882361F763C217FF0EC0EA0CF889F4FFA9
S1130DD004C08A81813309F4EA941E144CF528E096
S1130DE02E1548F12CC016FD2AC08F2D90E08A15CF
S1130DF09B0544F03CEFA3163FEFB3061CF01068CC
S1130E0001C0FA94FF2049F0E2E0F0E0EC0FFD1F8E
S1130E10EF0DF11D80818033A1F317FF10C0EF2C7B
S1130E20E3948F2D90E0A816B90644F4FA1807C08D
S1130E30EE24E39404C098E0E92E01C0FF2417FFD8
S1130E4007C01A141B043CF495012F5F3F4F05C0E3
S1130E5025E030E002C021E030E0002311F02F5FF4
S1130E603F4FFF2029F08F2D90E00196280F391F66
S1130E708D2D90E02817390714F4D21A01C0DD240F
S1130E80612E7724C30189709070009749F406C0DD
S1130E9080E290E0B4010E94AD0ADA94DD20C1F74B
S1130EA0002329F0802F90E0B4010E94AD0A63FC76
S1130EB009C006C080E390E0B4010E94AD0ADA9450
S1130EC0DD20C1F717FF48C08501B7FE02C000E06E
S1130ED010E06624772495012E1931093B8B2A8B67
S1130EE02501401A510A420C531C6F2D70E0EE2468
S1130EF0FF24E61AF70A3FEF0F3F130729F48EE2A7
S1130F0090E0B4010E94AD0AA016B10654F02A89FB
S1130F103B89201731072CF4F201E60DF71D81817E
S1130F2001C080E3015010400894611C711C0E152F
S1130F301F052CF090E0B4010E94AD0ADCCF0A1525
S1130F401B0541F49A81963320F4953319F43889BA
S1130F5034FF81E390E049C08A81813311F09FEE30
S1130F60C92290E0B4010E94AD0AFF2089F08EE20C
S1130F7090E0B4010E94AD0A12E0F101E10FF11D0D
S1130F801F5F808190E0B4010E94AD0AFA94A9F732
S1130F9064FE03C085E490E002C085E690E0B401FD
S1130FA00E94AD0AB7FC05C0A114B10441F4C4FE0B
S1130FB006C0B094A194B108B3948DE201C08BE251
S1130FC090E0B4010E94AD0A80E305C08F5FE6EFB4
S1130FD0FFEFAE0EBF1EFAE0AF16B104BCF790E00F
S1130FE0B4010E94AD0AC501C096B4010E94AD0AC5
S1130FF04DC1833631F0833789F0833509F059C008
S113100022C09A012E5F3F4F3D872C87FA018081D1
S1131010898381E0E82EF12C510113C09A012E5FDF
S11310203F4F3D872C87FA01A080B18016FF03C093
S11310306F2D70E002C06FEF7FEFC5010E94A20A1E
S11310407C011F7714C09A012E5F3F4F3D872C8788
S1131050FA01A080B18016FF03C06F2D70E002C0BA
S11310606FEF7FEFC5010E948E0A7C01106813FDAB
S11310701CC006C080E290E0B4010E94AD0ADA947C
S11310808D2D90E0E816F906A8F30FC0F50117FDC1
S1131090859117FF81915F0190E0B4010E94AD0A30
S11310A0D110DA940894E108F108E114F10471F71D
S11310B0EDC0843611F0893671F59A0117FF0AC024
S11310C02C5F3F4F3D872C87FA0180819181A2815B
S11310D0B3810BC02E5F3F4F3D872C87FA0180817F
S11310E09181AA2797FDA095BA2F012F0F76B7FFFC
S11310F008C0B095A095909581959F4FAF4FBF4F75
S11311000068BC01CD01A1012AE030E00E94100B6F
S1131110E82EE21841C0853721F41F7E2AE030E032
S113112020C0197F8F36A9F0803720F4883509F064
S1131130B0C00BC0803721F0883709F0AAC001C0C5
S1131140106114FF09C0146007C014FF08C01660C2
S113115006C028E030E005C020E130E002C020E114
S113116032E0CA0117FF09C004969D878C87FA01F3
S1131170608171818281938108C002969D878C87EA
S1131180FA016081718180E090E0A1010E94100B5E
S1131190E82EE218012F0F7706FF09C00E7FEF1427
S11311A030F404FF06C002FD04C00F7E02C01E2DF1
S11311B001C01F2D802F90E004FF0CC0FE01EE0D36
S11311C0F11D2081203311F4097E09C002FF06C0FD
S11311D01E5F05C086789070009709F01F5FA02EEF
S11311E0BB2403FD12C000FF0DC0FE2C1D1550F4DE
S11311F0FD0CF11A1D2D06C080E290E0B4010E949E
S1131200AD0A1F5F1D15C0F304C01D1510F4D11ADB
S113121001C0DD24A4FE0FC080E390E0B4010E946D
S1131220AD0AA2FE1FC0A1FE03C088E590E010C075
S113123088E790E00DC0C50186789070009791F022
S1131240A1FC02C080E201C08BE207FD8DE290E0C8
S1131250B4010E94AD0A06C080E390E0B4010E948C
S1131260AD0AFA94EF14C0F3EA94F101EE0DF11D06
S1131270808190E0B4010E94AD0AEE20A9F706C077
S113128080E290E0B4010E94AD0ADA94DD20C1F757
S11312908ECCF4018681978102C08FEF9FEF659613
S11312A0E2E10C94820997FB092E07260AD077FD08
S11312B004D043D006D000201AF4709561957F4F76
S11312C00895F6F7909581959F4F08952F923F9238
S11312D04F925F926F927F928F929F92AF92BF9242
S11312E0CF92DF92EF92FF920F931F93CF93DF93EE
S11312F0CDB7DEB7CA1BDB0B0FB6F894DEBF0FBE4B
S1131300CDBF09942A88398848885F846E847D8497
S11313108C849B84AA84B984C884DF80EE80FD8099
S11313200C811B81AA81B981CE0FD11D0FB6F8940F
S1131330DEBF0FBECDBFED010895AA1BBB1B51E15B
S113134007C0AA1FBB1FA617B70710F0A61BB70B31
S1131350881F991F5A95A9F780959095BC01CD01D6
S1131360089581E090E0F8940C946E0B283008F016
S113137027E03327DA01990F311D87FD916000962C
S11313806105710539F432602E5F3D9330E32A958F
S1131390E1F708959F3F30F080387105610509F049
S11313A03C5F3C5F3D93913008F08068911DDF9372
S11313B0CF931F930F93FF92EF92192F987F9695D7
S11313C0E92F96959695E90FFF27E653FF4F992746
S11313D03327EE24FF24A701E7010590089407941E
S11313E028F4360FE71EF81E491F511D660F771F9C
S11313F0881F991F0694A1F70590079428F4E70E17
S1131400F81E491F561FC11D770F881F991F661F9D
S11314100694A1F70590079428F4F80E491F561F67
S1131420C71FD11D880F991F661F771F0694A1F748
S11314300590079420F4490F561FC71FD81F990F12
S1131440661F771F881F0694A9F78491109517705B
S113145041F0D695C79557954795F794E7941A9513
S1131460C1F7E0E7F0E06894159015913591659126
S1131470959105907FE27395E118F10A430B560BA1
S1131480C90BD009C0F7E10CF11E431F561FC91F39
S1131490D01D7EF4703311F48A95E6CFE8940150A0
S11314A030F0080F0AF40027021708F4202F2395C0
S11314B0022F7A3328F079E37D932A95E9F710C057
S11314C07D932A9589F60694979567953795179590
S11314D01794E118F10A430B560BC90BD00998F085
S11314E023957E9173957A3308F070E37C932013EF
S11314F0B8F77E9170617D9330F0839571E37D93AD
S113150070E32A95E1F71124EF90FF900F911F915A
S1131510CF91DF91992787FD90950895FC0105905F
S1131520615070400110D8F7809590958E0F9F1FE1
S11315300895FB01DC018D91019080190110D9F30C
S1131540990B0895FC016150704001900110D8F787
S1131550809590958E0F9F1F08950F931F93CF939F
S1131560DF938C01EB018B8181FF1BC082FF0DC0D7
S11315702E813F818C819D812817390764F4E8818D
S1131580F9810193F983E88306C0E885F985802F02
S11315900995009731F48E819F8101969F838E83F4
S11315A002C00FEF1FEFC801DF91CF911F910F9180
S11315B00895A0E0B0E0EFEDFAE00C947609FE01A6
S11315C03596619171918091BC039091BD03AF01F7
S11315D00E94C7052096E2E00C949209AEE0B0E0C8
S11315E0E4EFFAE00C9474090D891E8986E08C837B
S11315F01A8309838FEF9FE79E838D83AE01475E35
S11316005F4FCE0101966F89788D0E94C705EF81E7
S1131610F885E00FF11F10822E96E4E00C949009F7
S1131620FA01AA27283051F1203181F1E8946F930F
S11316306E7F6E5F7F4F8F4F9F4FAF4FB1E03ED0B5
S1131640B4E03CD0670F781F891F9A1FA11D680F53
S1131650791F8A1F911DA11D6A0F711D811D911D86
S1131660A11D20D009F468943F912AE0269F1124FB
S11316703019305D3193DEF6CF010895462F47705F
S1131680405D4193B3E00FD0C9F7F6CF462F4F70BA
S1131690405D4A3318F0495D31FD4052419302D018
S11316A0A9F7EACFB4E0A6959795879577956795BE
S11316B0BA95C9F700976105710508959B01AC01BE
S11316C00A2E06945795479537952795BA95C9F7E5
S11316D0620F731F841F951FA01D0895F894FFCFF8
S11316E02520362E32660054656D706572617475FE
S11316F075723A2000256920696E74656E73697489
S11317006569743D25640A0032353020002E000AD4
S11317100D323031205A6F6E6E6573636865726D79
S1131720206973206F706765726F6C640A000A0D1C
S1131730323031205A6F6E6E6573636865726D2046
S11317406973207569746765726F6C640A00576108
S113175074206B616E20696B20766F6F7220752028
S1131760646F656E3F00556974726F6C6C656E00D2
S11317705A6F6E6E6573636865726D20697320615C
S11317806C207569746765726F6C6421004F7072A8
S11317906F6C6C656E005A6F6E6E6573636865720C
S11317A06D20697320616C206F706765726F6C6463
S11317B021004745545F4C49474854003230322099
S11317C04C494748542025690045786974003232F1
S11317D03120427965210048656C70002D2D2D2D36
S11317E02D2D2D2D2D2D2D2D2D2D2D2D2D2D5A6FB6
S11317F06E6E6573636865726D2D2D2D2D2D2D2DE7
S11318002D2D2D2D2D2D2D2D2D2D2D0A0D5569749C
S1131810726F6C6C656E09094C6161742068657443
S1131820207A6F6E6E6573636865726D2075697476
S1131830726F6C6C656E0A0D4F70726F6C6C656EB6
S113184009094C61617420686574207A6F6E6E6555
S113185073636865726D206F70726F6C6C656E0A6D
S11318600A0D2D2D2D2D2D2D2D2D2D2D2D2D2D2DE7
S11318702D2D2D2D2D4F7665726967652D2D2D2DFE
S11318802D2D2D2D2D2D2D2D2D2D2D2D2D2D0A0DC7
S113189048656C7009090957656572676565667402
S11318A020616C6C6520636F6D6D616E646F27736E
S11318B00A0D45786974090909536C7569742068BF
S11318C065742070726F6772616D6D610A003531E5
S11318D03020436F6D6D616E646F206E6965742096
S11318E06765766F6E64656E212054797065204853
S11318F0656C7020766F6F7220616C6C6520636F0D
S11319006D6D616E646F27730A00496E746572753C
S11319107074207765726B210000000002000000E3
S10B1920000B040000000000AC
S9030000FC
