S01300004C6963687473656E736F722E7372656383
S11300000C9434000C9451000C9451000C94510045
S11300100C9451000C9451000C9451000C94510018
S11300200C9451000C9451000C9451000C949100C8
S11300300C9451000C9451000C9451000C945100F8
S11300400C9451000C9451000C9451000C945100E8
S11300500C9451000C9451000C9451000C945100D8
S11300600C9451000C94510011241FBECFEFD8E022
S1130070DEBFCDBF11E0A0E0B1E0E8EDF8E002C0E2
S113008005900D92A235B107D9F711E0A2E5B1E0D0
S113009001C01D92AB35B107E1F70E946F000C94CB
S11300A06A040C940000ECE7F0E0808180668083B1
S11300B087E880937A007894089588E084BD8EE080
S11300C097E2909389008093880082E080936F0088
S11300D07894E1E8F0E080818560808308950E944F
S11300E05D000E94F0000E9453008FE39DE0A3E0B6
S11300F081509040A040E1F700C0000080E091E012
S11301000E948701FFCFEAE7F0E08081806480836A
S1130110808186FDFDCF8091790008950E9483003F
S113012008951F920F920FB60F9211242F933F93AD
S11301304F935F936F937F938F939F93AF93BF93EB
S1130140CF93EF93FF9380915201909153010196C5
S113015090935301809352018830910579F5C091B1
S113016054010E94830000D000D000D0EDB7FEB748
S1130170319621E331E0ADB7BEB712963C932E938E
S11301801197C2831382848315820E947201809125
S113019054018F5F809354011092530110925201C5
S11301A08EE097E290938900809388008DB79EB784
S11301B006960FB6F8949EBF0FBE8DBFFF91EF91C8
S11301C0CF91BF91AF919F918F917F916F915F91EB
S11301D04F913F912F910F900FBE0F901F90189544
S11301E01092C50083E38093C4001092C00088E19C
S11301F08093C10086E08093C20084E491E09093F0
S11302005801809357010895E0ECF0E0908195FF48
S1130210FDCF8093C6000895CF93C82F8A3019F478
S11302208DE00E9404018C2F0E940401CF91089557
S1130230E0ECF0E080818823ECF78091C60008951B
S1130240CF93DF93EC018881882331F021960E94BB
S1130250040189918823D9F7DF91CF9108950E94F1
S113026020018DE00E9404018AE00E9404010895A7
S1130270AF92BF92CF92DF92EF92FF920F931F93B0
S1130280CF93DF935C01D42F6C01EE24FF248B0108
S1130290015010400E941801C82FDD2311F00E9464
S11302A00401CD3031F4DD2371F08AE00E940401B1
S11302B00AC0E016F10674F7F601C1936F010894C1
S11302C0E11CF11CE7CFEA0CFB1CF7011082DF9163
S11302D0CF911F910F91FF90EF90DF90CF90BF903F
S11302E0AF900895A0E0B0E0E8E7F1E00C94430497
S11302F0FE01359661917191809157019091580159
S1130300AF010E94B5012096E2E00C945F040F93C4
S11303101F93CF93DF938C01E0915701F091580123
S1130320838181FF1AC0C0E0D0E005C00995009721
S113033011F0CFEFDFEFF80181918F016091570148
S113034070915801DB011896ED91FC91199788235F
S113035069F78AE00995009711F0CFEFDFEFCE013E
S1130360DF91CF911F910F910895ADE0B0E0EBEBD9
S1130370F1E00C9433043C017D876C875A01FC0145
S113038017821682838181FFC8C12E010894411C03
S1130390511CF3019381EC85FD8593FD859193FFB9
S11303A08191FD87EC87882309F4B3C1853241F438
S11303B093FD859193FF8191FD87EC87853229F424
S11303C090E0B3010E94A903E4CFFF24EE2410E0DF
S11303D01032B0F48B3269F08C3228F4803251F050
S11303E0833271F40BC08D3239F0803349F41160DB
S11303F02CC01260146029C0186027C0106125C089
S113040017FD2EC0282F20532A3098F416FF08C059
S11304108F2D880FF82EFF0CFF0CF80EF20E15C06E
S11304208E2D880FE82EEE0CEE0CE80EE20E106214
S11304300CC08E3221F416FD6CC1106406C08C36DB
S113044011F4106802C0883659F4EC85FD8593FDDB
S1130450859193FF8191FD87EC87882309F0B8CFBC
S1130460982F9554933018F09052933038F424E038
S113047030E0A20EB31E3FE339830FC0833631F060
S1130480833781F0833509F05AC022C0F501808199
S1130490898322E030E0A20EB31E21E0C22ED12CCB
S11304A0420114C092E0292E312C2A0C3B1CF50188
S11304B08080918016FF03C06F2D70E002C06FEF43
S11304C07FEFC4010E949E036C0151011F7715C088
S11304D082E0282E312C2A0C3B1CF501808091806F
S11304E016FF03C06F2D70E002C06FEF7FEFC401F1
S11304F00E9493036C011068510113FD1CC006C0D7
S113050080E290E0B3010E94A903EA948E2D90E06A
S1130510C816D906A8F30FC0F40117FD859117FF7B
S113052081914F0190E0B3010E94A903E110EA9484
S11305300894C108D108C114D10471F7E7C0843606
S113054011F0893651F5F50117FF07C080819181BB
S1130550A281B38124E030E008C080819181AA2780
S113056097FDA095BA2F22E030E0A20EB31E012F12
S11305700F76B7FF08C0B095A095909581959F4FD1
S1130580AF4FBF4F0068BC01CD01A2012AE030E0AB
S11305900E94D503D82ED4183FC0853721F41F7E7E
S11305A02AE030E020C0197F8F36A9F0803720F48C
S11305B0883509F0AEC00BC0803721F0883709F0C8
S11305C0A8C001C0106114FF09C0146007C014FF63
S11305D008C0166006C028E030E005C020E130E025
S11305E002C020E132E0F50117FF07C0608171818C
S11305F08281938144E050E006C06081718180E093
S113060090E042E050E0A40EB51EA2010E94D50382
S1130610D82ED418012F0F7706FF09C00E7FDF14E0
S113062030F404FF06C002FD04C00F7E02C01D2D7D
S113063001C01F2D802F90E004FF0CC0FE01ED0DC2
S1130640F11D2081203311F4097E09C002FF06C088
S11306501E5F05C086789070009709F01F5F802E9A
S1130660992403FD12C000FF0DC0FD2C1E1550F48B
S1130670FE0CF11A1E2D06C080E290E0B3010E9428
S1130680A9031F5F1E15C0F304C01E1510F4E11A60
S113069001C0EE2484FE0FC080E390E0B3010E9409
S11306A0A90382FE1FC081FE03C088E590E010C04C
S11306B088E790E00DC0C40186789070009791F0AF
S11306C081FC02C080E201C08BE207FD8DE290E074
S11306D0B3010E94A90306C080E390E0B3010E9425
S11306E0A903FA94DF14C0F3DA94F201ED0DF11DBD
S11306F0808190E0B3010E94A903DD20A9F706C020
S113070080E290E0B3010E94A903EA94EE20C1F7CD
S113071040CEF3018681978102C08FEF9FEF2D9623
S1130720E2E10C944F04FC0105906150704001100B
S1130730D8F7809590958E0F9F1F0895FC01615006
S1130740704001900110D8F7809590958E0F9F1FEF
S113075008950F931F93CF93DF938C01EB018B814B
S113076081FF1BC082FF0DC02E813F818C819D8142
S11307702817390764F4E881F9810193F983E88340
S113078006C0E885F985802F0995009731F48E819C
S11307909F8101969F838E8302C00FEF1FEFC801D4
S11307A0DF91CF911F910F910895FA01AA27283064
S11307B051F1203181F1E8946F936E7F6E5F7F4F2A
S11307C08F4F9F4FAF4FB1E03ED0B4E03CD0670FA6
S11307D0781F891F9A1FA11D680F791F8A1F911DF9
S11307E0A11D6A0F711D811D911DA11D20D009F449
S11307F068943F912AE0269F11243019305D31938B
S1130800DEF6CF010895462F4770405D4193B3E073
S11308100FD0C9F7F6CF462F4F70405D4A3318F01A
S1130820495D31FD4052419302D0A9F7EACFB4E0CB
S1130830A6959795879577956795BA95C9F7009783
S11308406105710508959B01AC010A2E0694579524
S1130850479537952795BA95C9F7620F731F841F7B
S1130860951FA01D08952F923F924F925F926F9211
S11308707F928F929F92AF92BF92CF92DF92EF922C
S1130880FF920F931F93CF93DF93CDB7DEB7CA1BAD
S1130890DB0B0FB6F894DEBF0FBECDBF09942A88D8
S11308A0398848885F846E847D848C849B84AA8480
S11308B0B984C884DF80EE80FD800C811B81AA810D
S11308C0B981CE0FD11D0FB6F894DEBF0FBECDBFD8
S10B08D0ED010895F894FFCF37
S11308D8416E20696E746572727570742073686FE6
S11308E8756C64206265206F63637572696E672036
S11308F86576657279203330207365636F6E64732F
S113090800256920696E74656E7369746569743D40
S113091825640A0000000002000000000C01000029
S10509280000C9
S9030000FC
