S015000041667374616E6473656E736F722E73726563B4
S11300000C94B5000C94D2000C9450010C94D200C2
S11300100C94D2000C94D2000C94D2000C94D20014
S11300200C94D2000C94D2000C94D2000C94D20004
S11300300C94D2000C94D2000C94D2000C94D200F4
S11300400C94D2000C94D2000C94D2000C94D200E4
S11300500C94D2000C94D2000C94D2000C94D200D4
S11300600C94D2000C94D2006E616E00696E66002E
S113007000407A10F35A00A0724E18090010A5D45B
S1130080E80000E87648170000E40B54020000CAB8
S11300909A3B000000E1F5050000809698000000FE
S11300A040420F000000A08601000000102700005D
S11300B00000E803000000006400000000000A00E3
S11300C0000000000100000000002C76D888DC67E6
S11300D04F0823DFC1DFAE59E1B1B796E5E3E4533E
S11300E0C63AE651997696E8E6C28426EB898C9B5B
S11300F062ED407C6FFCEFBC9C9F40F2BAA56FA5FB
S1130100F490055A2AF75C936B6CF9676DC11BFC7C
S1130110E0E40D47FEF520E6B500D0ED902E030097
S1130120943577050080841E080000204E0A0000E4
S113013000C80C333333330F986E12831141EF8DA3
S11301402114893BE65516CFFEE6DB18D1844B38E3
S11301501BF77C1D901DA4BBE424203284725E2214
S11301608100C9F124ECA1E53D2711241FBECFEF86
S1130170D8E0DEBFCDBF11E0A0E0B1E0E8EBF0E1F4
S113018002C005900D92AA31B107D9F711E0AAE196
S1130190B1E001C01D92A834B107E1F70E94E1006B
S11301A00C945A080C94000087EF8AB98FEF84B935
S11301B0089584E08093690082E08DBB10928000F2
S11301C008950E948A010E94D4000E94D900789464
S11301D011E0C2E2D1E00F2EF0E0EF2EF1E0FF2EAD
S11301E0F02D0F2EF7E0CF2EF1E0DF2EF02D15B914
S11301F08FE39CE90197F1F700C000002898609113
S1130200200170912101882777FD8095982F0E9405
S11302100E0220E030E040E05FE30E94490229E959
S11302203BEB46E15BE30E944902262F372F462F22
S1130230572F682F792F40931A0150931B01609315
S11302401C0170931D01ADB7BEB718970FB6F89493
S1130250BEBF0FBEADBFEDB7FEB731961296DC93AD
S1130260CE931197F382E282582F492F822F932F36
S1130270A52FB42F84839583A683B7830E94DA07BE
S11302804DB75EB7485F5F4F0FB6F8945EBF0FBEC1
S11302904DBFCE010E94BA01C6010E94C901A7CF79
S11302A01F920F920FB60F9211248F939F93EF9387
S11302B0FF9380911E0190911F018130910581F47B
S11302C010928100E4E8F0E0808191819093210113
S11302D0809320011182108210921F0110921E013E
S11302E080911E0190911F01009759F4E1E8F0E01C
S11302F080818160808381E090E090931F018093EE
S11303001E01FF91EF919F918F910F900FBE0F905F
S11303101F9018951092C50083E38093C400109237
S1130320C00088E18093C10086E08093C2008BE026
S113033091E090934501809344010895E0ECF0E04E
S1130340908195FFFDCF8093C6000895CF93C82F69
S11303508A3019F48DE00E949E018C2F0E949E0128
S1130360CF910895E0ECF0E080818823ECF7809150
S1130370C6000895CF93DF93EC018881882331F080
S113038021960E949E0189918823D9F7DF91CF910C
S113039008950E94BA018DE00E949E018AE00E94A5
S11303A09E010895AF92BF92CF92DF92EF92FF9297
S11303B00F931F93CF93DF935C01D42F6C01EE2432
S11303C0FF248B01015010400E94B201C82FDD238D
S11303D011F00E949E01CD3031F4DD2371F08AE0EA
S11303E00E949E010AC0E016F10674F7F601C1935B
S11303F06F010894E11CF11CE7CFEA0CFB1CF70128
S11304001082DF91CF911F910F91FF90EF90DF90B9
S1130410CF90BF90AF900895E89409C097FB3EF445
S113042090958095709561957F4F8F4F9F4F99233D
S1130430A9F0F92F96E9BB279395F69587957795BB
S11304406795B795F111F8CFFAF4BB0F11F460FF7B
S11304501BC06F5F7F4F8F4F9F4F16C0882311F0D3
S113046096E911C0772321F09EE8872F762F05C0E7
S1130470662371F096E8862F70E060E02AF09A9582
S1130480660F771F881FDAF7880F9695879597F977
S113049008950BD078C069D028F06ED018F0952359
S11304A009F05AC05FC01124A2C07ED0A0F3959F6A
S11304B0D1F3950F50E0551F629FF001729FBB2747
S11304C0F00DB11D639FAA27F00DB11DAA1F649FF3
S11304D06627B00DA11D661F829F2227B00DA11DA6
S11304E0621F739FB00DA11D621F839FA00D611D2C
S11304F0221F749F3327A00D611D231F849F600D4D
S1130500211D822F762F6A2F11249F5750408AF085
S1130510E1F088234AF0EE0FFF1FBB1F661F771F11
S1130520881F91505040A9F79E3F510570F014C0A8
S11305305EC05F3FECF3983EDCF386957795679554
S1130540B795F795E7959F5FC1F7FE2B880F911D2F
S11305509695879597F9089597F99F6780E870E0D5
S113056060E008959FEF80EC089500240A94161625
S1130570170618060906089500240A94121613068D
S1130580140605060895092E0394000C11F488231B
S113059052F0BB0F40F4BF2B11F460FF04C06F5F37
S11305A07F4F8F4F9F4F089557FD9058440F551F0D
S11305B059F05F3F71F04795880F97FB991F61F0E1
S11305C09F3F79F087950895121613061406551F58
S11305D0F2CF4695F1DF08C0161617061806991FC4
S11305E0F1CF86957105610508940895E894BB27B9
S11305F066277727CB0197F90895A5E1B0E0E3E0FA
S1130600F3E00C9489064C017F876E87FC01178206
S11306101682838181FD04C076C34C855D8504C048
S11306201E010894211C311CF4019381EE85FF8581
S113063093FD859193FF8191FF87EE87882309F4C9
S11306405EC3853241F493FD859193FF8191FF87C9
S1130650EE87853259F490E0B4014C8B5D8B0E9497
S1130660AE074C895D895D874C87D7CFFF24DD2495
S113067010E01032B0F48B3269F08C3228F48032FE
S113068051F0833271F40BC08D3239F0803349F468
S113069011602CC01260146029C0186027C010615A
S11306A025C017FD2EC0282F20532A3098F416FF9A
S11306B008C08F2D880FF82EFF0CFF0CF80EF20ED9
S11306C015C08D2D880FD82EDD0CDD0CD80ED20E62
S11306D010620CC08E3221F416FD11C3106406C0E2
S11306E08C3611F4106802C0883659F4EE85FF8503
S11306F093FD859193FF8191FF87EE87882309F00D
S1130700B8CF982F9554933018F41061805E06C0CA
S1130710982F9556933008F0A2C11F7E16FD02C093
S1130720E6E0FE2E1F73853611F4106406C086368B
S113073011F4106802C0F110FA9417FF07C0FBE32C
S1130740FF1548F0EF2CE39427E00DC027E02F15A8
S113075030F02F2D07C027E07CE3E72E04C027E00C
S113076067E0F62EEE24CA0104969D878C87FA0171
S11307706081718182819381A1010E2D0E94C00646
S11307805C01C9802C2D30E0398B288BC0FE03C05E
S1130790388933FF06C011FD06C012FF06C000E20F
S11307A005C00DE203C00BE201C000E0888999890D
S11307B08C709070009709F43CC0002311F084E021
S11307C001C083E08D1558F4D81A13FD09C080E2E6
S11307D090E0B4010E94AE07DA94C9F701C0DD24A9
S11307E0002329F0802F90E0B4010E94AE0788898D
S11307F083FD05C03CE6E32E30E0F32E11C028E66D
S1130800E22E20E0F22E0CC00115110509F08052F1
S113081090E0B4010E94AE070894E11CF11C04C0EE
S1130820012F10E000711070F7018491882361F7A3
S113083063C217FF0EC0EA0CF889F4FF04C08A8172
S1130840813309F4EA941E144CF528E02E1548F17E
S11308502CC016FD2AC08F2D90E08A159B0544F00C
S11308603CEFA3163FEFB3061CF0106801C0FA94E6
S1130870FF2049F0E2E0F0E0EC0FFD1FEF0DF11D69
S113088080818033A1F317FF10C0EF2CE3948F2DE8
S113089090E0A816B90644F4FA1807C0EE24E394CD
S11308A004C098E0E92E01C0FF2417FF07C01A1402
S11308B01B043CF495012F5F3F4F05C025E030E059
S11308C002C021E030E0002311F02F5F3F4FFF20F2
S11308D029F08F2D90E00196280F391F8D2D90E07F
S11308E02817390714F4D21A01C0DD24612E7724A5
S11308F0C30189709070009749F406C080E290E0CB
S1130900B4010E94AE07DA94DD20C1F7002329F078
S1130910802F90E0B4010E94AE0763FC09C006C0BA
S113092080E390E0B4010E94AE07DA94DD20C1F7C1
S113093017FF48C08501B7FE02C000E010E066243E
S1130940772495012E1931093B8B2A8B2501401AF6
S1130950510A420C531C6F2D70E0EE24FF24E61A5A
S1130960F70A3FEF0F3F130729F48EE290E0B4013A
S11309700E94AE07A016B10654F02A893B892017BD
S113098031072CF4F201E60DF71D818101C080E3EB
S1130990015010400894611C711C0E151F052CF0A9
S11309A090E0B4010E94AE07DCCF0A151B0541F4A8
S11309B09A81963320F4953319F4388934FF81E30E
S11309C090E049C08A81813311F09FEEC92290E002
S11309D0B4010E94AE07FF2089F08EE290E0B401DA
S11309E00E94AE0712E0F101E10FF11D1F5F80814B
S11309F090E0B4010E94AE07FA94A9F764FE03C024
S1130A0085E490E002C085E690E0B4010E94AE0760
S1130A10B7FC05C0A114B10441F4C4FE06C0B094EF
S1130A20A194B108B3948DE201C08BE290E0B401CB
S1130A300E94AE0780E305C08F5FE6EFFFEFAE0EC6
S1130A40BF1EFAE0AF16B104BCF790E0B4010E94F7
S1130A50AE07C501C096B4010E94AE074DC18336EE
S1130A6031F0833789F0833509F059C022C09A01E7
S1130A702E5F3F4F3D872C87FA018081898381E077
S1130A80E82EF12C510113C09A012E5F3F4F3D8790
S1130A902C87FA01A080B18016FF03C06F2D70E08F
S1130AA002C06FEF7FEFC5010E94A3077C011F778F
S1130AB014C09A012E5F3F4F3D872C87FA01A08016
S1130AC0B18016FF03C06F2D70E002C06FEF7FEF9F
S1130AD0C5010E9498077C01106813FD1CC006C064
S1130AE080E290E0B4010E94AE07DA948D2D90E08C
S1130AF0E816F906A8F30FC0F50117FD859117FF55
S1130B0081915F0190E0B4010E94AE07D110DA94A4
S1130B100894E108F108E114F10471F7EDC084369A
S1130B2011F0893671F59A0117FF0AC02C5F3F4F07
S1130B303D872C87FA0180819181A281B3810BC00A
S1130B402E5F3F4F3D872C87FA0180819181AA2730
S1130B5097FDA095BA2F012F0F76B7FF08C0B09567
S1130B60A095909581959F4FAF4FBF4F0068BC01F2
S1130B70CD01A1012AE030E00E94FC07E82EE21832
S1130B8041C0853721F41F7E2AE030E020C0197F60
S1130B908F36A9F0803720F4883509F0B0C00BC037
S1130BA0803721F0883709F0AAC001C0106114FF12
S1130BB009C0146007C014FF08C0166006C028E00E
S1130BC030E005C020E130E002C020E132E0CA019B
S1130BD017FF09C004969D878C87FA016081718193
S1130BE08281938108C002969D878C87FA01608177
S1130BF0718180E090E0A1010E94FC07E82EE218D8
S1130C00012F0F7706FF09C00E7FEF1430F404FFA5
S1130C1006C002FD04C00F7E02C01E2D01C01F2DA0
S1130C20802F90E004FF0CC0FE01EE0DF11D208129
S1130C30203311F4097E09C002FF06C01E5F05C0FF
S1130C4086789070009709F01F5FA02EBB2403FDE7
S1130C5012C000FF0DC0FE2C1D1550F4FD0CF11A3E
S1130C601D2D06C080E290E0B4010E94AE071F5F14
S1130C701D15C0F304C01D1510F4D11A01C0DD24E4
S1130C80A4FE0FC080E390E0B4010E94AE07A2FE70
S1130C901FC0A1FE03C088E590E010C088E790E083
S1130CA00DC0C50186789070009791F0A1FC02C038
S1130CB080E201C08BE207FD8DE290E0B4010E9466
S1130CC0AE0706C080E390E0B4010E94AE07FA9438
S1130CD0EF14C0F3EA94F101EE0DF11D808190E070
S1130CE0B4010E94AE07EE20A9F706C080E290E0AE
S1130CF0B4010E94AE07DA94DD20C1F78ECCF40172
S1130D008681978102C08FEF9FEF6596E2E10C9494
S1130D10A5062F923F924F925F926F927F928F928D
S1130D209F92AF92BF92CF92DF92EF92FF920F9376
S1130D301F93CF93DF93CDB7DEB7CA1BDB0B0FB680
S1130D40F894DEBF0FBECDBF09942A88398848883D
S1130D505F846E847D848C849B84AA84B984C884D3
S1130D60DF80EE80FD800C811B81AA81B981CE0FCA
S1130D70D11D0FB6F894DEBF0FBECDBFED010895AF
S1130D80283008F027E03327DA01990F311D87FD59
S1130D90916000966105710539F432602E5F3D93D0
S1130DA030E32A95E1F708959F3F30F080387105CC
S1130DB0610509F03C5F3C5F3D93913008F0806829
S1130DC0911DDF93CF931F930F93FF92EF92192FEF
S1130DD0987F9695E92F96959695E90FFF27E65308
S1130DE0FF4F99273327EE24FF24A701E70105903D
S1130DF00894079428F4360FE71EF81E491F511D66
S1130E00660F771F881F991F0694A1F70590079412
S1130E1028F4E70EF81E491F561FC11D770F881FBF
S1130E20991F661F0694A1F70590079428F4F80EFD
S1130E30491F561FC71FD11D880F991F661F771F93
S1130E400694A1F70590079420F4490F561FC71F75
S1130E50D81F990F661F771F881F0694A9F78491DE
S1130E601095177041F0D695C79557954795F79407
S1130E70E7941A95C1F7E0E7F0E0689415901591AE
S1130E8035916591959105907FE27395E118F10A8A
S1130E90430B560BC90BD009C0F7E10CF11E431FDD
S1130EA0561FC91FD01D7EF4703311F48A95E6CF06
S1130EB0E894015030F0080F0AF40027021708F4F0
S1130EC0202F2395022F7A3328F079E37D932A95F6
S1130ED0E9F710C07D932A9589F60694979567954E
S1130EE0379517951794E118F10A430B560BC90B64
S1130EF0D00998F023957E9173957A3308F070E3C6
S1130F007C932013B8F77E9170617D9330F08395C4
S1130F1071E37D9370E32A95E1F71124EF90FF903C
S1130F200F911F91CF91DF91992787FD9095089597
S1130F30FC010590615070400110D8F780959095A0
S1130F408E0F9F1F0895FC016150704001900110A5
S1130F50D8F7809590958E0F9F1F08950F931F9338
S1130F60CF93DF938C01EB018B8181FF1BC082FF48
S1130F700DC02E813F818C819D812817390764F42F
S1130F80E881F9810193F983E88306C0E885F9854E
S1130F90802F0995009731F48E819F8101969F835C
S1130FA08E8302C00FEF1FEFC801DF91CF911F9115
S1130FB00F910895AEE0B0E0E0EEF7E00C949706F0
S1130FC00D891E8986E08C831A8309838FEF9FE73E
S1130FD09E838D83AE01475E5F4FCE0101966F897C
S1130FE0788D0E94FD02EF81F885E00FF11F1082D9
S1130FF02E96E4E00C94B306FA01AA27283051F1A6
S1131000203181F1E8946F936E7F6E5F7F4F8F4F35
S11310109F4FAF4FB1E03ED0B4E03CD0670F781F94
S1131020891F9A1FA11D680F791F8A1F911DA11D79
S11310306A0F711D811D911DA11D20D009F46894B2
S11310403F912AE0269F11243019305D3193DEF65A
S1131050CF010895462F4770405D4193B3E00FD010
S1131060C9F7F6CF462F4F70405D4A3318F0495DFB
S113107031FD4052419302D0A9F7EACFB4E0A695DE
S11310809795879577956795BA95C9F70097610500
S1131090710508959B01AC010A2E06945795479556
S11310A037952795BA95C9F7620F731F841F951F4B
S10B10B0A01D0895F894FFCF80
S11310B82520362E32660020636D000000000200F1
S10D10C8000000A601000000000073
S9030000FC
